:020000041000EA
:1000000000B5324B212058609868022188439860DF
:10001000D860186158612E4B002199600221596106
:100020000121F02299502B49196001219960352056
:1000300000F044F80222904214D00621196600F024
:1000400034F8196E01211966002018661A6600F04E
:100050002CF8196E196E196E052000F02FF8012189
:100060000842F9D1002199601B49196000215960AB
:100070001A491B48016001219960EB211966A021F2
:10008000196600F012F800219960164914480160C1
:100090000121996001BC002800D000471248134993
:1000A000086003C880F30888084703B5996A0420EC
:1000B0000142FBD001200142F8D103BD02B5186610
:1000C0001866FFF7F2FF186E186E02BD00000240BE
:1000D000000000180000070000035F00212200005C
:1000E000F4000018222000A00001001008ED00E03C
:1000F00000000000000000000000000074B24E7A12
:1001000000200420F7010010CB010010CD010010E9
:10011000C9010010C9010010C9010010C901001077
:10012000C9010010C9010010C9010010CF01001061
:10013000C9010010C9010010D1010010D301001045
:10014000C1010010C1010010C1010010C101001067
:10015000C1010010C1010010C1010010C101001057
:10016000C1010010C1010010C1010010C101001047
:10017000C1010010C1010010C1010010C101001037
:10018000C1010010C1010010C1010010C101001027
:10019000C1010010C1010010C1010010C101001017
:1001A000C1010010C1010010C1010010C101001007
:1001B000C1010010C1010010C1010010C1010010F7
:1001C000EFF30580103800BE00BE00BE00BE00BECA
:1001D00000BE00BEF2EB887184200310A42003103F
:1001E0003802001090A31AE71E481F49086006C88D
:1001F00081F3088810471D480068002801D019487D
:10020000F3E70DA40ECC002902D000F012F8F9E7B4
:100210001749184A002000E001C19142FCD116495B
:100220008847164988471649884700BEFDE701C937
:1002300001C29A42FBD37047A4200310C0000020E3
:10024000CC170020B0370310000004200000042069
:10025000B03703100010042000100420000000003C
:10026000704700000000000008ED00E0000000D032
:10027000CC170020D42A002099AF0010CD500010D8
:1002800059AF0010F8B5C04606480749091A8B1047
:10029000C90FC91810B5491003D0044B002B00D06A
:1002A000984710BDCC170020CC170020000000009C
:1002B000054B10B5002B03D00449054800E000BFF2
:1002C000FFF7E2FF10BDC046000000006C2A0020CE
:1002D000F4560110F0B5DE464E4645465746E0B5A9
:1002E000050085B083600E9B01604260C3601030E2
:1002F0000C0002F05DFD2800343004F0AFFD2368EF
:100300002000DB6A98470600236820001B6B984793
:10031000002431000026F04B0200E81804F046FEED
:10032000EE4BE81802F0AEFDED4BEE4AEB18A818C4
:100330001C605C609C60DC601E619C829C61DE6174
:1003400020339842F4D1E84B1422EB181C600021B2
:1003500009F0D2F8E54B0022EC50E918E44B4C6070
:10036000EC50EB185C6003230A77E24AE2480B7416
:10037000AC50AA1854602C5028184460DF4800275D
:1003800084460092009AAC441374177762462C504E
:10039000DB4854602C5028184460DA4813748046B7
:1003A000A844177742462C50D74854602C50281840
:1003B0004460D64813748246AA44177752462C509C
:1003C000D34854602C5028184460D2481374814696
:1003D000A94417772C50484644600290CE482C50D0
:1003E00028184460484603740777CC488146A944DE
:1003F0002C50484644600390C9482C50281844604B
:10040000484603740777C7488146A9442C5048469C
:1004100044600190C4484A462C5028184460C348A0
:1004200013748146A94417774A462C50C04854603B
:100430002C5028184460BF4813748346AB44177788
:100440005A462C50BC4854602C50281844601374F1
:10045000634617774C61009A039854615C61434688
:100460005C615346019A5C61029B5C61446154612A
:100470004A4654615A4654618E616146009A9661BB
:100480008E6141468E6151468E619E614B46019A56
:10049000866196619E615B469E6197239B01EB1886
:1004A0001C60A64B0A220021E81809F025F8A44B8D
:1004B000A449EC50EA18A44B5460EC50EB185C6073
:1004C0000523546113749661D66116629F4AAA1877
:1004D00017709F4AAC50AA1854606C5069184C6051
:1004E000137454619661D66116629A4A9A49AA18A1
:1004F00017709A4AAC50AA1854606C5069184C6036
:10050000137454619661D6611662954A9549AA188A
:100510001770954AAC50AA1854606C5069184C601A
:1005200054619661D66116621374904A9049AA1874
:100530001770904AAC50AA1854606C5069184C60FF
:100540008D496B5054619661D66116628B4A8C4915
:10055000AA1817708B4AAC50AA1854606C506918CE
:100560004C6089496B5054619661D6611662874A26
:100570008749AA181770874AAC50AA1854606C5063
:1005800069184C6084496B5054619661D66116625B
:10059000824A8349AA181770824AAC50AA1854603C
:1005A0006C5069184C6080496B5054619661D661FB
:1005B00016629C229201AA1817707C4A7C49AC50A2
:1005C000AA1854606C5069184C6054619661D661E9
:1005D00013741662774A7849AA181770774AAC5094
:1005E000AA1854606C5069184C6075496B50754B73
:1005F0005461EB189661D66116621F70724B00262B
:10060000EB181C600024714B0A22E818002108F046
:1006100073FF6F4B6F4AEB18A8181C605C609C60FE
:10062000DC601E619C829C61DE6120339842F4D1C3
:10063000694B1E22EB181C60002108F05DFF0022B0
:100640000027664B2800EC50EB181A7205225C60FC
:10065000DC601E611F759C61614BEC50EB185C60A7
:100660009A601F735C611F7401235E4A5B42AB504A
:100670005D4AAB505D4AAB505D4AAB505D4AAB50F2
:100680005D4AAB505D4AAB505D4AAB505D4AAB50E2
:100690000432AB505C4AAB505C4AAB505C4AAB5046
:1006A0005C4AAB505C4AAB505C4AAB505C4AAB50C6
:1006B0005C4BEC505C4BEE505C4BEC505C4BEE50AA
:1006C0005C4BEF545C4BEF5405B0F0BCBB46B246FC
:1006D000A946A046F0BDC046B4210000C8210000D4
:1006E000DC2100005C240000702400007424000061
:1006F0007C240000942400009C240000B42400000A
:10070000BC240000D4240000DC240000F4240000F9
:10071000FC240000142500001C25000034250000E6
:100720003C250000542500005C25000074250000D5
:100730007C250000942500009C250000B4250000C5
:10074000C4250000F4250000CC250000E8250000A9
:10075000EC250000102600001C26000014260000D6
:1007600038260000442600003C26000060260000D9
:100770006C26000064260000742600008826000015
:10078000942600008C2600009C260000B026000065
:10079000BC260000B4260000C4260000D8260000B5
:1007A000E4260000DC260000EC2600000427000000
:1007B0000C27000028270000342700002C27000009
:1007C0003C2700005027000060270000542700004D
:1007D00064270000242B0000442B0000482B00005D
:1007E000642B0000DC2B0000E02B0000E42B000059
:1007F000E82B0000EC2B0000F02B0000F42B000095
:10080000F82B0000FC2B0000042C0000082C00003A
:100810000C2C0000102C0000142C0000182C0000E0
:100820001C2C0000202C0000242C0000282C000090
:100830002C2C0000702C0000302C000010B504009F
:1008400000683C490368DB6998473B4B3B49E050F3
:1008500020680368DB699847394B3A49E0502068C3
:100860000368DB699847384B3849E05020680368D3
:10087000DB699847364B3749E05020680368DB69ED
:100880009847354B3549E05020680368DB69984745
:10089000334B3449E05020680368DB699847324B9A
:1008A0003249E05020680368DB699847304B314992
:1008B000E05020680368DB6998472F4B2F49E050D0
:1008C00020680368DB699847B0239B01E0502068EB
:1008D0002B490368DB6998472A4B2B49E050206875
:1008E0000368DB699847294B2949E0502068036871
:1008F000DB699847274B2849E05020680368DB698B
:100900009847264B2649E05020680368DB699847E2
:10091000244B2549E05020680368DB699847234B46
:100920002349E05020680368DB699847214BE05079
:1009300010BDC046F8560110DC2B000018570110FE
:10094000E02B000038570110E42B0000585701102D
:10095000E82B000080570110EC2B00009857011085
:10096000F02B0000B0570110F42B0000D0570110FD
:10097000F82B0000F0570110FC2B00000858011064
:1009800024580110042C000044580110082C0000C9
:10099000605801100C2C000080580110102C000031
:1009A0009C580110142C0000B8580110182C00009D
:1009B000D45801101C2C000010229446F0B5DE46DD
:1009C00057464E46454684446246E0B593B006928B
:1009D000C26B00260261302201210400036C866193
:1009E0004361C661835C8B438354D94B0021C0189B
:1009F0001C3A08F081FDD74B0A22E3181E60D64B43
:100A000000219946A144484608F076FD97239B01B2
:100A10009A46A24453461E60D04B0A229C46A444E8
:100A2000634600211800029308F066FDCC4B1E229D
:100A30009B46A3445B461E60CA4B0021E01808F0A9
:100A40005BFDC94BE3181E60C84BE518C84B2E75FB
:100A5000E718C84BAE613E747E61E6500433E65041
:100A6000C54BE650C54BE650C54BE650C54BE6506E
:100A7000C54BE650C54BE650C54BE650C54BE6505E
:100A8000C54BE650C54BE650C54BE650C54BE6504E
:100A9000C54BE650C54BE650C54BE6500433E65017
:100AA000C44BE650C44BE650C44BE650C44BE65032
:100AB000C44BE650C44BE652C44BE3181B78019379
:100AC000002B59D0C24B9846C24BA0449C46A4442C
:100AD00063460393C04B9C46A44463460493BF4BB8
:100AE0009C46A444634605935B4607932B00BB4694
:100AF000454698464B461B78002B00D109E1039BE5
:100B00001B78002B00D1C0E1049B1B78002B00D187
:100B1000C3E1059B1B78002B00D1C2E1B04BE31869
:100B20001B78002B00D1C4E1AE4BE3181B78002BDF
:100B300000D1CAE1AC4BE3181B78002B00D1CCE10B
:100B4000AA4BE3181B78002B00D1CAE1A84BE3188D
:100B50001B78002B00D1CDE1A64BE3181B78002BAE
:100B600000D1D6E10136019BF6B208359E42C1D1D3
:100B7000079B5F4645469B469F4BE3181B789A466A
:100B8000002B52D09D4B049598469D4BA04499460E
:100B90009C4B45469C46A444634601939A4B0026D1
:100BA0009C46A4446346B846A1440393029B1B7829
:100BB000002B00D146E14B461B78002B00D160E1B1
:100BC000019B1B78002B00D163E1039B1B78002B5A
:100BD00000D16AE18D4BE3181B78002B00D16CE14A
:100BE0008B4BE3181B78002B00D16AE1894BE3188B
:100BF0001B78002B00D16CE1874BE3181B78002B8E
:100C000000D172E1854BE3181B78002B00D176E10F
:100C1000834BE3181B78002B00D175E10136F6B247
:100C200008355645C2D14746049D7E4BE3181B78D4
:100C30009B467D4B99460023984601339A465B4676
:100C4000A144002B24D03B0022004F4699462B7D27
:100C500044469046002B19D153462B75AB69002BA7
:100C600001D15346AB6139687A6808A803F0B4F83B
:100C70002B0008AA43CA43C30134E4B203CA03C326
:100C80005C4503D02B7D0837002BE5D044464F460A
:100C90000022664BE254664BE3181B78002B2AD0E7
:100CA000013BDBB29B009846012399462300614A31
:100CB000A518614AA844A618444698463B7C002BD8
:100CC00018D14B463B747B69002B01D14B467B61AD
:100CD000316872682B6808A803F0FAF80D22380012
:100CE00008A908F00FFCAC4204D03B7C0435083660
:100CF000002BE6D044462200504B06993432E018CF
:100D000004F05AF913B0F0BCBB46B246A946A0465F
:100D1000F0BD0121002700220F48A31884460120BE
:100D20006344187053461B68934201D853461960B8
:100D3000434B29689C4667446A680123E71908A861
:100D400002F02EFA1D22380008A908F0DBFB09E7A3
:100D50005C24000070240000B4250000542700002B
:100D600060270000242B0000442B0000482B0000CB
:100D7000642B00007C2B0000842B0000882B0000DB
:100D80008C2B0000902B0000942B0000982B00006F
:100D90009C2B0000A02B0000A42B0000A82B00001F
:100DA000AC2B0000B02B0000B42B0000B82B0000CF
:100DB000BC2B0000C42B0000C82B0000CC2B000073
:100DC000D02B0000D42B0000D82B0000F020000016
:100DD000A0200000B5250000B6250000B7250000C2
:100DE000B8250000B9250000BA250000BB25000089
:100DF000BC250000BD25000094210000F420000067
:100E000055270000562700005727000058270000EC
:100E1000592700005A2700005B2700005C270000CC
:100E20005D270000A021000098210000702C000028
:100E3000AC210000B0210000A4210000B42100007A
:100E4000742400000121002700223448A31884469E
:100E50000120634418705B461B68934201D85B46CF
:100E600019602F4B29689C4667446A680123E7197B
:100E700008A802F055FB2522380008A908F042FB1B
:100E8000CCE6022128270122DFE7022120270122C8
:100E900042E7032150270222D7E7032140270222FD
:100EA0003AE704216027032236E70421782703224A
:100EB000CBE70521802704222EE70521A027042265
:100EC000C3E70621C8270522BFE70621A027052280
:100ED00022E70721F0270622B7E70721C0270622CD
:100EE0001AE70821E027072216E78C2708210722A6
:100EF0007F00AAE78027092108227F000CE7A027AE
:100F0000092108227F00A0E7B4270A2109227F00D7
:100F10009BE790270A2109227F00FDE65427000065
:100F2000C425000010B50400002907D0054B3F225E
:100F3000C0180FF0FBFA0022034BE2542000FFF729
:100F40003BFD10BD302C00006F2C0000F0B5C646F4
:100F50000100060000B584B06846103101F08AFF38
:100F6000264BF3181878002825D0019B009D9C463D
:100F7000039B029F63449846214BEF19F11800230D
:100F80000C688A68A218954219DABC4217DA4C68D4
:100F9000CA68A218944512DA444510DA194BF318BE
:100FA0001B7C002B11D13000103134300C0003F0C9
:100FB0002DFA002815D104B080BCB846F0BD01332D
:100FC000DBB258318342DBD1F5E70F4BF35C002BEA
:100FD000F1D03000103134300C0003F017FA002843
:100FE000E9D00A4B3F22F01821000FF09FFA0022AF
:100FF000074B3000F254FFF7DFFCDCE79C200000D9
:1010000044200000642B0000702C0000302C0000F5
:101010006F2C0000F0B5DE4657464E464546E0B51B
:101020000700B9B00390C068AE4C03689B6898474E
:10103000786803689B689847F8680368DB68984796
:10104000BC4683463900A8485B46103160447A6844
:1010500088460C9101F05EFFBC4664445A4620006D
:10106000414602F08FFF2000414602F0B5FF8F217C
:101070005846C90508F0E1F808F050F90500C61710
:10108000B8692A003300C11708F0A0F8BC463B69D4
:101090000904000C0843954A1B1862443B613B005D
:1010A0009246343330241A00414650469946049300
:1010B00003F064F801223B5D93433B55F8692A0035
:1010C0003300C11708F082F87B690904000C08435B
:1010D0001B184A46414650467B6102F08FFF594635
:1010E000404601F077FE395D4B0701D500F0DEFC8C
:1010F0007F4A3B0094467F4A6744944663440E9778
:101100002593039C7C4BA446E3587B4920686144AB
:101110001B142491059306228A5E03680B92DB6AF6
:1011200098470890206803681B6B9847A446734B48
:101130000E9A63441C000F930123150098469146B4
:101140000D9023922B78002B40D05946200001F0BF
:10115000D3FF21005046049A03F07CF8002801D008
:1011600043462375059808F0B7F88F21C90508F0A4
:1011700064F808F0D3F827680600874224DB089853
:1011800008F0AAF88F21C90508F057F808F0C6F84A
:101190008019B84218DB0B9808F09EF88F21C9051A
:1011A00008F04BF808F0BAF86768060087420BDBD6
:1011B0000D9808F091F88F21C90508F03EF808F065
:1011C000ADF88019B84201DA434623752034013561
:1011D000A145B7D19722039B92019B589946002BBA
:1011E00001D101F0C6F9039B45491A008C466244BF
:1011F00016000A92434A1F00944643491A00674466
:101200008C4662440692524609925A4600249B46F6
:10121000079204E00134203602374C453AD2092CBB
:10122000F8D8069B1B5D002BF4D05B461869336829
:10123000C01A5B465A697368C117D31A9846DB1700
:101240009A4602000B0007F0C1FF0904050C424654
:1012500053460D434046514607F0B8FF0904000CC1
:1012600008432A4A2D180123954200DB00233B70D6
:10127000264B9D42CEDA3000049A079902F030F8EE
:1012800097225B4692019B580134994620360237DB
:101290004C45C4D3099B1E4A9A46079B9B46039B19
:1012A0009B589946002B01D101F075F9039B194910
:1012B0001A008C46624416000992174A1F00944691
:1012C00016491A0067448C461549624407928C46B9
:1012D0001A0062441092524612925A4600249B46CB
:1012E000119224E0C4210000C8210000C5210000A3
:1012F0005C24000070240000B4210000DC21000008
:10130000742400007C2B0000B4250000000090D065
:1013100060270000C4250000AE2B00005427000009
:10132000642700000134283602374C453CD2092C92
:10133000F8D8079B1B5D002BF4D05B461869336817
:10134000C01A5B465A697368C117D31A9846DB17EF
:101350009A4602000B0007F039FF0904050C4246CB
:1013600053460D434046514607F030FF0904000C38
:101370000843B94A2D180123954200DB00233B7036
:10138000B54B9D42CEDA109B3000049A0093119920
:101390000C9B02F0D1F95B46B04A01349B582836C9
:1013A000994602374C45C2D3129B9A46119B9B46E5
:1013B000039C0021606A07F075FF002801D000F04F
:1013C00030FCA74922008C46A649624421928C46F3
:1013D0002200A54962441F928C462200A349624420
:1013E0001D928C462200A24962441B928C46220028
:1013F000A049624418928C4622009F496244199287
:101400008C4622009D49624416928C4622009C49DB
:10141000624414928C4622009A49624412928C468D
:1014200022009949624422928C46220097496244E4
:1014300020928C462200964962441E928C462200DD
:10144000944962441C928C462200934962441A9249
:101450008C4622009149624417928C4622006244D5
:101460001592230022008E498C46624413928D4AC5
:101470009446634411938C4B039D9C460123109C1E
:10148000654426002F009946A8463B78002B40D0A3
:101490005946300002F04CFC31005046049A02F0EC
:1014A0001FFF002801D04B463375059807F014FF45
:1014B0008F21C90507F0C1FE07F030FF3568040031
:1014C000854224DB089807F007FF8F21C90507F044
:1014D000B4FE07F023FF0019A84218DB0B9807F0B1
:1014E000FBFE8F21C90507F0A8FE07F017FF7568FE
:1014F000040085420BDB0D9807F0EEFE8F21C90535
:1015000007F09BFE07F00AFF0019A84201DA4B46DC
:101510003375203601374645B7D1644A039B94465C
:10152000634405931B7D4546109C002B03D0594610
:10153000059802F061FC039B5D4F5846D95907F0AE
:1015400065FE5C49061C07F0B5FE002800D020E3CC
:10155000039BDE51039B584F5846D95907F056FE5E
:101560005449061C07F0A6FE002800D10EE351499D
:10157000301C07F048FE514E039B0C21D85198595E
:101580001F00013006F008FFB9514D490F9B8C46F2
:101590009846039A0E9B624492462CAA46469B4666
:1015A0009146984630AF08950B9405E001239C4680
:1015B0002036E34446453FD05B461B78002BF5D0F0
:1015C0005346B2461E00069C0A9D2378002B00D18C
:1015D0005DE25146484601F0DBFD2900380001F08C
:1015E00007FE4B4639681A68BB68CB189A4200DB85
:1015F0004DE24B469B68D218914200DB47E24B46D6
:1016000079685A68FB68CB189A4200DB3FE24B4688
:10161000DB68D218914200DB39E2330056469A4625
:10162000012301213375280001F0DAFD01239C46D6
:101630002036E3444645BFD12249039A8C46624492
:1016400092460E9B2CAA914630AA57469B4690463E
:101650009A460F9E3EE0C046000090D060270000F2
:10166000B5250000B6250000B7250000B82500000C
:10167000B9250000BA250000BB250000BC250000EC
:10168000BD25000055270000562700005727000001
:1016900058270000592700005A2700005B27000048
:1016A0005C2700005D270000242B0000482B000071
:1016B000242C000068B32A3E2C2C0000282C0000AB
:1016C000BE2500005E27000001239C462036E3442F
:1016D00056453BD05B461B78002BF5D0079C099DF7
:1016E0002378002B00D1DBE13100484601F050FDAA
:1016F0002900404601F040FF4B461A6843461968EE
:101700009B68CB189A4200DBCAE14B469B68D21813
:10171000914200DBC4E14B465A6843465968DB6896
:10172000CB189A4200DBBBE14B46DB68D2189142F2
:1017300000DBB5E1012301213375280001F014FF1E
:1017400001239C462036E3445645C3D12CAB984632
:10175000089D0C9B2E0099460B9C30AF3378002BD4
:1017600026D02100404602F02FFB4946380001F008
:1017700081FB434639681A68BB68CB189A4217DA6E
:1017800043469B68D218914212DA434679685A68F8
:10179000FB68CB189A420BDA4346DB68D2189142B9
:1017A00006DA01232022039923758B5C013B8B54BD
:1017B00020340136A542D1D1059B1B7D002B22D0C0
:1017C000059E337A002B1ED031002CA830AC02F0DD
:1017D00077FB0C99200001F04DFB3099329B2C9A3D
:1017E000CB189A420FDA2E9BD21891420BDA31991C
:1017F000339A2D9B8A18934205DA2F9A9B189942A7
:1018000001DA00F02CFFC84B039C9C466444237C07
:10181000002B16D0237B002B13D121002CA830AE37
:1018200002F0A8FB0C99300001F024FB3099329BA8
:101830002C9ACB189A4204DA2E9BD218914200DAE5
:10184000E3E3BA4A00219446039B239A259C634410
:101850001078002803D01878002800D011700132C9
:1018600020339442F4D1039AB14913008C46B14914
:1018700063448C466244110000202A78002A03D079
:101880001A78002A00D02870013520338D42F4D117
:10189000069A1378002B04D00A9B1B7C002B00D1E6
:1018A000ACE1219A1378002B07D0A349039B8C4607
:1018B00063441B78002B00D19EE11F9A1378002B04
:1018C00007D09E49039B8C4663441B78002B00D1B4
:1018D00090E11D9A1378002B07D09949039B8C4601
:1018E00063441B78002B00D182E11B9A1378002BF4
:1018F00007D09449039B8C4663441B78002B00D18E
:1019000074E1189A1378002B07D08F49039B8C46FB
:1019100063441B78002B00D166E1199A1378002BE1
:1019200007D08A49039B8C4663441B78002B00D167
:1019300058E1169A1378002B07D08549039B8C46F3
:1019400063441B78002B00D14AE1149A1378002BD2
:1019500007D08049039B8C4663441B78002B00D141
:101960003CE1129A1378002B07D07B49039B8C46ED
:1019700063441B78002B00D12EE1079A1378002BCB
:1019800004D0099B1B7C002B00D123E1229A137801
:10199000002B07D07149039B8C4663441B78002BB6
:1019A00000D115E1209A1378002B07D06C49039BD6
:1019B0008C4663441B78002B00D107E11E9A1378F4
:1019C000002B07D06749039B8C4663441B78002B90
:1019D00000D1F9E01C9A1378002B07D06249039BD1
:1019E0008C4663441B78002B00D1EBE01A9A1378E5
:1019F000002B07D05D49039B8C4663441B78002B6A
:101A000000D1DDE0179A1378002B07D05849039BCB
:101A10008C4663441B78002B00D1CDE0159A1378D7
:101A2000002B07D05349039B8C4663441B78002B43
:101A300000D1BFE0139A1378002B07D04E49039BC7
:101A40008C4663441B78002B00D1B7E0119A1378C1
:101A5000002B07D04949039B8C4663441B78002B1D
:101A600000D1A5E0049A0C99249803F0A5FA039CF0
:101A70002000FFF76BFA2023E45C002C00D1BFE0CC
:101A800039B0F0BCBB46B246A946A046F0BD013411
:101A90002035B44200D098E5330056469A4685E595
:101AA00001342835A74200D01AE60DE6344B039ADC
:101AB0009C46624400240E9203E00134142C00D1B1
:101AC0008DE2135D002BF8D12D4D039EAC46012510
:101AD00033196344B446306972691D70294B6344FD
:101AE0001D0025931B68A34201D8631C2B600907C6
:101AF000CB0F190509188020C002844630AD62441E
:101B000028002691279201F0D9FA039A630194469E
:101B10001D4A63449446634407CD07C307CD07C3FA
:101B200006CD06C3FFF7EDFA642B0000F02100009C
:101B300078270000422B0000A4240000C4240000E9
:101B4000E4240000042500002425000044250000B2
:101B50006425000084250000A4250000FC25000069
:101B6000242600004C260000742600009C2600005D
:101B7000C4260000EC260000142700003C270000CB
:101B80005C24000070240000DC210000039BDE5177
:101B9000FBE4C049301C07F036FBBF4E039B0C2111
:101BA000D85198591F00013006F0F6FBB951D1E425
:101BB000137057E713703DE713702FE7137045E775
:101BC00013701FE7137011E7137003E71370F5E646
:101BD0001370E7E61370D9E61370CEE61370C0E613
:101BE0001370B2E61370A4E6137096E6137088E6DD
:101BF00013707AE613706CE613705EE6137050E6AD
:101C0000039EA64B35009C4665442900049802F0CB
:101C1000FDFB002800D0E9E1202301220399CA54EA
:101C20002EE728AC20000C9901F024F92B9B289D6D
:101C30009846069B299E1B782A9F002B37D030ACF4
:101C400020000A9901F0D4FA309A329BD3189D42B1
:101C50002DDA7B199A422ADA319A339BD3189E42A5
:101C600025DA43469B199A4221DA039A8C4B1100DC
:101C70009C4661441300219111008A4A94466144B4
:101C80001F9189491A008C4662441D92874A1900A7
:101C90009446874A63441B9394460B00854A6344E9
:101CA000189394460B0063440A0019933DE0039A8D
:101CB0007B4913008C46634421931B78002B43D04F
:101CC0007D4B11009C4630AC2000614401F090FA3D
:101CD000309A329BD3189D4236DA7B199A4233DA16
:101CE000319A339BD3189E422EDA43469B199A426F
:101CF0002ADA039B6B491A008C466B4962441F9297
:101D00008C461A00624419001D921A00674B9C46CB
:101D1000674B62441B929C460A0062440B00189277
:101D20000A0064498C4663441993644913008C4645
:101D300063441693130062498C4662441492614ACC
:101D4000944663441293B3E1039A564913008C46B8
:101D500063441F931B78002B30D05B4811008446EE
:101D600030AC2000614401F043FA309A329BD31822
:101D70009D4223DA7B199A4220DA319A339BD31899
:101D80009E421BDA41468B199A4217DA039B464959
:101D90001A008C46624419001D921A00434B9C465F
:101DA000434B62441B929C460A00424B6244189289
:101DB0009C460A00624419920A00B6E7039A3A491F
:101DC00013008C4663441D931B78002B38D03F488A
:101DD0001100844630AC2000614401F009FA309AC9
:101DE000329BD3189D422BDA7B199A4228DA319A1A
:101DF000339BD3189E4223DA41468B199A421FDA4D
:101E000003992A4B0A009C46294B62441B929C462C
:101E10000A00284B624418929C460A0062440B0058
:101E200019920A0025498C46254962448C4616922F
:101E30001A0063441493234B9C466244129237E188
:101E4000039A1A4913008C4663441B931B78002B9A
:101E500040D01F481100844630AC2000614401F09E
:101E6000C7F9309A329BD3189D4233DA7B199A42D4
:101E700030DA319A339BD3189E422BDA41468B19C4
:101E80009A4227DA03990A4A0B009446634418934E
:101E900043E0C04668B32A3E202C0000302C0000EE
:101EA000B5250000B6250000B7250000B8250000C4
:101EB000B9250000BA25000094240000BB250000CD
:101EC000BC250000BD250000B4240000D42400007F
:101ED000F4240000039ACB4913008C466344189302
:101EE0001B78002B1FD0C8481100844630AC20005E
:101EF000614401F07DF9309A329BD3189D4212DA89
:101F00007B199A420FDA319A339BD3189E420ADA30
:101F100041468B199A4206DA0399BC4A0B00944653
:101F20006344199322E0039AB84913008C46634432
:101F300019931B78002B21D0B5481100844630AC92
:101F40002000614401F054F9309A329BD3189D422D
:101F500014DA7B199A4211DA319A339BD3189E42D4
:101F60000CDA41468B199A4208DA0399A94A0B0008
:101F70009446634416930B001A00DCE6039AA549C5
:101F800013008C46634416931B78002B52D1039A9E
:101F9000A14913008C46634414931B78002B65D031
:101FA0009E4B11009C4630AC2000614401F020F9AA
:101FB000309A329BD3189D4258DA7B199A4255DAEF
:101FC000319A339BD3189E4250DA43469B199A426A
:101FD0004CDA934B039A9C466244129268E0914A11
:101FE000039B944663442593FFF78BF83F22290017
:101FF00028000EF09BFA8C4B3000F454FEF7DCFC0A
:10200000202301220399CA543AE53199339A2D9B32
:102010008A18934201DBFFF714FC2F9A9B18994210
:1020200001DBFFF70EFC0123804A039923738B54D5
:10203000FFF707FC7E481100844630AC2000614465
:1020400001F0D6F8309A329BD3189D429FDA7B1963
:102050009A429CDA319A339BD3189E4297DA4146D2
:102060008B199A4293DA039B1A0064E6039A6C492F
:1020700013008C46634412931B78002B3FD06D4BAA
:1020800030AC9C4662441100200001F0B1F8309A57
:10209000329BD318AB4232DD7B1993422FDD319A4C
:1020A000339BD318B3422ADD43469B19934226DD66
:1020B000202203998B5C013B8B540A008F239446AA
:1020C000DB054B625C495D4A614422915C49624494
:1020D000614420915B49119261441E915A496144C7
:1020E0001C915A4961441A915949614417915949BF
:1020F00061441591584961441391FFF7BCF9039C61
:102100000021606A07F0CEF8002800D180E2079B2A
:102110001B78002B37D030AC2000099901F02CFA45
:10212000309A329BD3189D422DDA7B199A422ADAD3
:10213000319A339BD3189E4225DA43469B199A4223
:1021400021DA039A3C4B11009C4661441300229112
:1021500011003B4A9446614420913A491A008C464A
:1021600062441E92384A19009446384A63441C93CC
:1021700094460B00364A63441A9394460B0063441A
:102180000A001793A5E0039A2B4913008C46634479
:1021900022931B78002B63D0304B11009C4630AC4F
:1021A0002000614401F0E8F9309A329BD3189D4237
:1021B00056DA7B199A4253DA319A339BD3189E42EE
:1021C0004EDA43469B199A424ADA039B1C491A008D
:1021D0008C461C49624420928C461A0062441900C5
:1021E0001E921A00184B9C46184B62441C929C4647
:1021F0000A0062440B001A920A0015498C46634497
:10220000179366E0B925000014250000BA250000E8
:1022100034250000BB250000BC250000742500000B
:10222000BD250000702400006F2C0000702C000001
:102230005425000094250000552700005D2700006C
:102240005627000057270000582700005927000094
:102250005A2700005B2700005C270000EC250000E7
:10226000039AD54913008C46634420931B78002BB6
:102270003ED0D2481100844630AC2000614401F0C9
:102280007BF9309A329BD3189D4231DA7B199A42FE
:102290002EDA319A339BD3189E4229DA41468B19A4
:1022A0009A4225DA039BC6491A008C4662441900FB
:1022B0001E921A00C34B9C46C34B62441C929C4620
:1022C0000A00C24B62441A929C460A00624417926A
:1022D0000A00BF4913008C46634415931300BD499F
:1022E0008C4662441392BC4A94466344119340E086
:1022F000039AB34913008C4663441E931B78002B4A
:1023000041D0B6481100844630AC2000614401F051
:1023100033F9309A329BD3189D4234DA7B199A42B2
:1023200031DA319A339BD3189E422CDA41468B190D
:102330009A4228DA0399A34B0A009C46A24B6244B6
:102340001C929C460A00A14B62441A929C460A00C9
:1023500062440B0017920A009D498C469D496244D5
:102360008C4615921A00634413939B4B9C4662441F
:102370001192202203998B5C013B8B548F23DB0548
:102380004B62FFF778F8039A8E4913008C4663443A
:102390001C931B78002B1FD091481100844630AC51
:1023A0002000614401F0E8F8309A329BD3189D4236
:1023B00012DA7B199A420FDA319A339BD3189E4274
:1023C0000ADA41468B199A4206DA03997E4A0B00D3
:1023D000944663441A9322E0039A7B4913008C4687
:1023E00063441A931B78002B1FD07E48110084464B
:1023F00030AC2000614401F0BFF8309A329BD31812
:102400009D4212DA7B199A420FDA319A339BD31824
:102410009E420ADA41468B199A4206DA03996B4AC0
:102420000B0094466344179322E0039A6749130014
:102430008C46634417931B78002B21D06A48110007
:10244000844630AC2000614401F096F8309A329B0B
:10245000D3189D4214DA7B199A4211DA319A339BD0
:10246000D3189E420CDA41468B199A4208DA039936
:10247000574A0B009446634415930B001A002EE74D
:10248000039A534913008C46634415931B78002B21
:102490001BD056481100844630AC2000614401F046
:1024A0006BF8309A329BD3189D420EDA7B199A4210
:1024B0000BDA319A339BD3189E4206DA41468B19C8
:1024C0009A4202DA039B1A0009E7039A4149130072
:1024D0008C46634413931B78002B1ED0444B110091
:1024E0009C4630AC2000614401F046F8309A329BA3
:1024F000D3189D4211DA7B199A420EDA319A339B36
:10250000D3189E4209DA43469B199A4205DA324BA8
:10251000039A9C46624411922BE7039A2E491300BA
:102520008C46634411931B78002B01D1FEF7A3FF67
:10253000304B30AC9C4662441100200001F01CF886
:10254000309A329BD318AB4201DCFEF794FF7F191F
:10255000BA4201DBFEF78FFF319A339BD318B342A7
:1025600001DCFEF788FF4644B24201DBFEF783FF41
:10257000FFE6039B20491A008C4662440A921F4AD8
:10258000944663441E4A0693039B9B589946002B2E
:1025900001D0FEF78BFE039A1A4913008C461A49A4
:1025A00063448C460993130062440792174A944689
:1025B00063441093FEF7FCFE56270000142600002B
:1025C0005727000058270000592700005A2700000D
:1025D0005B2700005C2700005D2700003C26000010
:1025E000642600008C260000B4260000DC260000D3
:1025F000042700002C27000074240000B4250000EC
:1026000060270000C4250000542700006427000054
:10261000174B21009C46174A6144229194462100A1
:1026200061442091144922008C4662441E92134A50
:1026300023009446124A63441C9394462300114A93
:1026400063441A93944623000F49634417938C46BE
:1026500023006344159322002300FEF704FF202289
:102660000398835C0133835400233372FFF7CBF864
:102670005527000056270000572700005827000064
:10268000592700005A2700005B270000F0B5DE46FE
:10269000454657464E46E0B50500006895B00368CC
:1026A0009B689847BF4BBF49EE5828683314059381
:1026B0006B185C6803682114DB6A8846984707003A
:1026C000286803681B6B9847321494460F236744AD
:1026D0004044FA17C1171A400B406146D2191B1823
:1026E00012111B110027013201330F2900DD3715AC
:1026F000414600260F2900DD2615696B8B46914265
:1027000000DD9346AA6B9A4200DD1A00B2422BDD2F
:1027100034239946A9445F4526DAA34B06929A468C
:1027200043460493059B07979846079C3200210077
:10273000484601F01BFE0300421C0CD02868049997
:10274000026802914146019151466958009197698A
:1027500021003200B84701345C45E7D1069B0136C1
:10276000B342E2D1049B9846904BEB181B789A46F3
:10277000002B00D1CAE2059806F0AEFD8F21C905F5
:1027800006F05BFD06F0CAFD0690404606F0A4FD8B
:102790008F21C90506F051FD06F0C0FD844B0027CE
:1027A000EE180CAB9B46079010AC049611E0002687
:1027B000804A0137AA5802962036019400965B6A37
:1027C000FFB299462023C847049B58330493BA4567
:1027D00024D02300049A43CA43C312681A602368B2
:1027E000069A28689B1A2360079A63689B1A63609D
:1027F000714BE95803680029D9DA5A465B69210010
:1028000099466E4B01370C930233FF331268C84769
:10281000049BFFB258330493BA45DAD1684BEF18E2
:10282000684BEE182B003D0099460FE07269019449
:10283000049200220292103200925B6A049A9A4635
:102840001023D04720360137B54232D03B78002BD9
:10285000F8D03100200000F0CBFC059806F03CFDDC
:102860008F21C90506F0E9FC06F058FD23681B1A04
:102870002360404606F030FD8F21C90506F0DDFCDF
:1028800006F04CFD6368504A1B1A63604B4699582A
:10289000186803680029C9DA5A465B6921009A461C
:1028A0004A4B20360C9312680123D0470137B542BA
:1028B000CCD14D46464BEF18464BEE18464B994649
:1028C0002B00A9444D46994614E033680493337CA9
:1028D00001949A4601235246134002931023009319
:1028E00063465B6A049A9A461023D047283601371C
:1028F000B54234D03B78002BF8D031002000143999
:1029000000F03AFE059806F0E7FC8F21C90506F0B5
:1029100094FC06F003FD23681B1A2360404606F072
:10292000DBFC8F21C90506F088FC06F0F7FC636824
:102930002A4A1B1A63604B461868995803689C46DC
:102940000029C2DA5A465B6921009A46244B283690
:102950000C9312680123D0470137B542CAD14D46C6
:10296000204A0023A818027D002A03D0027A002AF8
:1029700000D065E11C4A9246AA44002B08D1534678
:102980001B7C002B04D053461B7B002B00D14EE157
:10299000164B2A00EF18164B9146EE1853463D0091
:1029A00006933FE0B4210000E82B00009C200000CB
:1029B00044200000282C0000042C000000FFFFFF32
:1029C000B425000074240000EC2B0000FF0000FF81
:1029D00054270000D825000068270000F02B0000D5
:1029E000FF8000FF482B0000642B0000242B000018
:1029F000642700004A46D54BD1584B4618680368F7
:102A0000002939DBB269019404920022029210324B
:102A100000925B6A049A9A461023D0472036013709
:102A2000B54236D03B78002BF8D03100200001F0C1
:102A3000CBF9059806F050FC8F21C90506F0FDFB87
:102A400006F06CFC23681B1A2360404606F044FC29
:102A50008F21C90506F0F1FB06F060FC63681B1AC4
:102A60006360737D002BC5D14A46B94BD1584B46A4
:102A7000186803680029C5DA5A465B6921009A463E
:102A8000B44B20360C9312680123D0470137B5426E
:102A9000C8D14D46B04BEF18B04BEE183D0017E0D3
:102AA0004A46AF4BD1584B4618680368002939DBBA
:102AB000B2690194049200220292083200925B6A89
:102AC000049A9A460823D04720360137AE4236D0C2
:102AD0003B78002BF8D03100200000F059FB05981E
:102AE00006F0FAFB8F21C90506F0A7FB06F016FCDD
:102AF00023681B1A2360404606F0EEFB8F21C905B0
:102B000006F09BFB06F00AFC63681B1A6360737D8A
:102B1000002BC5D14A46934BD1584B4618680368E1
:102B20000029C5DA5A465B6921009A468E4B203649
:102B30000C9312680123D0470137AE42C8D14D46ED
:102B40002900069B103158469A4600F093F90598E3
:102B500006F0C2FB8F21C90506F06FFB06F0DEFB15
:102B60000C9B1B1A40460C9306F0B6FB8F21C9053F
:102B700006F063FB06F0D2FB5B465A465B681B1A05
:102B800053607A4B2868E958066800296ADB3023CD
:102B90000127EB5CAA6A1B07DB0F7B40DBB20293C9
:102BA0005B46019310230093766AB0479022286811
:102BB0006F4B1203E958036810926260802252033F
:102BC000A260E260002946DB00266A4AAA58029603
:102BD0001036019400965E6A1023B0472023082126
:102BE000EB5C654A0AA808F001F928681C22036812
:102BF0000AA99E6A01235B42109300930A33B047EF
:102C000053461B7C002B0AD128680368DB68984771
:102C100015B0F0BCBB46B246A946A046F0BD53462F
:102C20009B68052B5FD8554A9B00D3589F46534657
:102C30009B68052B00D986E0514A9B00D3589F46DC
:102C4000B0239B01EA58434629680093059B01F095
:102C5000F3F800238EE64B4A5E69210001230A92B5
:102C6000B047BBE7474A7669012359461092B047FF
:102C70009CE7454BE95880231B031093E0235B033B
:102C8000636080235B03A360E360002935DB0022DF
:102C90002868036802921032009201945C6A002254
:102CA0001023A047394BEB5C002B1AD03849286819
:102CB0001C2203689C6A01235B42099300931D3325
:102CC000A047A1E7334BE958D5E7334BE958D2E7A2
:102CD000324BE958CFE7324BE958CCE7314BE95852
:102CE000C9E73149E3E780231B031093E0235B032B
:102CF000636080235B03A360E36028682B4A03685A
:102D000021005E6909920123B047CBE70CAB9B46DB
:102D100010AC83E51C4BEA584346296850460093A3
:102D2000059B01F0E3F833E61A4BEA58F4E71A4B37
:102D3000EA58F1E7194BEA58EEE7194BEA58EBE786
:102D4000184BEA58E8E701225242E5E7F82B000069
:102D5000F42B00008000FFFF5C240000DC21000059
:102D6000E42B0000E02B0000FFC800FFDC2B00007C
:102D7000FC2B0000202C0000F8580110245F0110EB
:102D80003C5F0110FF0000FF182C0000702C0000B9
:102D9000F05801101C2C0000082C00000C2C000026
:102DA000102C0000142C0000F4580110FFFF00FF4D
:102DB000C823DB030360436000238360C3600333E5
:102DC0000361002301224361C36120238261073232
:102DD000C254704770B5466904000D1C301C0021B8
:102DE00006F070FA002804D0291C301C06F00BFAFB
:102DF0006061C82189038C46E268A3686244002BA5
:102E00000DDD20210820635C03436354C823DB03EA
:102E10009A420FD90523A3610023E36170BD002B03
:102E20001ED020210820635C83436354C823DB0346
:102E30009A42EFD8E169281C06F0E8F90C49051C14
:102E400006F038FA002810D00949281C06F0DBF9F2
:102E5000E061A0690C21013005F09EFAA161DDE777
:102E60000123A3610023E361D8E7E561D6E7C0460B
:102E7000D3BC633D0CC9436080235B030260836065
:102E8000C360704700230022036043608260C36018
:102E900003617047F8B51F1C136806000D00100091
:102EA0000321DB6814009847002804D02022012168
:102EB000AB5C194222D123682000DB6803219847CC
:102EC00020230222EC5C2240002803D0002A03D0F9
:102ED0000F4803E0002A00D1F8BDF068391C06F065
:102EE00092F90027F060391C06F0DCF90028F3D0D5
:102EF00002239C431E33EC54F760EDE78B43022121
:102F00000B43AB54024BF360C8239B03EB60D2E747
:102F1000CDCC4C3EF8B557464E464546DE46E0B56C
:102F20001F1C136804000E0010000021DB68150050
:102F3000984700286CD12B680121DB68280098474E
:102F4000431E9841962340421B041840012320222F
:102F50001900B060B25C1140134262D0524A237231
:102F600062602B6802211B69280098472023F35CCC
:102F7000994601234A461A409246002864D04B4B9A
:102F80002360002A00D176E0494B4A46F3600123D2
:102F90009A431F33F2540023236063602A003100F8
:102FA00020003B1CFFF776FF20220421B35C8B43FB
:102FB000B3542369994600234846191C984606F0E5
:102FC00081F900280AD0391C484606F01CF9414610
:102FD000071C06F061F900285BD127612B680521E9
:102FE00028001B69984700280CD00021206906F0B2
:102FF00059F9002806D020220421B35C0B43B354B6
:103000002C4B2361F0BCBB46B246A946A046F8BD96
:103010000123202219002848B060B25C11401342FD
:103020009CD1237A002B00D02172391C606806F0F5
:10303000EAF80023191C8046994606F02DF900286D
:1030400021D1434663608CE72068391C06F0DBF829
:1030500000232060191C80469B4606F01DF90028BD
:1030600014D15346002B17D00021404606F02AF910
:10307000002893D088E70021606806F023F9002833
:1030800000D081E78AE74B4663606AE75B462360CE
:1030900084E743462361A1E75946606806F012F9C8
:1030A0000028E1D17AE7C0468FC2F53DCDCCCC3DBA
:1030B00000003EFECDCC4C3E00006AFF30B585B02E
:1030C00003920200029102AC22CC22C25A425A411F
:1030D000084952420A40AF2149048C46624400210B
:1030E000826000220161C260027543758261C16124
:1030F00005B030BD000044FDF8B50D1C8F21040063
:10310000C905281C06F099F806F008F90600C7174B
:10311000A06832003B00C11706F058F82368090484
:10312000000C08431B18E06832002360C1173B0005
:1031300006F04CF863680904000C08431B18216969
:103140006360281C06F062F890212061C90506F032
:10315000B1F8002801D001232375E169281C06F08D
:1031600055F80A49051C06F0A5F8002801D1E561CB
:10317000F8BD0649281C06F046F8E061A0690C215C
:10318000013005F009F9A161F2E7C0469FCD2A3D63
:103190000CC9436080231B0302608360C3607047D7
:1031A00030B583B001926C460200009122CC22C25D
:1031B000002B0ED0A023DB0383600023C360013308
:1031C000032202740022426100220377826103B06D
:1031D00030BD024AC36082600023F1E70000B0FF07
:1031E000037C5B1ADBB203745A425341D8B2704776
:1031F0000CC9436080235B0302608360C360704737
:10320000F0B50F00F02109038C46C646426880469F
:10321000D4172403240BA4186244D5172D032D0BB7
:10322000AD18826800B5036824152D15002A2ADD23
:10323000A54225DB6344DE173603360BF618361538
:1032400002E00134A5421BDB22003100380001F00E
:10325000A1F80028F5D0300106F03EF88F21C9050D
:1032600005F0EBFF06F05AF81B4B01229C46434643
:10327000604418601B7F934342461377174B93605B
:1032800080BCB846F0BD002AFAD0A542F8DBDE17B4
:103290003603360BF618361502E00134A542EFDB93
:1032A00022003100380001F075F80028F5D0013611
:1032B000300106F011F88F21C90505F0BEFF06F0B8
:1032C0002DF84346012218601B7F134342461377B3
:1032D000A023DB039360D3E70000F0FF0000B0FF02
:1032E000F0B5DE46454657464E4688468F21E0B546
:1032F000C90583B004004046150005F09EFF06F0A6
:103300000DF8C317009001939900009B820F1143A1
:103310009800009A019B80185941430F9C46060073
:103320000F00CB00614630000B433900F200121A47
:103330008B411900530F9C460F00CB0061461000D3
:103340000B433900C200121A8B41990493041E00EA
:10335000900B08430304320C1A43E3689B18FA22CB
:103360005204934200DD130021686A4AE360237F20
:103370008A18DB0702D580235B03CA18D3171B0307
:103380001B0B9B181B15994688235B039C466268A0
:1033900049466244D3171B031B0B9B181B151A00CD
:1033A00028009A4600F0F6FF002800D197E0A068B8
:1033B000009A019BC11705F009FF23680904000C5E
:1033C00008431B18290020002360FFF719FFE3685A
:1033D0009946D9174846009A019B05F0F7FE6768A1
:1033E0000904000C08433F18A1694046676005F0D6
:1033F0000DFF4949061C05F05DFF002863D1A66159
:103400004B46002B58DDF0231B039C462268D61741
:103410003603360BB6186244D3171B031B0B9B18DD
:103420001B1599463615B34246DB80235B039A464B
:10343000BA446744FB171B031B0BDB191B1598468B
:103440001B0108229C466244934600931EE04246BC
:103450003100280000F0C0FF002814D0584605F0C5
:103460003BFF8F21C90505F0E8FE05F057FF294B0A
:10347000C3189A4507DB8023DB02C3189A4502DC98
:10348000E368002B40DA01364E4515DC4246310038
:10349000280000F07FFF071ED9D0009805F01CFF20
:1034A0008F21C90505F0C9FE05F038FF1B4B9C466E
:1034B000002360446060E36003B0F0BCBB46B246EA
:1034C000A946A046F0BD1449301C05F09CFEA06141
:1034D00060690C21013004F05FFF616190E75246A2
:1034E0004946280000F078FF031EA06800D05FE77F
:1034F0000122237F1A4205D11343DBB240422377D6
:10350000A06055E79343F9E7044BE7609C466044AD
:103510006060D1E70000FFFF3199AA3D0000F0FF95
:1035200030B583B001926C460200009122CC22C2D9
:10353000002B11D0C8239B03836000230122C360AA
:10354000052303740023436100238361C361036285
:103550002423C25403B030BD024AC36082600022FB
:10356000EEE7C0460000CEFF037C5B1ADBB20374BB
:103570005A425341D8B270470CC9436080235B0361
:1035800002608360C3607047F0B50F00F02109034B
:103590008C46C64642688046D4172403240BA418E0
:1035A0006244D5172D032D0BAD18826800B5036852
:1035B00024152D15002A29DDA54224DB6344DE17DE
:1035C0003603360BF618361502E00134A5421ADB35
:1035D00022003100380000F0DDFE0028F5D0300177
:1035E00005F07AFE8F21C90505F027FE05F096FE4D
:1035F0001A4B24229C4643460121604418609B5C80
:103600008B4341468B5480BCB846F0BD002AFAD0AB
:10361000A542F8DBDE173603360BF618361502E046
:103620000134A542EFDB22003100380000F0B2FE89
:103630000028F5D00136300105F04EFE8F21C90576
:1036400005F0FBFD05F06AFE4346242201211860C7
:103650009B5C0B4341468B54D5E7C0460000F0FF0E
:10366000F0B580242403A4464546DE4657464E4620
:1036700099460368E0B56344DC172403240BE4187F
:103680004368CF176344DD172D032D0B3F03ED185F
:103690003F0BD3177F181B031B0B24153F159A18DC
:1036A0003B1B1115DA179B1853402D1598464B1BE1
:1036B000DA179B18534087B09B4603910123A7421A
:1036C00000DC5B420193A94231DD012302934346B2
:1036D0005A469E1A53429A462A002100484600F054
:1036E00059FE002816D1BC421CD073009A4504DA5A
:1036F0005A46B61A019A944664449845ECDD029BFA
:1037000021009C4665442A004846464400F042FE9B
:103710000028E8D0002007B0F0BCBB46B246A9465E
:10372000A046F0BD039B9D42DFD10120F3E70123BA
:103730005B420293CBE7C046F0B5DE4657464E46A5
:103740004546E0B50F1C8F2197B0C9050400381C11
:103750001E00069205F071FD05F0E0FDC317820F13
:103760000290990003931143029A039B90008018E2
:103770005941430F9C466546CB002B43C200121AA9
:103780008B411900530F9C4610006546CB00C200C8
:103790002B43121A8B419904900B93040843049312
:1037A00005900499059A13040A0C1A43E3689B18C0
:1037B000FA225204934200DD1300E069E360391CF1
:1037C00005F024FD2368716899460D00E0614846C4
:1037D00032686368101A0493EB1A9A46C117DB1714
:1037E0009B4607920B00020005F0F0FC0904030C55
:1037F0000B43984652465B465046594605F0E6FC58
:10380000C8220904000C08434044D205904200DC61
:10381000E2E02423E35C98469B0734D44246C94B3C
:103820004B44D20702D580235B034B4488225203CA
:103830009446DE173603360BF618049B36156344A0
:10384000DA171203120BD3181B151A003100069851
:10385000984600F09FFD002800D152E12423E35C4C
:10386000DB0700D55CE10123B74AB7495B42A160A1
:103870000298039905F0AAFC236809049946000CF4
:10388000084381440CE0206A391C05F0BCFC00218F
:10389000206205F007FD002800D097E00023A36018
:1038A0004B46200006992360FFF76EFE029A039BA9
:1038B000E6683000F11705F089FC63680904984652
:1038C000000C084380444346A169381C636005F03E
:1038D0009DFC9E49071C05F0EDFC00286AD1A761FC
:1038E000002E60DDF0231B039C462268D6173603AA
:1038F000360BB6186244D3171B031B0B9B181B1502
:103900009B463615B3424EDB624680234244D117B4
:1039100009035B03090B43448A189946131598461B
:103920001B019C4608220293069B62444546924630
:10393000A0461C0020E02A003100200000F04CFDD1
:10394000002816D0504605F0C7FC8F21C90505F0A8
:1039500074FC05F0E3FC7B4BC318994509DB80231D
:10396000DB02C318994504DC4346DB68002B00DB0F
:10397000DEE001365E4516DC2A003100200000F052
:1039800009FD071ED7D0029805F0A6FC8F21C905B6
:1039900005F053FC05F0C2FC6D4B44469C460023E9
:1039A00060446060E36017B0F0BCBB46B246A94615
:1039B000A046F0BD6549381C05F025FCA061606992
:1039C0000C21013004F0E8FC616189E702234246E2
:1039D0009A432233E25461E780231B039C462A006A
:1039E000079962446144069B20000C910D92FFF7F9
:1039F00037FE2423E35C98462368424699464146B5
:103A000002231A400B4200D03DE76368049300286C
:103A100000D103E73368A2609A46424601237668E4
:103A2000CA456BDC9A43904624234246FE21E25469
:103A3000E069890505F03EFC002800D130E78023CD
:103A40008021049ADB024B44C9028C460893130080
:103A500063444946099353465B1A0A93F0239B003B
:103A60009C46B61A209A0B96069D0026624402E0F8
:103A700001361E2E5AD0935D002BF9D1F022920010
:103A800094460122209B06959B1963441A70F823E3
:103A9000209A9B00D258B24202D82099721CCA5078
:103AA0000EAB98460B9B08994046099A00930A9BD7
:103AB00000F052F84246209B76019B1943CA43C34B
:103AC00043CA43C303CA03C32423A068E35CC117EA
:103AD0009846029A039B05F079FB236809049946EE
:103AE000000C084381440023E3611A4B42462362E1
:103AF00002231A4313002422A354D1E61A4390460A
:103B000092E742463100069800F066FC2422A35C4E
:103B1000002800D0A4E60121194210D10B43A35480
:103B2000C822C821002392038903A0E60695DAE79C
:103B3000074B44469C4660446060E76033E78B4334
:103B4000A35490E60000FFFF0000CEFF3199AA3D8C
:103B50000000F0FF0098994682B0F0B5DE46454679
:103B600057464E46E0B585B01F00109B029198461F
:103B70000300039202AC06CC06C300230361C361B9
:103B8000FB1700229B4643460275DC1782615B46A9
:103B90003A00050059463800019405F017FB090466
:103BA000060C0E43424623004046210005F00EFB62
:103BB0000904000C08433618002E00DCA4E032147F
:103BC000914632049246494632005046F31704F0BB
:103BD00031FC30184410A64259D0C3172200504679
:103BE000494604F027FC20184610A6424DD0C317C2
:103BF00032005046494604F01DFC30184410A642DD
:103C000043D0C31722005046494604F013FC201845
:103C10004610B44239D0C31732005046494604F02A
:103C200009FC33185C10A6422FD0220050464946AA
:103C3000DB1704F0FFFB20184610B44225D0C31751
:103C400032005046494604F0F5FB30184410A642B5
:103C50001BD0C31722005046494604F0EBFB201846
:103C60004610B44211D0C31732005046494604F002
:103C7000E1FB34186410A64207D02200E317504637
:103C8000494604F0D7FB24186410002C3CDD5A464A
:103C9000E3179A4611043B0C22001943380453469B
:103CA00004F0C8FB0600C0170700310F03010B43E7
:103CB0003201921BBB41D904500B0843D604320C8D
:103CC0000304134399464346019A1B0C11041943FC
:103CD000434622001804534604F0ACFB0600C0170C
:103CE0000700310F03010B433201921BBB41D90482
:103CF000500B0843D6040304320C1A434B46494682
:103D0000DB175B1ADB0F04E0F021C903012300225B
:103D100089462800EA604A466B75AA6005B0F0BC87
:103D2000BB46B246A946A046F0BC08BC02B0184744
:103D3000F8B50D1C8F210400C905281C05F07DFA7B
:103D400005F0ECFA0600C717A06832003B00C11767
:103D500005F03CFA23680904000C08431B18E068CE
:103D600032002360C1173B0005F030FA6368090494
:103D7000000C08431B1821696360281C05F046FAF3
:103D80000F49206105F096FA002801D00123237520
:103D9000E169281C05F03AFA0A49051C05F08AFA7F
:103DA000002801D1E561F8BD0649281C05F02BFA71
:103DB000E061A0690C21013004F0EEFAA161F2E7A4
:103DC000000040489FCD2A3D0CC9436080231B035F
:103DD00002608360C360704710B582B001926B4689
:103DE0000200009112CB12C2012303720023C360B0
:103DF0000023036102B010BD70B50400237A081CD3
:103E0000002B13D0216905F001FA0A49051C05F0C1
:103E100051FA00280BD00749281C05F0F4F920615D
:103E2000E0680C21013004F0B7FAE16070BD256153
:103E3000FCE7C04668B32A3EF0B5C646040000B5AC
:103E40001800237A0D0016008AB0002B2BD02368AF
:103E50006768984680235B030893099305F03CFA52
:103E60008F21C90505F0E9F905F058FA4346181AFB
:103E70000690109805F030FA8F21C90505F0DDF99C
:103E800005F04CFA3F1A2B680797002E0FDB002134
:103E9000E268029106A90191102100915C6A31004B
:103EA00010232800A0470AB080BCB846F0BD5C696A
:103EB00028000123014A06A9A047F4E700FF00FFFC
:103EC0000CC9436080235B0302608360C36070475A
:103ED00030B583B001926C460200009122CC22C220
:103EE00083600023037303B030BDC046F0B5C646FF
:103EF000040000B5277B0D00160018008AB0002FC3
:103F00002AD123686468984680235B030893099349
:103F100005F0E2F98F21C90505F08FF905F0FEF9EA
:103F20004346181A0690109805F0D6F98F21C90556
:103F300005F083F905F0F2F9241A2B680794002E96
:103F40000EDB06AA01921022029700925C6A002200
:103F5000102331002800A0470AB080BCB846F0BD4D
:103F60005C6928000123024A06A9A047F4E7C0467D
:103F7000FFFF00FF0CC9436080235B030260836086
:103F8000C36070472023D0B5CB5C0C00101CDB074E
:103F900020D48F21C90505F050F905F0BFF90600BE
:103FA000C0170700B10F83000B43B20092197B4189
:103FB00010001900160F1B0133430201121A8B4126
:103FC000100B1905160508430304320C1A43E36865
:103FD0009B18E360D0BDC046C8228B681204934290
:103FE00002DC054A934200DA8A609623CA689B0481
:103FF0009A4200DDCB607047000038FFF0B5DE4626
:1040000045464E465746E0B58BB006AD280088467B
:104010001600FEF72FFF069B089ADC172403240BDB
:10402000E4189A18544B07999C466244D3171B0313
:104030001B0B9B181B159B464346DA682415002A68
:104040004EDDA34545DB099B4B4A9C4661448C46AB
:104050006244D5172D032D0BAD182D1504932B019C
:1040600005930833039320239A461E3B99460291F9
:104070002A002100300000F08DF9002855D12A00D7
:104080002100300000F0A8F900281FD04346524616
:104090009F5C4B463B4001934B463B4216D10398F5
:1040A00005F01AF98F21C90505F0C7F805F036F9B2
:1040B000314B029AC3189A4208DB8023DB02C318F3
:1040C0009A4203DC4346DB68002B48DA01345C4546
:1040D000CEDD0BB0F0BCBB46B246A946A046F0BD53
:1040E000002AF6D0A345F4DBCD172D032D0B6D1858
:1040F0005F462D1502E00134BC42EADC2A002100B3
:10410000300000F047F90028F5D00135280105F00E
:10411000E3F88F21C90505F090F805F0FFF8434654
:10412000424658600023D360D3E7059805F0D4F8E1
:104130008F21C90505F081F805F0F0F8049B42468F
:10414000C01A434658600023D36020224346022110
:104150009B5C8B4301210B4341468B54B9E7049B85
:10416000019AC01A4346DA605860012352461F4341
:1041700043469F54ADE7C0460000FFFFF0B54746F9
:10418000CE4680B585B0684688461700FEF772FEB9
:10419000019B0399DC172403240BE4185B182C49BA
:1041A000009A8C466344DD172D032D0BED18434612
:1041B0009B6824152D15002B2ADDA54223DB029BCD
:1041C00099464A446244D6173603360BB61836155C
:1041D00002E00134A54216DB22003100380000F075
:1041E000D9F80028F5D0300105F076F88F21C905FF
:1041F00005F023F805F092F84B46C01A43464246B4
:1042000018600023936005B0C0BCB946B046F0BD4D
:10421000002BF8D0A542F6DBD6173603360BB618BE
:10422000361502E00134A542EDDB220031003800F2
:1042300000F0B0F80028F5D00136300105F04CF858
:104240008F21C90504F0F9FF05F068F8D6E7C046EC
:104250000000FFFFF0B5CE46474680B585B0684602
:104260001700FEF795FF009A019BD1170903090B70
:104270008918091588460299DD17521817492D0328
:104280008C466244D6173603360BB618039A2D0BAC
:10429000ED189B186344DA171203120BD3181B1581
:1042A000994636152D15AB4215DB4446464503DAD3
:1042B0000EE00134B4420BDC2A002100380000F08B
:1042C00069F80028F5D005B0C0BCB946B046F0BDCD
:1042D0000135A945E9DA0020F5E7C0460000FFFFF7
:1042E000F0B5CE46474680B585B068461700FFF763
:1042F0006BFD009A019BD1170903090B8918091559
:1043000088460299DD17521817492D038C466244DE
:10431000D6173603360BB618039A2D0BED189B18DB
:104320006344DA171203120BD3181B15994636157E
:104330002D15AB4215DB4446464503DA0EE0013449
:10434000B4420BDC2A002100380000F023F80028DA
:10435000F5D005B0C0BCB946B046F0BD0135A945A1
:10436000E9DA0020F5E7C0460000FFFF10B500299C
:104370000DDB03688B420ADD002A08DB44689442A7
:1043800005DD5A4340188018007C40B200E0002050
:1043900010BDC04610B500291ADB0368994217DA30
:1043A000002A15DB4468A24212DA53434118CB18A5
:1043B0001B7C5BB2002B0DDB18000B2100240F3897
:1043C00042425041DA0F994262411043C0B200E0CC
:1043D000012010BD0020FCE710B5002913DB0368A5
:1043E000994210DA002A0EDB4468A2420BDA5343EA
:1043F000411802220020CB181B7C0C3BDBB29A42F6
:104400004041C0B200E0002010BDC046F0B5DE461D
:104410004E4657464546E0B5A74CA5440400080063
:10442000A6490BF039FD061E00D11BE1802132ADFB
:104430000200490128000BF081FB002800D10EE1A9
:104440002B78002B00D17EE2C92201276A4408E0C4
:104450002C3B59424B410132FF18531E1B78002B55
:1044600001D00A2BF4D1012399461F339A468021AB
:104470003200280049010BF061FB002814D02B7892
:104480000A2BF4D0002BF2D052469343413B192B18
:104490000AD9012380219C46320028004901E144C9
:1044A0000BF04CFB0028EAD18023DB009F4200DDAB
:1044B000D5E0994500DDD2E00022002130000BF06C
:1044C000FBFC00237E4AA3547E4AA3547E4AA35495
:1044D0007E4AA3547E4AA3544B464A4663608023D7
:1044E0007A4327609B019A4200DDB8E02000FF215B
:1044F000103005F001F800239A46764B994680214A
:104500003200280049010BF019FB071E00D1C1E160
:10451000494628000CF038F80027002812D114E092
:104520000AF082FB431C0F2B05D8534622685A43DE
:10453000E3199B1818744946002001370CF024F841
:10454000002802D02368BB42EADC01239C46636852
:10455000E2445345D3DC604B994680213200280069
:1045600049010BF0EBFA002800D18EE15B4B2A6881
:104570009A4200D17FE05A4B2A689A4200D1D3E098
:10458000584B2A689A4200D14CE1564B2A689A420D
:1045900000D18FE1534B2A689A4200D1C3E1524BBC
:1045A0002A689A4200D1D0E1504B2A689A42D4D16D
:1045B0004F4B6A689A42D0D14E4B2A899A42CCD14D
:1045C000D2201CAF4C4900970CAB0BAA68440BF0EF
:1045D00031FD82460328C0D1484B1C9A9A4200D133
:1045E000E3E1474B1C9A9A4200D1E5E1454B1C9A06
:1045F0009A4200D1EFE1380043490CF0A5F80028B9
:1046000000D1E6E1380041490CF09EF8002800D1C5
:10461000DDE138003E490CF097F8052700289CD1D1
:104620002B4B9846E35C002B97D18F210C98C90542
:1046300004F003FE04F072FE8F218246C9050B9838
:1046400004F0FBFD04F06AFE5246324BE050324B60
:10465000E250324B4246E7500123A3547DE730003D
:104660000BF01CF900202E4B9D44F0BCBB46B2461B
:10467000A946A046F0BD2B4BAA889A4200D07AE703
:10468000CE2015491CAB0CAA68440BF0D3FC0228C1
:1046900000D062E78F211C98C90504F0CEFD04F01C
:1046A0003DFE8F210700C9050C9804F0C6FD04F0FB
:1046B00035FEE760A06050E734EFFFFF745D011046
:1046C00068200000BC200000602100006C21000078
:1046D00078210000FC58011008590110535041572F
:1046E000504F5254454E454D4845414C4F424A4526
:1046F0004354495645200000745901104348415223
:10470000454E434C484150549C590110A459011046
:10471000AC59011070210000742100007C210000C0
:10472000CC1000004E200000B04BAA889A4200D066
:1047300026E7AB79202B00D022E7CF200BAB0493E8
:104740000AAB03930CAB9846029309AB019308ABF9
:104750000093A74907AB06AA68440BF06BFC072837
:1047600000D0FAE68F210798C90504F066FD04F031
:10477000D5FD8F218346C905089804F05EFD04F03D
:10478000CDFD8F210700C905099804F056FD04F0FE
:10479000C5FD8F218246C905069804F04EFD04F040
:1047A000BDFD5B461D93534669461F9370231C90C5
:1047B0001E97C9180020002300224F27C8553092A9
:1047C000319341463F3220A80BF0B0FE894BE15CAB
:1047D0008A46072900D9C0E60B990A9888465146AF
:1047E0004A1CE2546946702200238A188F21D3554F
:1047F000C90504F022FD04F091FD8F213090C90518
:10480000404604F01AFD04F089FD534631905820CB
:104810005843794B20189C46582260441CA904F048
:1048200071FE9AE6754B6A689A4200D0ADE6744B09
:10483000AA689A4200D0A8E649461CAB0CAA35A843
:104840000BF0F8FB022800D087E66E4BE75C984639
:10485000182F00D981E68F210C98C90504F0EDFCD2
:1048600004F05CFD8F218246C9051C9804F0E5FC2C
:1048700004F054FD42467B1CA3545246624BFF0099
:10488000E719FA50614BF85067E630000BF006F874
:104890000120E8E630000BF001F8564BE754594B85
:1048A000E7545B4BE7545B4BE7545B4BE7542760A3
:1048B0006760D7E6594B6A689A4200D06AE6584B5F
:1048C000AA689A4200D065E62B7B202B00D061E6D7
:1048D000D52054491CAB0CAA68440BF0ABFB022852
:1048E00000D03AE64A4BE75C9846132F00D934E6ED
:1048F0008F210C98C90504F0A0FC04F00FFD8F2156
:104900008246C9051C9804F098FC04F007FD424655
:104910007B1CA35483235246FF00E7199B01FA50E6
:10492000414BF85019E6414BAA889A4200D036E62E
:10493000CE203C491CAB0CAA68440BF07BFB022840
:1049400000D00AE681E701278DE5394B6A689A4273
:1049500000D029E6374BAA689A4200D024E63149B4
:104960001CAB0CAA35A80BF065FB022800D0F4E5BF
:10497000284B9A46E35C002B00D0EEE58F210C9883
:10498000C90504F05AFC04F0C9FC8F210700C905D1
:104990001C9804F052FC04F0C1FC01235246A354BD
:1049A000254BE750254BE050D7E5254B7A689A42D6
:1049B00000D016E6002733E6224B7A689A4200D0F0
:1049C00014E63B89452B00D010E6012728E6042792
:1049D00026E6574624E61C4BBA889A4200D00AE6DF
:1049E000BB79002B00D006E6022719E6414C0000F7
:1049F000185901106820000010200000595F424142
:104A000053494320BC2000006C20000070200000AF
:104A1000602100006C21000078210000595F5241A4
:104A20004E47454408590110C42000005920000099
:104A300054485F5041434B2064210000682100002E
:104A4000474552004F53555249430000F0B5DE46EA
:104A500057464E464546E0B59DB01400269A83461B
:104A60009246002900D153E1002A00D150E1002CE8
:104A700000DC4DE1002B00DC4AE11A008025624396
:104A80000020AD01AA4200DD43E15E46AC4D705509
:104A9000AC4DA9465D464E46A855AB4EA8555E4660
:104AA000AA4D7055AA4D7055584634607360103049
:104AB00004F028FD53468F215868C90504F0BDFB5A
:104AC00004F02CFC53468F210400C905186804F03B
:104AD000B4FB04F023FC5346F460B0601A7B00265C
:104AE0000024002A28D155E05B4649465F5C182F18
:104AF0001BD88F212868C90504F09FFB04F00EFC29
:104B00008F218046C905686804F097FB04F006FC15
:104B10005A4649467B1C535442468E4BFF005F4425
:104B2000FA508D4BF85053461A7B0134E4B294424C
:104B300030D20C362D2C2DD053469D68AD192B7AD2
:104B4000002BD1D0012BF0D159467F4BCF5C132FD6
:104B5000EBD88F212868C90504F06FFB04F0DEFB59
:104B60008F218046C905686804F067FB04F0D6FB16
:104B70005946754A7B1C8B5483234246FF005F4491
:104B80009B01FA50754B0134F85053461A7BE4B23E
:104B90009442CED353461B7D002B1CD053468F210D
:104BA0001D69C905286804F048FB04F0B7FB8F2194
:104BB0000400C905686804F040FB04F0AFFB5B46E5
:104BC0005D46624A9B5C591CA954DB00644A5B4405
:104BD0009C50644A985053461B7F002B69D0002399
:104BE00000269846564F06AC53468F219D69C9054D
:104BF0004544286804F021FB04F090FB8F210190CC
:104C0000C905686804F019FB04F088FB8F21029045
:104C1000C905A86804F011FB04F080FB8F21039004
:104C2000C905E86804F009FB04F078FB04902B7CCC
:104C3000002B00D174E000229146012B00D177E0D7
:104C40008F216869C90504F0F8FA04F067FB8F2129
:104C50000590C905A86904F0F0FA04F05FFB5B4613
:104C60005946DB5D60655A1CCA55019A00212260D5
:104C7000029A01366260039AF6B2A260049AE26078
:104C80004A4622744F22A154059A210022655822D7
:104C900053435B441800344B9C46604404F032FCA0
:104CA00053461B7FB34204D91C239C46E044082E84
:104CB0009AD124235246D35C002B27D08F21166A29
:104CC000C905706804F0B9FA04F028FB8F215A4630
:104CD0001F4BC90507003068D45C04F0AEFA04F03D
:104CE0001DFBE500214B5D44E850214BEF50214B6B
:104CF000317AE3189B005B440A1C052900D9052280
:104D0000D2B25A605A46124B0134D454012000E00A
:104D100000201DB0F0BCBB46B246A946A046F0BD7F
:104D20003F2215490AA80BF001FC237C994687E72E
:104D300012493F320AA80BF0F9FB237C99467FE722
:104D400068200000BC200000602100006C210000F1
:104D5000782100006C20000070200000C4200000BA
:104D60006421000068210000102000007021000074
:104D7000742100005E080000B4590110CC590110E4
:104D80000023294A70B58354284A04008354284AD2
:104D900010348354274A05008354274AFF21835443
:104DA000802240330360203B43601201200004F066
:104DB000A3FBF223DB0080220421E81804F09CFB13
:104DC000812304221B01E918227040348C42FBD15C
:104DD0001A4A2B00A91804224F331A7040338B4211
:104DE000FBD1174B0A22E8180D2104F085FB154B67
:104DF0000A22E8180D2104F07FFB134B0A22E81861
:104E00000D2104F079FBEF220D23D200AB540F4AA1
:104E1000AB540F4AAB540F4AAB540F4AAB54C823A0
:104E2000DB03AB60EB6070BD68200000BC200000BD
:104E3000602100006C210000782100004F08000074
:104E40009A060000A9050000C2060000390700000C
:104E5000FA060000BB0600007C0600000023444A5E
:104E6000444910B58350821853609360D360435017
:104E700041184B601374404A040081184A0741D11D
:104E8000002300220A604B603C4941180A604B60D5
:104E90003B4941180A604B603A4941180A604B602F
:104EA000394941180A604B60384941180A604B6023
:104EB000374941180A604B60364941180A604B6017
:104EC000354941180A604B60344941180A604B600B
:104ED00083239B01E318620740D100200021304A60
:104EE000A21803C39A42FCD100232E4A2000A350EB
:104EF000A21853602C4AA350A2185360FFF740FF3A
:104F0000200010BD1C4A83501C4A4B6083508218FD
:104F100053601B4A8350821853601A4A8350821888
:104F20005360194A835082185360184A835082187C
:104F30005360174A835082185360164A8350821870
:104F40005360154A835082185360144A8350821864
:104F5000536083239B01E3186207BED0104AA11857
:104F600000221A605A6008338B42FAD1BCE7C0466F
:104F700010200000602000006C2000007420000061
:104F80007C200000842000008C2000009420000081
:104F90009C200000A4200000AC200000B4200000F1
:104FA00060210000642100007021000000230360E4
:104FB00043608160C26070478368F0B557469A4687
:104FC000C368DE469B4680234E4645461B039C46EF
:104FD000E0B503680E684D6883B004005046914602
:104FE00066446544984604F077F9FC21890504F08D
:104FF00024F98F21C90504F020F904F08FF903008A
:1050000058464344019304F067F9FC21890504F0F4
:1050100014F98F21C90504F010F904F07FF9019A01
:1050200067689446274B284AC019634482189E42F9
:105030003EDAF31A9844954231DAAA1ABF184B4661
:105040005D685B462D01ED1A4B461868534600011A
:10505000C01A04F041F98F21C90504F0EEF804F0FC
:105060005DF9404500DD4046C343DB171840206032
:10507000280004F031F98F21C90504F0DEF804F0AE
:105080004DF9B84200DD3800C343DB1718406060BB
:1050900003B0F0BCBB46B246A946A046F0BDF02323
:1050A0005B039C4660448542C9DD2D1A7F19C6E723
:1050B000A02189038C46019B63449E42BBDDF61A06
:1050C000B044B8E70000D8FF0000E2FF10B5174C6D
:1050D000A54406F0E1F80EA801F0EAF804A801F0F2
:1050E000A1FD06AC03A801F00FFE200001F06CFE4C
:1050F00003AB04AA0EA9009475A8FBF7EBF875A8FA
:10510000FBF79CFB0A4B0B4900934022202382A80B
:10511000FFF79CFC084975A8FBF704FF75A8FBF78F
:1051200079FF75A8FDF7B2FAF8E7C046B8D1FFFFDE
:10513000545F0110D05F0110B45901105130FF309D
:10514000C08970475130FF30008A70477047C046B1
:1051500070B505005135FF350E26AB5FFC26CAB28F
:105160004C09F600D2083440D20209022243C90E8B
:1051700084B01143019110216A5E493000920021F0
:105180000022FF3008F026FF04B070BDF0B5DE4607
:105190004E4645465746E0B5060087B00868984633
:1051A00005920C0004F098F8DE21890504F045F81A
:1051B00004F0B4F8A8235B009946B1444B46DB8960
:1051C00005009A4698425EDA606804F085F8DE21B0
:1051D000890504F032F804F0A1F84B461B8A070059
:1051E0009B4698424FDAA06804F076F8DE218905E4
:1051F00004F023F804F092F881462B1843D4E068B9
:10520000029304F069F8DE21890504F016F804F031
:1052100085F804003B1836D44A46002A33DD0028BE
:1052200031DD002D00DA76E02AB20392002F6DDB2B
:105230003AB204920299514502DD5246521B914600
:105240005B4501DD5B46DC1BFC2205A90B78D20027
:10525000DB08D8024B788978DB0013400343C90888
:1052600019434B461BB29B4643468A46002B11D03E
:10527000300024B2493001915B46049A0399FF3013
:10528000009408F0A7FE07B0F0BCBB46B246A946A2
:10529000A046F0BD01234936FF36984601910093A0
:1052A00030005B46049A039908F094FE012CEADD75
:1052B000A3B29C460293534601934346BFB27A1E63
:1052C00003996244009330005B4612B2884608F0AE
:1052D00081FE022CD7D05346029C0137023C3FB2DC
:1052E00024B23A0041460193300001230094013D6D
:1052F00008F070FE29005346494401933A00012307
:10530000300009B2009408F065FEBCE700221C00E2
:10531000002704928EE7029A00259146002203920C
:1053200084E7C046F0B5DE464E4657464546E0B5F2
:105330008FB00E0093461C000790002900D1DCE0DE
:105340000B78002B00D1D8E002005132FF32D18916
:10535000FC2588463700C146128A18A80192417878
:105360000278ED00D208C9002940D2020A438178B0
:10537000C74DC908114303910C940D95202B00D102
:105380009BE21A00303AD1B2D200092909D9202271
:1053900019009143582900D12DE32F2B00D0A7E00D
:1053A00058220D9B0B979A460C9B92445A1C904690
:1053B0005746C246C846D94692B211330292059367
:1053C0003B789B465346591E00D5D3E0019B4D4682
:1053D000002480268B4249DD53460991BA465F4638
:1053E0009B4603E001340235082C3CD03300E340F7
:1053F0001F42F7D0002D00DAA8E06B1C0493A845EB
:1054000000DC0AE26B46079824215A5E8D30039B2C
:1054100029B2FF3008920A91069009F0DDFB6B1C5F
:10542000984500DC36E26B4610229B5E0698190018
:105430000493089A039B09F0CFFB019B5B45D1DDE8
:105440005B461BB21A0008930A99039B069809F061
:10545000C3FB039B089A04990698013409F0BCFB2E
:105460000235082CC2D15746DA462FE03B005F4692
:105470009B4603E001340235082C26D03300E3407C
:105480001F42F7D0002D4FDB6B1C0493A84500DCB6
:10549000D7E1984538DD019B5345EBDD534607982E
:1054A0001AB28D30FF30039B29B20692089009F0A2
:1054B00093FB6B46069A1021595E0898039B0134B2
:1054C00009F08AFB0235082CD8D15F4602239C469E
:1054D000029BE24402339BB20293059B01379A453B
:1054E00000D06DE71023CB469C46C1460B9FE3449A
:1054F0007B780137002B00D040E70FB0F0BCBB46F3
:10550000B246A946A046F0BD5346002BB2DB019B34
:105510005345AFDD534607981AB28D30039B29B22D
:10552000FF3009F059FBA5E76B1CA3D14346002BC4
:10553000A0D000230493019B53459BDD53461BB22F
:105540000693079B8D33FF330893B2E76B1C00D0A3
:1055500048E74346002B00D144E76B4607982422D6
:105560009A5E8D30039B0021FF3009F035FB00234C
:10557000049356E15B465BB2002B00DAD6E05B4653
:105580005B0600D5FEE05B469B0600D520E15B464E
:10559000DB0600D5A4E05B461B077BD404235A46F8
:1055A000134251D102235A4613422AD101235A46AB
:1055B000134200D18AE749460E3100D500E24C1C67
:1055C000884500DC26E25346002B00D07EE7019B95
:1055D000002B00D17AE76B46079E08255D5F8D366C
:1055E000FF362A003000039B09B209F0F5FAA04506
:1055F00000DC6BE72A003000039B21B209F0ECFAD3
:1056000064E749460C3100D5C7E14C1C884500DCF5
:105610007DE25346002BC9D1019B002BC6D06B46BF
:10562000079E08255D5F8D36FF362A003000039BFC
:1056300009B209F0D1FAA045B8DD2A003000039B79
:1056400021B209F0C9FAB1E749460A3100D592E121
:105650004C1C884500DC36E25346002BA2D1019B4E
:10566000002B9FD06B46079E08255D5F8D36FF3669
:105670002A003000039B09B209F0AEFAA04591DD83
:105680002A003000039B21B209F0A6FA8AE7C0463F
:105690000C6801104946083100D559E14C1C884579
:1056A00000DCECE15346002B00D077E7019B002B98
:1056B00000D173E76B46079E08255D5F8D36FF3688
:1056C0002A003000039B09B209F086FAA04500DCED
:1056D00064E72A003000039B21B209F07DFA5DE700
:1056E0004B46991D00D5FDE04C1C884500DCA2E12D
:1056F0005346002B00D04EE7019B002B00D14AE718
:105700006B46079E08255D5F8D36FF362A00300008
:10571000039B09B209F060FAA04500DC3BE72A00D0
:105720003000039B21B209F057FA34E74B46002BB7
:1057300000DAFCE0C84500DC8BE05346002B00D0CB
:10574000B4E0019B002B00D1B0E04B465C1C6B46E3
:1057500008255D5F4B46079E19B28D36FF362A003D
:105760003000039B049509F037FAA04500DCE4E122
:105770003000039B049A21B209F02EFA5B465B06C7
:1057800000D400E74B46991C00D59AE0884563DDBC
:105790005346002B60D1019B002B5DD06B46079ECA
:1057A00008255D5F8D364C1CFF362A003000039BB8
:1057B00009B209F011FAA04500DCE4E6039B2A00D7
:1057C000300021B209F008FA5B469B0600D4DEE601
:1057D0004B46191D00D598E04C1C884545DD5346C5
:1057E000002B00D0D3E6019B002B00D1CFE66B4607
:1057F000079E08255D5F8D36FF362A003000039B2B
:1058000009B209F0E9F9A04500DCC0E62A00300041
:10581000039B21B209F0E0F9B9E66B1C984500DC66
:10582000E0E5019B5B4500DCDCE55B461BB20893D1
:10583000079B8D33FF3306936B4610229B5E0493C8
:1058400007E6984500DC15E65346002B00DA11E622
:1058500071E65B465B062DD45B469B0600D496E65C
:105860004B46191D4C1C8845B9DCA04558DD5346F4
:10587000002B00D08BE6019B002B00D187E6002592
:10588000079E2A008D36FF363000039B21B209F0B7
:10589000A3F97CE6019B5B4500DCA3E55B460A9926
:1058A0001AB20698039B09F097F99BE55B465B06E5
:1058B00000D468E64B46991C68E7103B9C46E344DD
:1058C00016E6013100D05EE64346002B00D1A9E088
:1058D0005346002B00D180E15B4601219B0600D49A
:1058E00055E679E7013100D055E64346002B00D15B
:1058F000DBE053465446002B00D1A3E05B461B0778
:1059000000D44BE649460831C8E6013100D03EE6F6
:105910004346002B00D1A4E053465446002BAAD0A6
:105920005B46DB0600D436E64B46991DDCE60133C8
:1059300000D024E64346002B00D11AE15346002B49
:1059400000D105E15B4601215B0600D41BE61DE7A3
:10595000013100D022E64346002B00D1C9E0534676
:105960005446002B00D191E05B465B0700D419E65A
:1059700049460A316CE6013100D013E64346002B5C
:105980003BD053465446002B00D1A3E05B469B0717
:1059900000D40BE649460C3137E6013100D005E66C
:1059A0004346002B00D191E553465446002B00D1CD
:1059B000B4E05B46DB0700D488E549460E31FEE5DE
:1059C000013100D082E543460024002B00D17DE563
:1059D0005346002B00D079E5019B002B00D175E5E3
:1059E0000025079E2A008D36FF363000039B21B22A
:1059F00009F0F2F86AE55022D3E45B469B0700D534
:105A0000CAE05B46DB0700D460E549460E31D7D4D7
:105A10004C460F34A04500DC58E55346002B00D01F
:105A200054E5D9E75B469B0600D5E0E05B460424DD
:105A3000DB0600D4AFE5A04500DC5FE75346002B52
:105A400000D0A8E5019B002B00D1A4E50025079E0E
:105A50002A008D36FF363000039B21B209F0BCF8D6
:105A600099E55B46DB0600D5A1E05B461B0700D449
:105A700094E54946083100D56AE74C460934A0450B
:105A800000DC71E75346002B00D087E5019B002B1B
:105A900000D183E50025079E2A008D36FF363000B1
:105AA000039B21B209F098F878E55B461B0700D507
:105AB00088E05B465B0700D474E549460A3100D5AF
:105AC00059E74C460B34A04500DC5FE75346002BFA
:105AD00000D067E5019B002B00D163E50025079E00
