:020000041000EA
:1000000000B5324B212058609868022188439860DF
:10001000D860186158612E4B002199600221596106
:100020000121F02299502B49196001219960352056
:1000300000F044F80222904214D00621196600F024
:1000400034F8196E01211966002018661A6600F04E
:100050002CF8196E196E196E052000F02FF8012189
:100060000842F9D1002199601B49196000215960AB
:100070001A491B48016001219960EB211966A021F2
:10008000196600F012F800219960164914480160C1
:100090000121996001BC002800D000471248134993
:1000A000086003C880F30888084703B5996A0420EC
:1000B0000142FBD001200142F8D103BD02B5186610
:1000C0001866FFF7F2FF186E186E02BD00000240BE
:1000D000000000180000070000035F00212200005C
:1000E000F4000018222000A00001001008ED00E03C
:1000F00000000000000000000000000074B24E7A12
:1001000000200420F7010010CB010010CD010010E9
:10011000C9010010C9010010C9010010C901001077
:10012000C9010010C9010010C9010010CF01001061
:10013000C9010010C9010010D1010010D301001045
:10014000C1010010C1010010C1010010C101001067
:10015000C1010010C1010010C1010010C101001057
:10016000C1010010C1010010C1010010C101001047
:10017000C1010010C1010010C1010010C101001037
:10018000C1010010C1010010C1010010C101001027
:10019000C1010010C1010010C1010010C101001017
:1001A000C1010010C1010010C1010010C101001007
:1001B000C1010010C1010010C1010010C1010010F7
:1001C000EFF30580103800BE00BE00BE00BE00BECA
:1001D00000BE00BEF2EB88713C1103105C110310ED
:1001E0003802001090A31AE71E481F49086006C88D
:1001F00081F3088810471D480068002801D019487D
:10020000F3E70DA40ECC002902D000F012F8F9E7B4
:100210001749184A002000E001C19142FCD116495B
:100220008847164988471649884700BEFDE701C937
:1002300001C29A42FBD370475C110310C00000203A
:10024000CC170020682803100000042000000420C0
:100250006828031000100420001004200000000093
:10026000704700000000000008ED00E0000000D032
:10027000CC170020502D00201DB10010DD520010C1
:10028000DDB00010F8B5C04606480749091A8B10C2
:10029000C90FC91810B5491003D0044B002B00D06A
:1002A000984710BDCC170020CC170020000000009C
:1002B000054B10B5002B03D00449054800E000BFF2
:1002C000FFF7E2FF10BDC04600000000E82C002050
:1002D0008C480110F0B5DE464E4645465746E0B51F
:1002E000050085B083600E9B01604260C3601030E2
:1002F0000C0002F0BBFE2800343004F0B7FE236887
:1003000020009B6A9847060023682000DB6A984714
:10031000002431000026F04B0200E81804F04EFFE4
:10032000EE4BE81802F012FFED4BEE4AEB18A8185E
:100330001C605C609C60DC601E619C829C61DE6174
:1003400020339842F4D1E84B1422EB181C600021B2
:1003500009F0AEF9E54B0022EC50E918E44B4C6093
:10036000EC50EB185C6003230A77E24AE2480B7416
:10037000AC50AA1854602C5028184460DF4800275D
:1003800084460092009AAC441374177762462C504E
:10039000DB4854602C5028184460DA4813748046B7
:1003A000A844177742462C50D74854602C50281840
:1003B0004460D64813748246AA44177752462C509C
:1003C000D34854602C5028184460D2481374814696
:1003D000A94417772C50484644600290CE482C50D0
:1003E00028184460484603740777CC488146A944DE
:1003F0002C50484644600390C9482C50281844604B
:10040000484603740777C7488146A9442C5048469C
:1004100044600190C4484A462C5028184460C348A0
:1004200013748146A94417774A462C50C04854603B
:100430002C5028184460BF4813748346AB44177788
:100440005A462C50BC4854602C50281844601374F1
:10045000634617774C61009A039854615C61434688
:100460005C615346019A5C61029B5C61446154612A
:100470004A4654615A4654618E616146009A9661BB
:100480008E6141468E6151468E619E614B46019A56
:10049000866196619E615B469E6197239B01EB1886
:1004A0001C60A64B0A220021E81809F001F9A44BB0
:1004B000A449EC50EA18A44B5460EC50EB185C6073
:1004C0000523546113749661D66116629F4AAA1877
:1004D00017709F4AAC50AA1854606C5069184C6051
:1004E000137454619661D66116629A4A9A49AA18A1
:1004F00017709A4AAC50AA1854606C5069184C6036
:10050000137454619661D6611662954A9549AA188A
:100510001770954AAC50AA1854606C5069184C601A
:1005200054619661D66116621374904A9049AA1874
:100530001770904AAC50AA1854606C5069184C60FF
:100540008D496B5054619661D66116628B4A8C4915
:10055000AA1817708B4AAC50AA1854606C506918CE
:100560004C6089496B5054619661D6611662874A26
:100570008749AA181770874AAC50AA1854606C5063
:1005800069184C6084496B5054619661D66116625B
:10059000824A8349AA181770824AAC50AA1854603C
:1005A0006C5069184C6080496B5054619661D661FB
:1005B00016629C229201AA1817707C4A7C49AC50A2
:1005C000AA1854606C5069184C6054619661D661E9
:1005D00013741662774A7849AA181770774AAC5094
:1005E000AA1854606C5069184C6075496B50754B73
:1005F0005461EB189661D66116621F70724B00262B
:10060000EB181C600024714B0A22E818002109F045
:100610004FF86F4B6F4AEB18A8181C605C609C6029
:10062000DC601E619C829C61DE6120339842F4D1C3
:10063000694B1E22EB181C60002109F039F80022DA
:100640000027664B2800EC50EB181A7205225C60FC
:10065000DC601E611F759C61614BEC50EB185C60A7
:100660009A601F735C611F7401235E4A5B42AB504A
:100670005D4AAB505D4AAB505D4AAB505D4AAB50F2
:100680005D4AAB505D4AAB505D4AAB505D4AAB50E2
:100690000432AB505C4AAB505C4AAB505C4AAB5046
:1006A0005C4AAB505C4AAB505C4AAB505C4AAB50C6
:1006B0005C4BEC505C4BEE505C4BEC505C4BEE50AA
:1006C0005C4BEF545C4BEF5405B0F0BCBB46B246FC
:1006D000A946A046F0BDC046B4210000C8210000D4
:1006E000DC2100005C240000702400007424000061
:1006F0007C240000942400009C240000B42400000A
:10070000BC240000D4240000DC240000F4240000F9
:10071000FC240000142500001C25000034250000E6
:100720003C250000542500005C25000074250000D5
:100730007C250000942500009C250000B4250000C5
:10074000C4250000F4250000CC250000E8250000A9
:10075000EC250000102600001C26000014260000D6
:1007600038260000442600003C26000060260000D9
:100770006C26000064260000742600008826000015
:10078000942600008C2600009C260000B026000065
:10079000BC260000B4260000C4260000D8260000B5
:1007A000E4260000DC260000EC2600000427000000
:1007B0000C27000028270000342700002C27000009
:1007C0003C2700005027000060270000542700004D
:1007D00064270000242B0000442B0000482B00005D
:1007E000642B0000DC2B0000E02B0000E42B000059
:1007F000E82B0000EC2B0000F02B0000F42B000095
:10080000F82B0000FC2B0000042C0000082C00003A
:100810000C2C0000102C0000142C0000182C0000E0
:100820001C2C0000202C0000242C0000282C000090
:100830002C2C0000702C0000302C000034239C462F
:10084000F0B5DE46454657464E4684446346E0B51D
:10085000040095B018000D00079303F0DFFE06902A
:10086000002807D1069815B0F0BCBB46B246A94691
:10087000A046F0BDDF4B29003F22E0180EF022FF1A
:10088000102294460026A4446246DB4B0892E654AC
:10089000E26B012122613022236CA6616361E66173
:1008A000A35C8B43A354D54B00211C3AE01808F0FD
:1008B000FFFED34B0A22E3181E60D24B002199465B
:1008C000A144484608F0F4FE97239B019A46A244AF
:1008D00053461E60CC4B0A229C46A444634600212A
:1008E0001800029308F0E4FEC84B1E229B46A34466
:1008F0005B461E60C64B0021E01808F0D9FEC54BD0
:10090000E3181E60C44BE518C44B2E75E718C44BA2
:10091000AE613E747E61E6500433E650C14BE65052
:10092000C14BE650C14BE650C14BE650C14BE650BF
:10093000C14BE650C14BE650C14BE650C14BE650AF
:10094000C14BE650C14BE650C14BE650C14BE6509F
:10095000C14BE650C14BE6500433E650C04BE65065
:10096000C04BE650C04BE650C04BE650C04BE65083
:10097000C04BE652C04BE3181B780193002B54D0B8
:10098000BE4B09959846BE4BA0449C46A444634682
:100990000393BC4B45469C46A44463460493BA4B20
:1009A000B8469C46A444634605934B461B78002BEF
:1009B00000D19DE1039B1B78002B00D1BBE1049B80
:1009C0001B78002B00D1BAE1059B1B78002B00D1CE
:1009D000C1E1AE4BE3181B78002B00D1C3E1AC4B57
:1009E000E3181B78002B00D1C1E1AA4BE3181B7858
:1009F000002B00D1C3E1A84BE3181B78002B00D1DA
:100A0000CAE1A64BE3181B78002B00D1CDE1A44B23
:100A1000E3181B78002B00D1D1E10136019BF6B21F
:100A200008359E42C1D14746099D9E4BE3181B786D
:100A30009A46002B52D09C4B049598469B4BA04461
:100A400099469B4B45469C46A44463460193994B6B
:100A500000269C46A4446346B846A1440393029BE7
:100A60001B78002B00D1A6E04B461B78002B00D151
:100A70005DE1019B1B78002B00D164E1039B1B7897
:100A8000002B00D163E18C4BE3181B78002B00D1C5
:100A900065E18A4BE3181B78002B00D16BE1884B92
:100AA000E3181B78002B00D16DE1864BE3181B780F
:100AB000002B00D16BE1844BE3181B78002B00D195
:100AC0006EE1824BE3181B78002B00D172E10136F6
:100AD000F6B208355645C2D14746049D7C4BE31813
:100AE0001B789B467B4B99460023984601339A46D8
:100AF0005B46A144002B24D03B0022004F46994680
:100B00002B7D44469046002B19D153462B75AB697B
:100B1000002B01D15346AB6139687A680AA803F00B
:100B20005FFA2B000AAA43CA43C30134E4B203CAE2
:100B300003C35C4503D02B7D0837002BE5D044462A
:100B40004F460022644BE254644BE3181B78002BA1
:100B50002AD0013BDBB29B00984601239946230033
:100B60005F4AA5185F4AA844A618444698463B7CAD
:100B7000002B18D14B463B747B69002B01D14B46AF
:100B80007B61316872682B680AA803F0CFFA0D22E6
:100B900038000AA908F092FDAC4204D03B7C043531
:100BA0000836002BE6D044464F4B079A0899E018C8
:100BB00004F00AFB56E60121002700221248A31880
:100BC00084460120634418705B461B68934201D839
:100BD0005B461960454B29689C4667446A68012357
:100BE000E7190AA802F0C8FD252238000AA908F072
:100BF00065FD6CE7302C00006F2C00005C240000C9
:100C000070240000B4250000542700006027000075
:100C1000242B0000442B0000482B0000642B000014
:100C20007C2B0000842B0000882B00008C2B000004
:100C3000902B0000942B0000982B00009C2B0000B0
:100C4000A02B0000A42B0000A82B0000AC2B000060
:100C5000B02B0000B42B0000B82B0000BC2B000010
:100C6000C42B0000C82B0000CC2B0000D02B0000B0
:100C7000D42B0000D82B0000F0200000A0200000A2
:100C8000B5250000B6250000B7250000B8250000F6
:100C9000B9250000BA250000BB250000BC250000D6
:100CA000BD25000094210000F4200000552700001D
:100CB000562700005727000058270000592700003A
:100CC0005A2700005B2700005C2700005D2700001A
:100CD000A021000098210000702C0000AC21000031
:100CE000B0210000A4210000B4210000C4250000B0
:100CF0000121002700223448A318844601206344C0
:100D0000187053461B68934201D8534619602F4B05
:100D100029689C4667446A680123E7190AA802F01B
:100D2000A3FB1D2238000AA908F0C8FC75E60221C1
:100D30002827012242E7022120270122DBE70321A5
:100D400040270222D7E703215027022236E7042159
:100D50007827032232E7042160270322CBE705210D
:100D6000A02704222AE7052180270422C3E70621C1
:100D7000A0270522BFE70621C82705221EE7072175
:100D8000C0270622B7E70721F027062216E78C279F
:100D9000082107227F0011E70821E0270722AAE7A0
:100DA000A027092108227F0008E7802709210822BF
:100DB0007F00A0E7B4270A2109227F00FEE69027E2
:100DC0000A2109227F0096E7B42500007424000060
:100DD00010B504003D49FFF731FD20683C49036828
:100DE000DB6998473B4B3C49E05020680368DB696E
:100DF00098473A4B3A49E05020680368DB699847C6
:100E0000384B3949E05020680368DB699847374B15
:100E10003749E05020680368DB699847354B36490D
:100E2000E05020680368DB699847344B3449E05050
:100E300020680368DB699847324B3349E0502068EB
:100E40000368DB699847314B3149E05020680368FB
:100E5000DB6998472F4B3049E05020680368DB6915
:100E60009847B0239B01E05020682C490368DB6958
:100E700098472B4B2B49E05020680368DB69984763
:100E8000294B2A49E05020680368DB699847284BC2
:100E90002849E05020680368DB699847264B2749BA
:100EA000E05020680368DB699847254B2549E050EE
:100EB00020680368DB699847234B2449E050206889
:100EC0000368DB699847224BE05010BD9048011041
:100ED000A8480110DC2B0000C8480110E02B0000DE
:100EE000E8480110E42B000008490110E82B00003D
:100EF00030490110EC2B000048490110F02B000094
:100F000060490110F42B000080490110F82B00000B
:100F1000A0490110FC2B0000B8490110D449011070
:100F2000042C0000F4490110082C0000104A0110A4
:100F30000C2C0000304A0110102C00004C4A01100B
:100F4000142C0000684A0110182C0000844A01107B
:100F50001C2C0000F0B5C6460100060000B584B0A8
:100F60006846103102F0EAF81C4BF3181878002894
:100F700021D0019B009D9C46039B029F63449846A1
:100F8000174BEF19F11800230C688A68A2189542D4
:100F900015DABC4213DA4C68CA68A21894450EDA16
:100FA00044450CDA0F4BF3181B7C002B0DD130009D
:100FB0001031FFF743FC04B080BCB846F0BD0133EC
:100FC000DBB258318342DFD1F5E7074BF35C002BEE
:100FD000F1D030001031FFF731FCECE79C2000002D
:100FE00044200000642B0000702C0000F0B5DE46A9
:100FF00057464E464546E0B50700B9B00390C06875
:10100000B64C03689B689847786803689B68984764
:10101000F8680368DB689847BC4683463900B048E7
:101020005B46103160447A6888460C9102F0D6F82D
:10103000BC4664445A462000414603F0D5F82000DF
:10104000414603F0FBF88F215846C90508F0D1F955
:1010500008F040FA0500C617B8692A003300C11726
:1010600008F090F9BC463B690904000C08439D4A0E
:101070001B1862443B613B009246343330241A0013
:10108000414650469946049303F0A2F901223B5D84
:1010900093433B55F8692A003300C11708F072F9F1
:1010A0007B690904000C08431B184A464146504618
:1010B0007B6103F0D5F85946404601F0E9FF395D00
:1010C0004B0701D500F0ECFC874A3B009446874A69
:1010D0006744944663440E972593854B039CE058E0
:1010E00008F0D6F9DE21890508F083F908F0F2F955
:1010F000A4467F4A059062445068249208F0C8F9DB
:10110000DE21890508F075F908F0E4F90B902068F4
:1011100003689B6A9847089020680368DB6A9847D1
:10112000A446744B0E9A63441C000F9301231500D0
:10113000984691460D9023922B78002B40D059462B
:10114000200002F03DF921005046049A03F0A4F972
:10115000002801D043462375059808F099F98F219E
:10116000C90508F046F908F0B5F927680600874276
:1011700024DB089808F08CF98F21C90508F039F9AB
:1011800008F0A8F98019B84218DB0B9808F080F92C
:101190008F21C90508F02DF908F09CF96768060051
:1011A00087420BDB0D9808F073F98F21C90508F011
:1011B00020F908F08FF98019B84201DA4346237507
:1011C00020340135A145B7D19722039B92019B584A
:1011D0009946002B01D101F0ACF9039B46491A0056
:1011E0008C46624416000A92444A1F0094464449C1
:1011F0001A0067448C4662440692524609925A4647
:1012000000249B46079204E00134203602374C4507
:101210003CD2092CF8D8069B1B5D002BF4D05B4612
:1012200018693368C01A5B465A697368C117D31AC4
:101230009846DB179A4602000B0008F0A3F8090451
:10124000050C424653460D434046514608F09AF875
:10125000E2220904000C08432D180123D20595420F
:1012600000DB00233B70E223DB059D42CCDA30003B
:10127000049A079902F082F997225B4692019B58E3
:1012800001349946203602374C45C2D3099B1D4A8A
:101290009A46079B9B46039B9B589946002B01D17E
:1012A00001F059F9039B18491A008C466244160054
:1012B0000992164A1F00944615491A0067448C4645
:1012C0001449624407928C461A00624410925246B6
:1012D00012925A4600249B46119222E0C42100003B
:1012E000C8210000C52100005C240000702400001B
:1012F000B4210000DC210000742400007C2B0000DD
:10130000B425000060270000C4250000AE2B0000BB
:1013100054270000642700000134283602374C456A
:101320003ED2092CF8D8079B1B5D002BF4D05B46FE
:1013300018693368C01A5B465A697368C117D31AB3
:101340009846DB179A4602000B0008F01BF80904C8
:10135000050C424653460D434046514608F012F8EC
:10136000E2220904000C08432D180123D2059542FE
:1013700000DB00233B70E223DB059D42CCDA109BAF
:101380003000049A009311990C9B02F0E9FA5B4635
:10139000AF4A01349B582836994602374C45C0D392
:1013A000129B9A46119B9B46039C0021606A08F0A1
:1013B00055F8002801D000F028FCA64922008C46F0
:1013C000A549624421928C462200A44962441F929E
:1013D0008C462200A24962441D928C462200A149FB
:1013E00062441B928C4622009F49624418928C46AC
:1013F00022009E49624419928C4622009C49624414
:1014000016928C4622009B49624414928C4622001C
:101410009949624412928C46220098496244229271
:101420008C4622009649624420928C4622009549BF
:1014300062441E928C462200934962441C928C4660
:101440002200924962441A928C46220090496244DA
:1014500017928C46220062441592230022008D4987
:101460008C46624413928C4A9446634411938B4B8E
:10147000039D9C460123109C654426002F0099463D
:10148000A8463B78002B40D05946300002F054FD6E
:1014900031005046049A03F03DF8002801D04B4635
:1014A0003375059807F0F4FF8F21C90507F0A1FFF8
:1014B00008F010F835680400854224DB089807F02E
:1014C000E7FF8F21C90507F094FF08F003F8001922
:1014D000A84218DB0B9807F0DBFF8F21C90507F046
:1014E00088FF07F0F7FF7568040085420BDB0D9855
:1014F00007F0CEFF8F21C90507F07BFF07F0EAFF59
:101500000019A84201DA4B463375203601374645AB
:10151000B7D1634A039B9446634405931B7D4546BC
:10152000109C002B03D05946059802F069FD039BDF
:101530005C4F5846D95907F045FF5B49061C07F038
:1015400095FF002800D01EE3039BDE51039B574FFD
:101550005846D95907F036FF5349061C07F086FF55
:10156000002800D10CE35049301C07F028FF504EF2
:10157000039B0C21D85198591F00013006F0E8FF59
:10158000B9514C490F9B8C469846039A0E9B624476
:1015900092462CAA46469B469146984630AF0895FF
:1015A0000B9405E001239C462036E34446453FD09A
:1015B0005B461B78002BF5D05346B2461E00069CB6
:1015C0000A9D2378002B00D15BE25146484601F08A
:1015D00043FF2900380001F06FFF4B4639681A6855
:1015E000BB68CB189A4200DB4BE24B469B68D21893
:1015F000914200DB45E24B4679685A68FB68CB189C
:101600009A4200DB3DE24B46DB68D218914200DB98
:1016100037E2330056469A460123012133752800EC
:1016200001F042FF01239C462036E3444645BFD1EA
:101630002149039A8C46624492460E9B2CAA9146FD
:1016400030AA57469B4690469A460F9E3CE0C046BD
:1016500060270000B5250000B6250000B725000072
:10166000B8250000B9250000BA250000BB25000000
:10167000BC250000BD2500005527000056270000AE
:101680005727000058270000592700005A2700005C
:101690005B2700005C2700005D270000242B000072
:1016A000482B0000242C000068B32A3E2C2C00009C
:1016B000282C0000BE2500005E27000001239C4668
:1016C0002036E34456453BD05B461B78002BF5D0D3
:1016D000079C099D2378002B00D1DBE131004846AF
:1016E00001F0BAFE2900404602F072F84B461A6833
:1016F000434619689B68CB189A4200DBCAE14B4607
:101700009B68D218914200DBC4E14B465A684346BD
:101710005968DB68CB189A4200DBBBE14B46DB68BB
:10172000D218914200DBB5E1012301213375280075
:1017300002F046F801239C462036E3445645C3D1C7
:101740002CAB9846089D0C9B2E0099460B9C30AF05
:101750003378002B26D02100404602F039FC494660
:10176000380001F0EBFC434639681A68BB68CB18B7
:101770009A4217DA43469B68D218914212DA4346DE
:1017800079685A68FB68CB189A420BDA4346DB68E3
:10179000D218914206DA01232022039923758B5C2B
:1017A000013B8B5420340136A542D1D1059B1B7DD2
:1017B000002B22D0059E337A002B1ED031002CA89E
:1017C00030AC02F0ABFC0C99200001F0B7FC309972
:1017D000329B2C9ACB189A420FDA2E9BD218914248
:1017E0000BDA3199339A2D9B8A18934205DA2F9A96
:1017F0009B18994201DA00F012FFC84B039C9C46EB
:101800006444237C002B16D0237B002B13D12100B2
:101810002CA830AE02F0E0FC0C99300001F08EFCF8
:101820003099329B2C9ACB189A4204DA2E9BD2180C
:10183000914200DACEE3BA4A00219446039B239AF0
:10184000259C63441078002803D01878002800D025
:101850001170013220339442F4D1039AB14913003C
:101860008C46B14963448C466244110000202A78BA
:10187000002A03D01A78002A00D0287001352033BE
:101880008D42F4D1069A1378002B04D00A9B1B7C5E
:10189000002B00D1ACE1219A1378002B07D0A3498B
:1018A000039B8C4663441B78002B00D19EE11F9A5A
:1018B0001378002B07D09E49039B8C4663441B780A
:1018C000002B00D190E11D9A1378002B07D0994985
:1018D000039B8C4663441B78002B00D182E11B9A4A
:1018E0001378002B07D09449039B8C4663441B78E4
:1018F000002B00D174E1189A1378002B07D08F4980
:10190000039B8C4663441B78002B00D166E1199A37
:101910001378002B07D08A49039B8C4663441B78BD
:10192000002B00D158E1169A1378002B07D0854977
:10193000039B8C4663441B78002B00D14AE1149A28
:101940001378002B07D08049039B8C4663441B7897
:10195000002B00D13CE1129A1378002B07D07B4971
:10196000039B8C4663441B78002B00D12EE1079A21
:101970001378002B04D0099B1B7C002B00D123E1A2
:10198000229A1378002B07D07149039B8C4663443D
:101990001B78002B00D115E1209A1378002B07D07B
:1019A0006C49039B8C4663441B78002B00D107E1F4
:1019B0001E9A1378002B07D06749039B8C4663441B
:1019C0001B78002B00D1F9E01C9A1378002B07D06C
:1019D0006249039B8C4663441B78002B00D1EBE0EB
:1019E0001A9A1378002B07D05D49039B8C466344F9
:1019F0001B78002B00D1DDE0179A1378002B07D05D
:101A00005849039B8C4663441B78002B00D1CDE0E2
:101A1000159A1378002B07D05349039B8C466344D7
:101A20001B78002B00D1BFE0139A1378002B07D04E
:101A30004E49039B8C4663441B78002B00D1B7E0D2
:101A4000119A1378002B07D04949039B8C466344B5
:101A50001B78002B00D1A5E02024049A0C9924982F
:101A600003F0B2FB039D2800FFF774FA2B5D002BF7
:101A700000D1BFE039B0F0BCBB46B246A946A04693
:101A8000F0BD01342035B44200D09AE5330056460B
:101A90009A4687E501342835BC4200D01AE60DE6A7
:101AA000344B039A9C46624400240E9203E00134B6
:101AB000142C00D187E2135D002BF8D12D4D039E2D
:101AC000AC46012533196344B446306972691D7010
:101AD000294B63441D0025931B68A34201D8631C56
:101AE0002B600907CB0F190509188020C002844616
:101AF00030AD624428002691279201F043FC039AFE
:101B0000630194461D4A63449446634407CD07C36A
:101B100007CD07C306CD06C3FFF7DFFA642B00002D
:101B2000F021000078270000422B0000A4240000D0
:101B3000C4240000E4240000042500002425000043
:101B4000442500006425000084250000A425000031
:101B5000FC250000242600004C260000742600000E
:101B60009C260000C4260000EC260000142700007C
:101B70003C2700005C24000070240000DC210000F1
:101B8000039BDE51FDE4BD49301C07F018FCBC4E40
:101B9000039B0C21D85198591F00013006F0D8FC46
:101BA000B951D3E4137057E713703DE713702FE773
:101BB000137045E713701FE7137011E7137003E705
:101BC0001370F5E61370E7E61370D9E61370CEE6EE
:101BD0001370C0E61370B2E61370A4E6137096E6B5
:101BE000137088E613707AE613706CE613705EE685
:101BF000137050E6039DA34A2900944628006144CF
:101C0000FEF71CFE01232B5534E728AC20000C996D
:101C100001F094FA2B9B289D9846069B299E1B78E1
:101C20002A9F002B37D030AC20000A9901F044FCE9
:101C3000309A329BD3189D422DDA7B199A422ADAC8
:101C4000319A339BD3189E4225DA43469B199A4218
:101C500021DA039A8C4B11009C46614413002191B8
:101C600011008A4A944661441F9189491A008C46A2
:101C700062441D92874A19009446874A63441B9325
:101C800094460B00854A6344189394460B006344C2
:101C90000A00199377E0039A7B4913008C4663444A
:101CA00021931B78002B35D07D4B11009C4630AC26
:101CB0002000614401F000FC309A329BD3189D4211
:101CC00028DA7B199A4225DA319A339BD3189E423F
:101CD00020DA43469B199A421CDA039B6B491A008F
:101CE0008C466B4962441F928C461A00624419006C
:101CF0001D921A00674B9C46674B62441B929C46A0
:101D00000A0062440B0018920A0064498C4663443E
:101D1000199338E0039A5D4913008C4663441F937E
:101D20001B78002B3ED05F481100844630AC200069
:101D3000614401F0C1FB309A329BD3189D4231DAE5
:101D40007B199A422EDA319A339BD3189E4229DAB4
:101D500041468B199A4225DA039B4D491A008C465D
:101D6000624419001D921A004A4B9C464A4B624439
:101D70001B929C460A00494B624418929C460A00FA
:101D8000624419920A00484913008C466344169332
:101D9000130046498C4662441492454A9446634473
:101DA000129367E1039A3A4913008C4663441D93EA
:101DB0001B78002B38D03F481100844630AC2000FF
:101DC000614401F079FB309A329BD3189D422BDAA3
:101DD0007B199A4228DA319A339BD3189E4223DA30
:101DE00041468B199A421FDA03992A4B0A009C46F6
:101DF000294B62441B929C460A00284B624418926D
:101E00009C460A0062440B0019920A0026498C463F
:101E1000264962448C4616921A0063441493244B5C
:101E20009C466244129225E1039A1A4913008C469B
:101E300063441B931B78002B40D01F48110084463D
:101E400030AC2000614401F037FB309A329BD3184C
:101E50009D4233DA7B199A4230DA319A339BD31898
:101E60009E422BDA41468B199A4227DA03990A4A95
:101E70000B0094466344189343E0C04668B32A3E7F
:101E8000202C0000302C0000B5250000B6250000F5
:101E9000B7250000B8250000B9250000BA250000CC
:101EA00094240000B4240000BB250000BC250000E1
:101EB000BD250000D4240000F4240000039AC24988
:101EC00013008C46634418931B78002B26D0BF4820
:101ED0001100844630AC2000614401F0EDFA309AE4
:101EE000329BD3189D4219DA7B199A4216DA319A3D
:101EF000339BD3189E4211DA41468B199A420DDA70
:101F00000399B34A0B00944663441993B14A0B00FA
:101F10009446634416930B001A003AE7039AAC49BF
:101F200013008C46634419931B78002B1AD0AA48DF
:101F30001100844630AC2000614401F0BDFA309AB3
:101F4000329BD3189D420DDA7B199A420ADA319AF4
:101F5000339BD3189E4205DA41468B199A4201DA27
:101F60000399D3E7039A9B4913008C466344169365
:101F70001B78002B40D1039A984913008C46634488
:101F800014931B78002B53D0954B11009C4630AC1A
:101F90002000614401F090FA309A329BD3189D42A0
:101FA00046DA7B199A4243DA319A339BD3189E4220
:101FB0003EDA43469B199A423ADA8A4B039A9C4688
:101FC0006244129256E0884A039B944663442593E8
:101FD000FFF783F83199339A2D9B8A18934200DBDF
:101FE00029E42F9A9B18994200DB24E401237F4ABD
:101FF000039923738B541EE47D481100844630AC52
:102000002000614401F058FA309A329BD3189D4267
:10201000B1DA7B199A42AEDA319A339BD3189E42D9
:10202000A9DA41468B199A42A5DA039B1A00B0E659
:10203000039A6C4913008C46634412931B78002B5F
:102040003FD06C4B30AC9C4662441100200001F044
:1020500033FA309A329BD318AB4232DD7B1993426C
:102060002FDD319A339BD318B3422ADD43469B19A7
:102070009A4226DA202203998B5C013B8B540A009A
:102080008F239446DB054B625B495C4A6144229195
:102090005B496244614420915A49119261441E9106
:1020A000594961441C91594961441A915849614404
:1020B0001791584961441591574961441391FFF7AD
:1020C000D6F9039C0021606A07F0C8F9002800D106
:1020D0007EE2079B1B78002B37D030AC200009999B
:1020E00001F076FB309A329BD3189D422DDA7B1992
:1020F0009A422ADA319A339BD3189E4225DA434614
:102100009B199A4221DA039A3B4B11009C46614489
:102110001300229111003A4A9446614420913949B2
:102120001A008C4662441E92374A19009446374A78
:1021300063441C9394460B00354A63441A939446B7
:102140000B0063440A001793A3E0039A2A49130083
:102150008C46634422931B78002B61D02F4B1100D7
:102160009C4630AC2000614401F032FB309A329B37
:10217000D3189D4254DA7B199A4251DA319A339B33
:10218000D3189E424CDA43469B199A4248DA039B85
:102190001B491A008C461B49624420928C461A0047
:1021A000624419001E921A00174B9C46174B62445A
:1021B0001C929C460A0062440B001A920A001449C1
:1021C0008C466344179364E0B92500001425000091
:1021D000BA250000BB25000034250000BC25000006
:1021E00074250000BD25000070240000702C000044
:1021F0005425000094250000552700005D270000AD
:1022000056270000572700005827000059270000D4
:102210005A2700005B2700005C270000EC25000027
:10222000039AD54913008C46634420931B78002BF6
:102230003ED0D2481100844630AC2000614401F009
:10224000C7FA309A329BD3189D4231DA7B199A42F1
:102250002EDA319A339BD3189E4229DA41468B19E4
:102260009A4225DA039BC6491A008C46624419003B
:102270001E921A00C34B9C46C34B62441C929C4660
:102280000A00C24B62441A929C460A0062441792AA
:102290000A00BF4913008C46634415931300BD49DF
:1022A0008C4662441392BC4A94466344119340E0C6
:1022B000039AB34913008C4663441E931B78002B8A
:1022C00041D0B6481100844630AC2000614401F092
:1022D0007FFA309A329BD3189D4234DA7B199A42A6
:1022E00031DA319A339BD3189E422CDA41468B194E
:1022F0009A4228DA0399A34B0A009C46A24B6244F7
:102300001C929C460A00A14B62441A929C460A0009
:1023100062440B0017920A009D498C469D49624415
:102320008C4615921A00634413939B4B9C4662445F
:102330001192202203998B5C013B8B548F23DB0588
:102340004B62FFF794F8039A8E4913008C4663445E
:102350001C931B78002B1FD091481100844630AC91
:102360002000614401F034FA309A329BD3189D4228
:1023700012DA7B199A420FDA319A339BD3189E42B4
:102380000ADA41468B199A4206DA03997E4A0B0013
:10239000944663441A9322E0039A7B4913008C46C7
:1023A00063441A931B78002B1FD07E48110084468B
:1023B00030AC2000614401F00BFA309A329BD31804
:1023C0009D4212DA7B199A420FDA319A339BD31865
:1023D0009E420ADA41468B199A4206DA03996B4A01
:1023E0000B0094466344179322E0039A6749130055
:1023F0008C46634417931B78002B21D06A48110048
:10240000844630AC2000614401F0E2F9309A329BFE
:10241000D3189D4214DA7B199A4211DA319A339B10
:10242000D3189E420CDA41468B199A4208DA039976
:10243000574A0B009446634415930B001A002EE78D
:10244000039A534913008C46634415931B78002B61
:102450001BD056481100844630AC2000614401F086
:10246000B7F9309A329BD3189D420EDA7B199A4203
:102470000BDA319A339BD3189E4206DA41468B1908
:102480009A4202DA039B1A0009E7039A41491300B2
:102490008C46634413931B78002B1ED0444B1100D1
:1024A0009C4630AC2000614401F092F9309A329B96
:1024B000D3189D4211DA7B199A420EDA319A339B76
:1024C000D3189E4209DA43469B199A4205DA324BE9
:1024D000039A9C46624411922BE7039A2E491300FB
:1024E0008C46634411931B78002B01D1FEF7BFFF8C
:1024F000304B30AC9C4662441100200001F068F97A
:10250000309A329BD318AB4201DCFEF7B0FF7F1943
:10251000BA4201DBFEF7ABFF319A339BD318B342CB
:1025200001DCFEF7A4FF4644B24201DBFEF79FFF49
:10253000FFE6039B20491A008C4662440A921F4A18
:10254000944663441E4A0693039B9B589946002B6E
:1025500001D0FEF7A7FE039A1A4913008C461A49C8
:1025600063448C460993130062440792174A9446C9
:1025700063441093FEF718FF56270000142600004E
:102580005727000058270000592700005A2700004D
:102590005B2700005C2700005D2700003C26000050
:1025A000642600008C260000B4260000DC26000013
:1025B000042700002C27000074240000B42500002C
:1025C00060270000C4250000542700006427000095
:1025D000174B21009C46174A6144229194462100E2
:1025E00061442091144922008C4662441E92134A91
:1025F00023009446124A63441C9394462300114AD4
:1026000063441A93944623000F49634417938C46FE
:1026100023006344159322002300FEF720FF2022AD
:102620000398835C0133835400233372FFF7E5F88A
:1026300055270000562700005727000058270000A4
:10264000592700005A2700005B270000F0B5DE463E
:1026500057464E4645468346E0B500689BB0036842
:1026600000269B6898475A46C14BD05806F010FF89
:10267000DE21890506F0BDFE06F02CFFBC4B0500EF
:102680005B440590586806F003FFDE21890506F0DB
:10269000B0FE06F01FFF5B468246186803689B6A1F
:1026A00098475B46040018680368DB6A9847AC46A5
:1026B0000F2364445044E217C1171A400B4012190B
:1026C0001B1812111B11013201330F2D01DD059969
:1026D0000E11514600250F2900DD0D115946496B99
:1026E0008946914200DD91465A46916B994200DD40
:1026F0001900A9422DDD5F4634374E4529DA9D4B3E
:102700000796984653460493059B5E469A46BB46F9
:102710000691079C2A002100584601F039FF03006A
:10272000421C0CD030680499026802915146019114
:10273000414671580091976921002A00B847013439
:102740004C45E7D1069B0135AB42E2D1049BB34631
:102750009A46894B5B441B780B93002B01D100F008
:1027600050FC059806F094FE8F21C90506F041FE45
:1027700006F0B0FE0990504606F08AFE8F21C9058A
:1027800006F037FE06F0A6FE00237C4F069316AB3C
:102790001E000A905F4412AC38E05A460325784B7D
:1027A0005837D258D017830F0890D0182840C01A35
:1027B0004001079206F06CFE8F21C90506F019FE54
:1027C00006F088FE30600898079A0540A818801027
:1027D000400106F05DFE8F21C90506F00AFE06F0F5
:1027E00079FE80239B03B360F36000234A46706048
:1027F0000093156A2300320040460499A847069BBF
:102800000B9A0133DBB206939A4229D023003A0097
:1028100023CA23C312681A602368099A9B1A23608B
:102820000A9A63689B1A63605B46564A9B585A46ED
:1028300012680493904612689146002BADDA524B11
:102840005569169302333268FF3321004046A8478A
:10285000069B0B9A0133DBB2069358379A42D5D1C7
:10286000B0465346494F4A4E5F4444465E4404973F
:1028700012AD089336E003217269D017830F0790D9
:10288000D0180840C01A0001069206F001FE8F2100
:10289000C90506F0AEFD06F01DFE069A032194461A
:1028A00020600798084060448010000106F0F0FDA9
:1028B0008F21C90506F09DFD06F00CFE80235B0309
:1028C000A360E36000236060009353461B6A22000C
:1028D0009A4649462B004046D047049B2036013794
:1028E000B34239D03B78002BF7D03100280000F0FC
:1028F000E3FD059806F0CCFD8F21C90506F079FDB2
:1029000006F0E8FD2B681B1A2B60089806F0C0FD46
:102910008F21C90506F06DFD06F0DCFD6B681D4AD0
:102920001B1A6B605B469B5899465B461B68984632
:102930001B689A464B46002B9DDA53465B6929007B
:102940009946154B4046169322680123C847049BBD
:1029500020360137B342C5D1A046104B104F114C61
:102960005B4445465F445C44049312AE55E0C04668
:10297000B4210000E82B00009C200000442000004F
:10298000282C0000042C000000FFFFFFB4250000ED
:1029900074240000EC2B0000FF0000FF68270000FB
:1029A00054270000D825000003212268D017830F88
:1029B0000790D0180840C01A0001069206F068FD82
:1029C0008F21C90506F015FD06F084FD069A032146
:1029D000944628600798084060448010000106F083
:1029E00057FD8F21C90506F004FD06F073FD802315
:1029F0005B03AB60EB600123227C686013400093B3
:102A000053461B6A2A009A46494633004046D0473F
:102A1000049B28340137A3423AD03B78002BF7D0EF
:102A200021003000143900F0D3FE059806F030FD87
:102A30008F21C90506F0DDFC06F04CFD33681B1A3A
:102A40003360089806F024FD8F21C90506F0D1FCFB
:102A500006F040FD7368624A1B1A73605B469B5820
:102A600099465B461B6898461B689A464B46002B66
:102A70009ADA53465B69310099465A4B40461693A1
:102A80002A680123C847049B28340137A342C4D1D4
:102A90005548089B5844027D9A46A8460023002AC0
:102AA00003D0027A002A00D003E2504A5A440A9224
:102AB000002B06D1137C002B03D0137B002B00D1FD
:102AC000EFE153464A4F4B4C5F445C44069712AECD
:102AD000099341E05A46484BD35804935B461B6820
:102AE00099461B689A46049B002B63DB0325A26969
:102AF000D017830F0890D0182840C01A0001079201
:102B000006F0C6FC8F21C90506F073FC06F0E2FC56
:102B1000414608600898079A0540A81880100001EF
:102B200006F0B6FC8F21C90506F063FC06F0D2FC66
:102B3000802342465B039360D3600023506052467B
:102B40000093156A3300424648460499A847069BFD
:102B500020340137A3423CD03B78002BF7D0210032
:102B6000300001F035FA059806F092FC8F21C90576
:102B700006F03FFC06F0AEFC33681B1A3360099880
:102B800006F086FC8F21C90506F033FC06F0A2FC96
:102B900073681B1A7360637D002B9BD15A46174BD9
:102BA000D35804935B461B6899461B689A46049B5E
:102BB000002B9BDA534642465D69114B3100169358
:102BC000484601231268A847069B20340137A342D8
:102BD000C2D10C4F0C4C5F445C44069712AE57E0D8
:102BE000F02B0000FF8000FF482B0000642B00004A
:102BF000242B000064270000F82B0000F42B0000B9
:102C00008000FFFF5C240000DC2100005A46DF4BFF
:102C1000D35804935B461B6899461B689A46049BED
:102C2000002B63DB0325A269D017830F0890D0180F
:102C30002840C01AC000079206F02AFC8F21C9055F
:102C400006F0D7FB06F046FC414608600898079A54
:102C50000540A8188010C00006F01AFC8F21C90595
:102C600006F0C7FB06F036FC802342461B03936048
:102C7000D3600023506052460093156A33004246E9
:102C800048460499A847069B20340137A3423CD00C
:102C90003B78002BF7D02100300000F0DDFB0598D9
:102CA00006F0F6FB8F21C90506F0A3FB06F012FC27
:102CB00033681B1A3360099806F0EAFB8F21C905B7
:102CC00006F097FB06F006FC73681B1A7360637DC1
:102CD000002B9BD15A46AE4BD35804935B461B68DE
:102CE00099461B689A46049B002B9BDA5346424642
:102CF0005D69A84B31001693484601231268A84726
:102D0000069B20340137A342C2D15946099B0EAD20
:102D1000103128009A4600F011FA059806F0B8FB29
:102D20008F21C90506F065FB06F0D4FB0E9B1B1A2C
:102D300050460E9306F0ACFB8F21C90506F059FBF7
:102D400006F0C8FB5A466B6816681B1A6B60924BFC
:102D5000D75833689946002F00DAC9E00324926AF5
:102D6000D3179A469B0FD0182040C01A0001049236
:102D700006F08EFB8F21C90506F03BFB06F0AAFB8F
:102D80005346049A1C401690A0188010000106F0CB
:102D90007FFB8F21C90506F02CFB06F09BFB434609
:102DA0005860802342465B039360D3605A463023C9
:102DB000D35C01221B07DB0F5340DBB200934B4671
:102DC00042461C6A39002B003000A0475A46734B1C
:102DD0001568D6582B689946002E00DA76E0032451
:102DE0006F4BD758FB179A469B0FF8182040C01A14
:102DF000000106F04DFB8F21C90506F0FAFA06F036
:102E000069FB53461C401290E0198010000106F047
:102E10003FFB8F21C90506F0ECFA06F05BFB80232F
:102E2000802241465B031203169214938B60CB60A1
:102E3000159300234A6000934B4613901C6A31009F
:102E40004346280012AAA0475A4620230821D35CF3
:102E50000CA8544A08F09EF85B4618681C220368C8
:102E60000CA95C6A01235B42169300930B33A047C5
:102E70000A9B1B7C002B0BD15B4618680368DB6840
:102E800098471BB0F0BCBB46B246A946A046F0BD71
:102E90000A9B9B68052B00D99EE0434A9B00D358B0
:102EA0009F469368052B00D9CEE0404A9B00D3583B
:102EB0009F46B0235A469B01D2585B461968534639
:102EC0000093059B01F0BCF80023EEE58023424609
:102ED0001B031693536080235B039360D3604B46C0
:102EE000334A5C694146012328001292A047ABE7B0
:102EF0002F4A5C692900012330001692A04765E73C
:102F00005A462C4BD15880231B031293E02312AC5A
:102F10005B03636080235B03A360E360002966DBDF
:102F20005A46464610680022056816927260B360E1
:102F3000F3600092230042462D6AA8475A461E4B72
:102F4000D35C002B20D01D495B4618681C22036807
:102F50005C6A01235B42169300931F33A0478BE703
:102F60005A46174BD158CEE75A46164BD158CAE7A6
:102F70005A46154BD158C6E75A46144BD158C2E7AA
:102F80005A46134BD158BEE71249DDE7E42B000047
:102F9000E02B0000FFC800FFDC2B0000FC2B000032
:102FA000202C0000A84A01101050011028500110D8
:102FB000FF0000FF182C0000702C0000A04A011038
:102FC0001C2C0000082C00000C2C0000102C000011
:102FD000142C0000A44A011080231B031293E02349
:102FE00012AC5B03636080235B03A360E3605B461A
:102FF0001868174A036821005D6901231692A847E3
:103000009CE716AB98462CE45A46124BD2585B46C6
:10301000196853460A980093059B01F095F850E50E
:103020005A460D4BD258F2E75A460C4BD258EEE7AF
:103030005A460B4BD258EAE75A460A4BD258E6E7B3
:103040005A46094BD258E2E701225242DFE7C04616
:10305000FFFF00FF182C00001C2C0000082C0000B3
:103060000C2C0000102C0000142C0000C823DB03E3
:103070000360436000238360C36003330361002364
:1030800001224361C361202382610732C254704729
:10309000F8B5456904000F1C281C002106F0EEF964
:1030A000002804D0391C281C06F089F96061E0680A
:1030B00006F0EEF9A668051C002E2BDD2022082163
:1030C000A35C0B431A49A354281C06F0C1F900283D
:1030D00004D00523A3610023E361F8BD1549281C32
:1030E00006F0CCF90028F4D1E169381C06F06AF941
:1030F0001149051C06F0BAF9002817D00E49281C02
:1031000006F05DF9E061A0690C21013005F020FABC
:10311000A161E2E7002E04D020220821A35C8B43AA
:10312000D0E70123A3610023E361D6E7E561D4E79B
:10313000000048C20000484200B063450CC943602B
:1031400080235B0302608360C3607047002300221A
:10315000036043608260C36003617047F8B51F1C61
:10316000136806000D0010000321DB681400984767
:10317000002804D020220121AB5C194222D123680F
:103180002000DB680321984720230222EC5C2240C8
:10319000002803D0002A03D00F4803E0002A00D102
:1031A000F8BDF068391C06F00AF90027F060391CF8
:1031B00006F054F90028F3D002239C431E33EC544C
:1031C000F760EDE78B4302210B43AB54024BF360F6
:1031D000C8239B03EB60D2E7CDCC4C3EF8B55746F5
:1031E0004E464546DE46E0B51F1C136804000E003F
:1031F00010000021DB681500984700286CD12B686F
:103200000121DB6828009847431E984196234042DD
:103210001B041840012320221900B060B25C114049
:10322000134262D0524A237262602B6802211B69EA
:10323000280098472023F35C994601234A461A4008
:103240009246002864D04B4B2360002A00D176E0E0
:10325000494B4A46F36001239A431F33F25400233B
:10326000236063602A00310020003B1CFFF776FFDB
:1032700020220421B35C8B43B35423699946002375
:103280004846191C984606F0F9F800280AD0391C5F
:10329000484606F094F84146071C06F0D9F8002885
:1032A0005BD127612B68052128001B6998470028FE
:1032B0000CD00021206906F0D1F8002806D0202289
:1032C0000421B35C0B43B3542C4B2361F0BCBB46CD
:1032D000B246A946A046F8BD01232022190028487D
:1032E000B060B25C114013429CD1237A002B00D015
:1032F0002172391C606806F062F80023191C8046B0
:10330000994606F0A5F8002821D1434663608CE772
:103310002068391C06F053F800232060191C8046F1
:103320009B4606F095F8002814D15346002B17D081
:103330000021404606F0A2F8002893D088E700213B
:10334000606806F09BF8002800D081E78AE74B46CA
:1033500063606AE75B46236084E743462361A1E735
:103360005946606806F08AF80028E1D17AE7C0463D
:103370008FC2F53DCDCCCC3D00003EFECDCC4C3EC9
:1033800000006AFF30B585B003920200029102ACE2
:1033900022CC22C25A425A41084952420A40AF2125
:1033A00049048C4662440021826000220161C260AF
:1033B000027543758261C16105B030BD000044FDF6
:1033C000F8B50D1C8F210400C905281C06F011F862
:1033D00006F080F80600C717A06832003B00C1174E
:1033E00005F0D0FF23680904000C08431B18E068AF
:1033F00032002360C1173B0005F0C4FF6368090475
:10340000000C08431B1821696360281C05F0DAFFD3
:1034100090212061C90506F029F8002801D0012378
:103420002375E169281C05F0CDFF0A49051C06F04B
:103430001DF8002801D1E561F8BD0649281C05F0FA
:10344000BEFFE061A0690C21013005F081F8A161A7
:10345000F2E7C04600C02A450CC9436080231B0325
:1034600002608360C360704730B583B001926C46E0
:103470000200009122CC22C2002B0ED0A023DB033D
:1034800083600023C360013303220274002242617F
:1034900000220377826103B030BD024AC3608260BC
:1034A0000023F1E70000B0FF037C5B1ADBB203747A
:1034B0005A425341D8B270470CC9436080235B0322
:1034C00002608360C3607047F0B54268C64607007B
:1034D0008846016826480F238446D4171C40A41848
:1034E0006244D5171D40AD18BA6800B524112D11DE
:1034F000002A1FDDAC421ADC6144CE171E4076184C
:10350000361102E00134A54211DB220031004046B1
:1035100001F052F80028F5D0164B01229C463B7F63
:10352000360193433B77144B66443E60BB6080BCDE
:10353000B846F0BD002AFAD0AC42F8DCCA171340F6
:103540005E18361102E00134A542F0DB22003100A2
:10355000404601F031F80028F5D001223B7F0136CA
:1035600013433B77A0233601DB033E60BB60DEE7FD
:10357000FFFF0F000000F0FF0000B0FFF0B5DE46D7
:1035800045464E465746E0B5060083B0C0689046B3
:103590000D1C05F07DFF7349041C281C05F029FF54
:1035A000011C201C05F00EFF05F094FFFA23F060CB
:1035B0005B04984200DD180031686B4A337FF0608D
:1035C0008A18DB0702D580235B03CA1888210F23E2
:1035D00049038C46D7171F40BF1872683F116244D9
:1035E000D1170B409C18241122003900404600F0EE
:1035F000E3FF002800D197E0B36899468F21281C8B
:10360000C90505F0F6FE05F065FF4B46C717020039
:103610000400D91748463B0005F0B4FE336809049E
:10362000000C08431B18414630003360FFF74CFF85
:10363000F36822009946D91748463B0005F0A2FEE0
:1036400077680904000C08433F18B1697760281CAB
:1036500005F0B8FE4549041C05F008FF002857D1C5
:10366000B4614B46002B4CDD41490F238C46326838
:10367000D4171C40A4186244D11719408A1812119B
:103680009146241194423CDC802252039246BA4473
:103690006744FA171340DF193F113B0108229C468B
:1036A0006244934601931EE03A002100404600F038
:1036B0009BFF002814D0584605F0EAFE8F21C9056B
:1036C00005F097FE05F006FF274BC3189A4507DB68
:1036D0008023DB02C3189A4502DCF368002B3BDA37
:1036E0000134A1450DDB3A002100404600F064FFA3
:1036F000051ED9D01F4A019B944663447360002382
:10370000F36003B0F0BCBB46B246A946A046F0BD8C
:103710001649201C05F053FEB06170690C21013080
:1037200004F016FF71619CE722003900404600F06A
:103730005BFFB3689946002800D05FE70122337F22
:103740001A4207D11343DBB233774B465B429946AB
:10375000B36053E79343F7E7064BF5609C4660443C
:103760007060CEE70000754C0000FFFF0098AA458E
:10377000FFFF0F000000F0FF30B583B001926C46F0
:103780000200009122CC22C2002B11D0C8239B033F
:10379000836000230122C360052303740023436177
:1037A00000238361C36103622423C25403B030BD8C
:1037B000024AC36082600022EEE7C0460000CEFFEE
:1037C000037C5B1ADBB203745A425341D8B2704790
:1037D0000CC9436080235B0302608360C360704751
:1037E000F0B54268C64607008846016825480F23A1
:1037F0008446D4171C40A4186244D5171D40AD1848
:10380000BA6800B524112D11002A1EDDAC4219DC66
:103810006144CE171E407618361102E00134A542ED
:1038200010DB22003100404600F0C6FE0028F5D033
:10383000154B24229C460121360166443E60BB5C48
:103840008B43BB5480BCB846F0BD002AFAD0AC42D2
:10385000F8DCCA1713405E18361102E00134A542A5
:10386000F0DB22003100404600F0A6FE0028F5D033
:1038700024220121013636013E60BB5C0B43BB5460
:10388000E0E7C046FFFF0F000000F0FFF0B54E4636
:10389000994680234546DE4657461B039C460F2328
:1038A000E0B50E00016887B06144CC171C40641875
:1038B000416824116144CD171D406D18F11719405E
:1038C000881901118846D1170B409A1843461F1BCF
:1038D000FB171211FF182D115F40531B0392DA17CB
:1038E0009B1853409B460123444500DB5B420193F8
:1038F000039B9D4230DA012302935B46FE1A5B4232
:103900009A462A002100484600F056FE002816D1AB
:1039100044451CD073009A4504DA5A46B61A019AF7
:10392000944664449F42ECDD029B21009C46654422
:103930002A004846F61900F03FFE0028E8D0002093
:1039400007B0F0BCBB46B246A946A046F0BD039BFB
:103950009D42DFD10120F3E701235B420293CCE7D4
:10396000F0B5DE46454657464E46E0B5040095B0F4
:10397000C0681F001500884605F08AFDDA49061C5C
:10398000404605F036FD011C301C05F01BFD05F01E
:10399000A1FDFA23E0605B04984200DD1800414677
:1039A000E060E06905F00EFD23683A689A465146EA
:1039B0007E686368E0610293501AF31A9946C11752
:1039C000DB179B4604920B000200059605F0DAFC1B
:1039D0000904060C5B460E434A464846594605F024
:1039E000D1FCC8230904000C08433618DB059E42AD
:1039F00000DCE6E02423E65CB3073ED4BB4B534433
:103A0000F60702D580235B0353440F22DF171740CC
:103A1000FF1888235B039C46029E3F116644F11702
:103A20000A409619361132003900280000F0C4FD12
:103A3000002800D166E12423E35CDB0700D570E1B8
:103A40000123AB4A5B4202920393A94B8F21A360EF
:103A5000C905404605F0CDFC05F03CFDC717020046
:103A60003B0081460298039905F08CFC2368090409
:103A70009A46000C0843824415E04146206A05F04E
:103A80009EFC0021206205F0E9FC002800D093E0B4
:103A90000023A3608F214046C90505F0AAFC05F06C
:103AA00019FD8146C7175346290020002360FFF700
:103AB00097FEE6683B004A463000F11705F062FCCD
:103AC00067680904000C08433F18A1694046676015
:103AD00005F078FC8749804605F0C8FC00285FD1D6
:103AE0004346A361002E54DD83490F228C46236890
:103AF000DE171640F6186344D9171140CB181B1176
:103B00009B4636119E4244DC80235B039946B944B0
:103B10006744F9170A40D219131198461B019C46B5
:103B2000082202932B00624445469246A0461C00A0
:103B300020E02A003100200000F056FD002816D0B9
:103B4000504605F0A5FC8F21C90505F052FC05F093
:103B5000C1FC664BC318994509DB8023DB02C318FF
:103B6000994504DC4346DB68002B00DBEBE00136C3
:103B7000B3450EDB2A003100200000F01DFD071EBA
:103B8000D7D05E4A44469446029B63446360002358
:103B9000E36015B0F0BCBB46B246A946A046F0BDF6
:103BA0005449404605F00BFCA06160690C210130CE
:103BB00004F0CEFC616195E702239E432233E65474
:103BC00066E780231B039C460499059A2B006244F8
:103BD000614420000B920A91FFF758FE2423E65C13
:103BE00023689A4602231A003240334200D044E749
:103BF00063680293002800D100E73B68A260994601
:103C00007F680123D1456CDC9E4324238F21E65439
:103C1000E069C90505F02AFC002800D13AE78023B5
:103C20008021029ADB025344C9028C46069313009A
:103C30006344514607934B465B1A0893F0239B005D
:103C40009C46BF1A1E9A09976244002702E001377A
:103C50001E2F6ED0D35D002BF9D1F0229200944636
:103C600001221E9BDB1963441A70F8231E9A9B00E5
:103C7000D258BA4202D81E997A1CCA50099B0CAE7F
:103C8000079A069930000093089B00F069F830000D
:103C90001E9B7F01DB1946C846C346C846C306C8FB
:103CA00006C38F212423C9054046E65C05F0A1FB2D
:103CB00005F010FC8146C717A0683B004A46C117B3
:103CC00005F060FB236809049A46000C084382440F
:103CD0000023E3610A4B236202231E432423E6549C
:103CE000E1E61E4391E7C0460000754C0000FFFF6F
:103CF0000000CEFF0098AA45FFFF0F000000F0FF74
:103D00000098994632003900280000F06DFC24220A
:103D1000A35C002800D090E6012119421AD10B4380
:103D2000A354C8220023920302920393C8239B0347
:103D30008CE68F214046C90505F05BFB05F0CAFB08
:103D40008146C717C4E7054B44469C466044606003
:103D5000E7601EE78B43A35472E6C0460000F0FF05
:103D600082B0F0B5DE46454657464E46E0B585B0D2
:103D70001F00109B029198460300039202AC06CCF0
:103D800006C300230361C361FB1700229B46434621
:103D90000275DC1782615B463A000500594638001F
:103DA000019405F0EFFA0904060C0E434246230085
:103DB0004046210005F0E6FA0904000C08433618D5
:103DC000002E00DCA4E032149146320492464946AB
:103DD00032005046F31704F009FC30184410A64294
:103DE00059D0C31722005046494604F0FFFB201863
:103DF0004610A6424DD0C31732005046494604F043
:103E0000F5FB30184410A64243D0C3172200504699
:103E1000494604F0EBFB20184610B44239D0C317D2
:103E200032005046494604F0E1FB33185C10A642CC
:103E30002FD0220050464946DB1704F0D7FB20184C
:103E40004610B44225D0C31732005046494604F00C
:103E5000CDFB30184410A6421BD0C3172200504699
:103E6000494604F0C3FB20184610B44211D0C317D2
:103E700032005046494604F0B9FB34186410A6429B
:103E800007D02200E3175046494604F0AFFB241840
:103E90006410002C3CDD5A46E3179A4611043B0C93
:103EA000220019433804534604F0A0FB0600C01753
:103EB0000700310F03010B433201921BBB41D904B0
:103EC000500B0843D604320C03041343994643466F
:103ED000019A1B0C1104194343462200180453464F
:103EE00004F084FB0600C0170700310F03010B43E9
:103EF0003201921BBB41D904500B0843D604030482
:103F0000320C1A434B464946DB175B1ADB0F04E0C1
:103F1000F021C9030123002289462800EA604A46AD
:103F20006B75AA6005B0F0BCBB46B246A946A04678
:103F3000F0BC08BC02B01847F8B50D1C8F21040076
:103F4000C905281C05F055FA05F0C4FA0600C71784
:103F5000A06832003B00C11705F014FA2368090479
:103F6000000C08431B18E06832002360C1173B00B7
:103F700005F008FA63680904000C08431B1821695E
:103F80006360281C05F01EFA0F49206105F06EFAE7
:103F9000002801D001232375E169281C05F012FADD
:103FA0000A49051C05F062FA002801D1E561F8BD57
:103FB0000649281C05F003FAE061A0690C210130D4
:103FC00004F0C6FAA161F2E70000404800C02A45AB
:103FD0000CC9436080231B0302608360C360704789
:103FE00010B582B001926B460200009112CB12C252
:103FF000012303720023C3600023036102B010BDDC
:1040000070B50400237A081C002B13D0216905F039
:10401000D9F90A49051C05F029FA00280BD00749EF
:10402000281C05F0CCF92061E0680C21013004F077
:104030008FFAE16070BD2561FCE7C04600B02A46FA
:10404000F0B54646D6464F460400C0B51800237A60
:104050000D0016008AB0002B50D0802723687F0304
:104060009946636804979846059705F011FA8F21E1
:10407000C90505F0BEF905F02DFA4B46181A029055
:10408000129805F005FA8F21C90505F0B2F905F07F
:1040900021FA4346181A2B6803909846002E33DB0A
:1040A000E368032499464A46DB179A469B0FD018CB
:1040B0002040C01A000105F0EBF98F21C90505F079
:1040C00098F905F007FA53461C4006902000484432
:1040D0008010000105F0DCF98F21C90505F089F990
:1040E00005F0F8F900230093434607901C6A31005D
:1040F00028000897099702AB06AAA0470AB0E0BCBF
:10410000BA46B146A846F0BD034A5C6928000123BF
:10411000069202A9A047F1E700FF00FF0CC9436027
:1041200080235B0302608360C360704730B583B057
:1041300001926C460200009122CC22C283600023CF
:10414000037303B030BDC046F0B54746CE46040009
:1041500080B5277B0D00160018008BB0002F2CD1E6
:104160002368994663688024640398460494059400
:1041700005F08EF98F21C90505F03BF905F0AAF984
:104180004B46181A0290129805F082F98F21C90542
:1041900005F02FF905F09EF94346181A03902B6895
:1041A000002E0FDB06AA06979460D4605760009734
:1041B0001C6A3100280002ABA0470BB0C0BCB94656
:1041C000B046F0BD034A5C6928000123069202A9AB
:1041D000A047F2E7FFFF00FF0CC9436080235B03A9
:1041E00002608360C36070472023D0B5CB5C0C00B5
:1041F000101CDB0720D48F21C90505F0FAF805F063
:1042000069F90600C0170700B10F83000B43B20025
:1042100092197B4110001900160F1B013343020154
:10422000121A8B41100B1905160508430304320CB2
:104230001A43E3689B18E360D0BDC046C8228B6870
:104240001204934202DC054A934200DA8A60962304
:10425000CA689B049A4200DDCB607047000038FFBB
:10426000F0B5DE46454657464E46E0B58BB006AF44
:10427000380088461500FEF761FF0F22069B08985C
:10428000DC171440E4181B18013BD8171040C31862
:104290001B119B464346D868079E241100284BDD1E
:1042A0005C4542DC099B9C466644711E0296CE1713
:1042B000164076183611049333010593083303939F
:1042C00020239A461E3B994632002100280000F028
:1042D00073F9002854D132002100280000F084F93D
:1042E00000281FD0434652469F5C4B463B400193FB
:1042F0004B463B4216D1039805F0CAF88F21C905F9
:1043000005F077F805F0E6F8304B029AC3189A42A8
:1043100008DB8023DB02C3189A4203DC4346DB68D8
:10432000002B47DA0134A345CEDA0BB0F0BCBB4614
:10433000B246A946A046F0BD0028F6D05C45F4DCA4
:10434000F017024096195F46361102E00134A74289
:10435000EBDB32002100280000F02EF90028F5D018
:104360000136300105F094F88F21C90505F041F8B8
:1043700005F0B0F84346424658600023D360D4E7C6
:10438000059805F085F88F21C90505F032F805F08C
:10439000A1F8049B4246C01A434658600023D360EC
:1043A0002022434602219B5C8B4301210B43414663
:1043B0008B54BAE7049B019AC01A4346DA605860EE
:1043C000012352461F4343469F54AEE70000FFFFC0
:1043D000F0B5CE46474680B585B06846884616009B
:1043E000FEF7ACFE0F22019B0398DC171440E41883
:1043F0001B18013BDD171540ED1843469B680099DB
:1044000024112D11002B29DDAC4222DC029B9946A0
:1044100049440139CF1717407F183F1102E001349A
:10442000A54216DB22003900300000F0C5F8002854
:10443000F5D0380105F02CF88F21C90504F0D9FF1B
:1044400005F048F84B46C01A434642461860002320
:10445000936005B0C0BCB946B046F0BD002BF8D0A3
:10446000AC42F6DCCB171A4057183F1102E001347A
:10447000A542EEDB22003900300000F09DF8002854
:10448000F5D00137380105F003F88F21C90504F094
:10449000B0FF05F01FF8D7E7F0B5CE46474680B528
:1044A00085B068461700FEF7D7FF0F230099019AE1
:1044B000C81718404018001181460298D5170918EE
:1044C0000139CE171E40761803991D40AD185218B9
:1044D000013AD1170B409B181B11984636112D112C
:1044E0009D4215DC4C46B14503DD0EE00134A64289
:1044F0000BDB2A002100380000F05EF80028F5D020
:1045000005B0C0BCB946B046F0BD0135A845E9DAF2
:104510000020F5E7F0B5CE46474680B585B0684641
:104520001700FFF755FD0F230099019AC81718408F
:104530004018001181460298D51709180139CE1785
:104540001E40761803991D40AD185218013AD11734
:104550000B409B181B11984636112D119D4215DCFE
:104560004C46B14503DD0EE00134A6420BDB2A00C8
:104570002100380000F020F80028F5D005B0C0BCBC
:10458000B946B046F0BD0135A845E9DA0020F5E7A7
:1045900010B500290DDB03688B420ADD002A08DB19
:1045A0004468944205DD5A4340188018007C40B2AC
:1045B00000E0002010BDC04610B5002911DB0368E3
:1045C00099420EDA002A0CDB4468A24209DA53430E
:1045D00041180B220020CB181B7C9A424041C0B2EC
:1045E00000E0012010BDC04610B5002913DB0368B0
:1045F000994210DA002A0EDB4468A2420BDA5343D8
:10460000411802220020CB181B7C0C3BDBB29A42E3
:104610004041C0B200E0002010BDC046F0B5DE460B
:104620004E4657464546E0B5A74CA5440400080051
:10463000A6490AF0FDFC061E00D11BE1802132AD27
:104640000200490128000AF045FB002800D10EE1D4
:104650002B78002B00D17EE2C92201276A4408E0B2
:104660002C3B59424B410132FF18531E1B78002B43
:1046700001D00A2BF4D1012399461F339A46802199
:104680003200280049010AF025FB002814D02B78BD
:104690000A2BF4D0002BF2D052469343413B192B06
:1046A0000AD9012380219C46320028004901E144B7
:1046B0000AF010FB0028EAD18023DB009F4200DDD6
:1046C000D5E0994500DDD2E00022002130000AF05B
:1046D000BFFC00237E4AA3547E4AA3547E4AA354BF
:1046E0007E4AA3547E4AA3544B464A4663608023C5
:1046F0007A4327609B019A4200DDB8E02000FF2149
:10470000103004F0D5FF00239A46764B994680215D
:104710003200280049010AF0DDFA071E00D1C1E18C
:10472000494628000AF0FCFF0027002812D114E0B7
:1047300009F046FB431C0F2B05D8534622685A4309
:10474000E3199B1818744946002001370AF0E8FF66
:10475000002802D02368BB42EADC01239C46636840
:10476000E2445345D3DC604B994680213200280057
:1047700049010AF0AFFA002800D18EE15B4B2A68AC
:104780009A4200D17FE05A4B2A689A4200D1D3E086
:10479000584B2A689A4200D14CE1564B2A689A42FB
:1047A00000D18FE1534B2A689A4200D1C3E1524BAA
:1047B0002A689A4200D1D0E1504B2A689A42D4D15B
:1047C0004F4B6A689A42D0D14E4B2A899A42CCD13B
:1047D000D2201CAF4C4900970CAB0BAA68440AF0DE
:1047E000F5FC82460328C0D1484B1C9A9A4200D15E
:1047F000E3E1474B1C9A9A4200D1E5E1454B1C9AF4
:104800009A4200D1EFE1380043490BF069F80028E3
:1048100000D1E6E1380041490BF062F8002800D1F0
:10482000DDE138003E490BF05BF8052700289CD1FC
:104830002B4B9846E35C002B97D18F210C98C90530
:1048400004F0D7FD04F046FE8F218246C9050B987F
:1048500004F0CFFD04F03EFE5246324BE050324BA6
:10486000E250324B4246E7500123A3547DE730002B
:104870000AF0E0F800202E4B9D44F0BCBB46B24647
:10488000A946A046F0BD2B4BAA889A4200D07AE7F1
:10489000CE2015491CAB0CAA68440AF097FC0228EC
:1048A00000D062E78F211C98C90504F0A2FD04F036
:1048B00011FE8F210700C9050C9804F09AFD04F041
:1048C00009FEE760A06050E734EFFFFFAC4A01103B
:1048D00068200000BC200000602100006C21000066
:1048E00078210000B04A0110BC4A011053504157D2
:1048F000504F5254454E454D4845414C4F424A4514
:104900004354495645200000284B0110434841526A
:10491000454E434C48415054504B0110584B0110E8
:10492000604B011070210000742100007C21000008
:10493000CC1000004E200000B04BAA889A4200D054
:1049400026E7AB79202B00D022E7CF200BAB0493D6
:104950000AAB03930CAB9846029309AB019308ABE7
:104960000093A74907AB06AA68440AF02FFC072862
:1049700000D0FAE68F210798C90504F03AFD04F04B
:10498000A9FD8F218346C905089804F032FD04F083
:10499000A1FD8F210700C905099804F02AFD04F044
:1049A00099FD8F218246C905069804F022FD04F086
:1049B00091FD5B461D93534669461F9370231C90DF
:1049C0001E97C9180020002300224F27C855309297
:1049D000319341463F3220A80AF074FE894BE15CD6
:1049E0008A46072900D9C0E60B990A98884651469D
:1049F0004A1CE2546946702200238A188F21D3553D
:104A0000C90504F0F6FC04F065FD8F213090C9055E
:104A1000404604F0EEFC04F05DFD53463190582012
:104A20005843794B20189C46582260441CA904F036
:104A300045FE9AE6754B6A689A4200D0ADE6744B23
:104A4000AA689A4200D0A8E649461CAB0CAA35A831
:104A50000AF0BCFB022800D087E66E4BE75C984664
:104A6000182F00D981E68F210C98C90504F0C1FCEC
:104A700004F030FD8F218246C9051C9804F0B9FC72
:104A800004F028FD42467B1CA3545246624BFF00B3
:104A9000E719FA50614BF85067E6300009F0CAFF99
:104AA0000120E8E6300009F0C5FF564BE754594BAA
:104AB000E7545B4BE7545B4BE7545B4BE754276091
:104AC0006760D7E6594B6A689A4200D06AE6584B4D
:104AD000AA689A4200D065E62B7B202B00D061E6C5
:104AE000D52054491CAB0CAA68440AF06FFB02287D
:104AF00000D03AE64A4BE75C9846132F00D934E6DB
:104B00008F210C98C90504F074FC04F0E3FC8F219C
:104B10008246C9051C9804F06CFC04F0DBFC42469C
:104B20007B1CA35483235246FF00E7199B01FA50D4
:104B3000414BF85019E6414BAA889A4200D036E61C
:104B4000CE203C491CAB0CAA68440AF03FFB02286B
:104B500000D00AE681E701278DE5394B6A689A4261
:104B600000D029E6374BAA689A4200D024E63149A2
:104B70001CAB0CAA35A80AF029FB022800D0F4E5EA
:104B8000284B9A46E35C002B00D0EEE58F210C9871
:104B9000C90504F02EFC04F09DFC8F210700C90517
:104BA0001C9804F026FC04F095FC01235246A35403
:104BB000254BE750254BE050D7E5254B7A689A42C4
:104BC00000D016E6002733E6224B7A689A4200D0DE
:104BD00014E63B89452B00D010E6012728E6042780
:104BE00026E6574624E61C4BBA889A4200D00AE6CD
:104BF000BB79002B00D006E6022719E6414C0000E5
:104C0000CC4A01106820000010200000595F42418A
:104C100053494320BC2000006C200000702000009D
:104C2000602100006C21000078210000595F524192
:104C30004E474544BC4A0110C420000059200000E2
:104C400054485F5041434B2064210000682100001C
:104C5000474552004F53555249430000F0B5DE46D8
:104C600057464E464546E0B59DB01400269A834609
:104C70009246002900D153E1002A00D150E1002CD6
:104C800000DC4DE1002B00DC4AE11A008025624384
:104C90000020AD01AA4200DD43E15E46AC4D7055F7
:104CA000AC4DA9465D464E46A855AB4EA8555E464E
:104CB000AA4D7055AA4D7055584634607360103037
:104CC00004F0FCFC53468F215868C90504F091FBA1
:104CD00004F000FC53468F210400C905186804F055
:104CE00088FB04F0F7FB5346F460B0601A7B0026A3
:104CF0000024002A28D155E05B4649465F5C182F06
:104D00001BD88F212868C90504F073FB04F0E2FB6F
:104D10008F218046C905686804F06BFB04F0DAFB5C
:104D20005A4649467B1C535442468E4BFF005F4413
:104D3000FA508D4BF85053461A7B0134E4B294423A
:104D400030D20C362D2C2DD053469D68AD192B7AC0
:104D5000002BD1D0012BF0D159467F4BCF5C132FC4
:104D6000EBD88F212868C90504F043FB04F0B2FB9F
:104D70008F218046C905686804F03BFB04F0AAFB5C
:104D80005946754A7B1C8B5483234246FF005F447F
:104D90009B01FA50754B0134F85053461A7BE4B22C
:104DA0009442CED353461B7D002B1CD053468F21FB
:104DB0001D69C905286804F01CFB04F08BFB8F21DA
:104DC0000400C905686804F014FB04F083FB5B462B
:104DD0005D46624A9B5C591CA954DB00644A5B44F3
:104DE0009C50644A985053461B7F002B69D0002387
:104DF00000269846564F06AC53468F219D69C9053B
:104E00004544286804F0F5FA04F064FB8F21019012
:104E1000C905686804F0EDFA04F05CFB8F2102908C
:104E2000C905A86804F0E5FA04F054FB8F2103904B
:104E3000C905E86804F0DDFA04F04CFB04902B7C13
:104E4000002B00D174E000229146012B00D177E0C5
:104E50008F216869C90504F0CCFA04F03BFB8F216F
:104E60000590C905A86904F0C4FA04F033FB5B4659
:104E70005946DB5D60655A1CCA55019A00212260C3
:104E8000029A01366260039AF6B2A260049AE26066
:104E90004A4622744F22A154059A210022655822C5
:104EA00053435B441800344B9C46604404F006FCBA
:104EB00053461B7FB34204D91C239C46E044082E72
:104EC0009AD124235246D35C002B27D08F21166A17
:104ED000C905706804F08DFA04F0FCFA8F215A4677
:104EE0001F4BC90507003068D45C04F082FA04F057
:104EF000F1FAE500214B5D44E850214BEF50214B86
:104F0000317AE3189B005B440A1C052900D905226D
:104F1000D2B25A605A46124B0134D454012000E0F8
:104F200000201DB0F0BCBB46B246A946A046F0BD6D
:104F30003F2215490AA80AF0C5FB237C994687E75A
:104F400012493F320AA80AF0BDFB237C99467FE74D
:104F500068200000BC200000602100006C210000DF
:104F6000782100006C20000070200000C4200000A8
:104F70006421000068210000102000007021000062
:104F8000742100005E08000090480110684B011079
:104F90000023294A70B58354284A04008354284AC0
:104FA00010348354274A05008354274AFF21835431
:104FB000802240330360203B43601201200004F054
:104FC00077FBF223DB0080220421E81804F070FB59
:104FD000812304221B01E918227040348C42FBD14A
:104FE0001A4A2B00A91804224F331A7040338B42FF
:104FF000FBD1174B0A22E8180D2104F059FB154B81
:105000000A22E8180D2104F053FB134B0A22E8187A
:105010000D2104F04DFBEF220D23D200AB540F4ABB
:10502000AB540F4AAB540F4AAB540F4AAB54C8238E
:10503000DB03AB60EB6070BD68200000BC200000AB
:10504000602100006C210000782100004F08000062
:105050009A060000A9050000C206000039070000FA
:10506000FA060000BB0600007C0600000023444A4C
:10507000444910B58350821853609360D360435005
:1050800041184B601374404A040081184A0741D10B
:10509000002300220A604B603C4941180A604B60C3
:1050A0003B4941180A604B603A4941180A604B601D
:1050B000394941180A604B60384941180A604B6011
:1050C000374941180A604B60364941180A604B6005
:1050D000354941180A604B60344941180A604B60F9
:1050E00083239B01E318620740D100200021304A4E
:1050F000A21803C39A42FCD100232E4A2000A350D9
:10510000A21853602C4AA350A2185360FFF740FF27
:10511000200010BD1C4A83501C4A4B6083508218EB
:1051200053601B4A8350821853601A4A8350821876
:105130005360194A835082185360184A835082186A
:105140005360174A835082185360164A835082185E
:105150005360154A835082185360144A8350821852
:10516000536083239B01E3186207BED0104AA11845
:1051700000221A605A6008338B42FAD1BCE7C0465D
:1051800010200000602000006C200000742000004F
:105190007C200000842000008C200000942000006F
:1051A0009C200000A4200000AC200000B4200000DF
:1051B00060210000642100007021000000230360D2
:1051C00043608160C26070478368F0B557469A4675
:1051D000C368DE469B4680234E4645461B039C46DD
:1051E000E0B503680E684D6883B0040050469146F0
:1051F00066446544984604F04BF9FC21890504F0A7
:10520000F8F88F21C90504F0F4F804F063F90300FD
:1052100058464344019304F03BF9FC21890504F00E
:10522000E8F88F21C90504F0E4F804F053F9019A75
:1052300067689446274B284AC019634482189E42E7
:105240003EDAF31A9844954231DAAA1ABF184B464F
:105250005D685B462D01ED1A4B4618685346000108
:10526000C01A04F015F98F21C90504F0C2F804F042
:1052700031F9404500DD4046C343DB17184020604C
:10528000280004F005F98F21C90504F0B2F804F0F4
:1052900021F9B84200DD3800C343DB1718406060D5
:1052A00003B0F0BCBB46B246A946A046F0BDF02311
:1052B0005B039C4660448542C9DD2D1A7F19C6E711
:1052C000A02189038C46019B63449E42BBDDF61AF4
:1052D000B044B8E70000D8FF0000E2FF10B5164C5C
:1052E000A54406F069F80FA800F038FF04A801F003
:1052F00069FD06AC03A801F0D7FD200001F034FEE3
:1053000003AB04AA0FA9009467A8FAF7E3FF67A804
:10531000FBF75EFD094B402200930949202374A846
:10532000FFF79CFC200001F0E5FD67A8FBF75EFE9F
:1053300067A8FDF78BF9F5E7F0D1FFFF40500110AA
:10534000BC500110A02040007047C046F0207047BC
:105350007047C046F0B5C64600B51E00DBB205007A
:105360008AB00F2B4BD8119B0901CC1A2100A8231E
:1053700010315B00994242D2129B1201D31A984617
:105380001033FF2B3BD803203040000104F080F89D
:105390008F21C90504F02DF804F09CF80290B0109C
:1053A000000104F075F88F21C90504F022F804F01B
:1053B00091F8802680270390760320007F030496CF
:1053C000059704F065F88F21C90504F012F804F080
:1053D00081F80690404604F05BF88F21C90504F07F
:1053E00008F804F077F800222B6800921C6A0790F6
:1053F000089609972800109906AB02AAA0470AB0A0
:1054000080BCB846F0BDC04610B50B780C0082B029
:10541000002B05D10BE05C2B05D00B78002B06D0C0
:1054200001312F2BF7D10B780C00002BF8D1200085
:1054300044490AF055FA002863D0200042490AF096
:105440004FFA00285FD0200040490AF049FA0028AE
:105450005BD020003E490AF043FA002857D02000D4
:105460003C490AF03DFA002853D020003A490AF09E
:1054700037FA00284FD0200038490AF031FA0028C6
:105480004DD0200036490AF02BFA002849D02000E0
:1054900034490AF025FA002845D0200032490AF0A4
:1054A0001FFA002841D0200030490AF019FA0028DC
:1054B00033D020002E490AF013FA002837D02000FC
:1054C0002C490AF00DFA002833D020002A490AF0AE
:1054D00007FA00282FD0200028490AF001FA0028F6
:1054E0002BD0200026490AF0FBF9002827D0200005
:1054F00024490AF0F5F94342434111205B42184028
:10550000013802B010BD0120FBE70220F9E70320BB
:10551000F7E70420F5E70520F3E70A20F1E7062086
:10552000EFE70720EDE70820EBE70920E9E70B208C
:10553000E7E70C20E5E70D20E3E70E20E1E70F2089
:10554000DFE7C046804B0110944B0110A84B0110BF
:10555000BC4B0110D84B0110E44B0110F44B01106F
:105560000C4C0110244C0110304C0110404C011027
:10557000584C01106C4C0110804C0110944C0110DF
:10558000A44C0110B84C0110F0B54F464646D64623
:10559000C0B50127A82314003A005B009946C35800
:1055A00082B09A401300D02212069361A62390463F
:1055B0003A005B00C35805009A40130042469361CD
:1055C0002C236A46D3711D33FF33C0586B460E003F
:1055D0000122D91D0FF008F94B46EB58A0219F403E
:1055E00043465F6173BA1B041A0C1A431D4B8900B2
:1055F0009946494404C39942FCD1002C22D0A023EF
:105600005B0098461C339C4680235B04270044457E
:1056100001D9A0277F006246A021AA58C90592019E
:1056200056181149501801681942FCD17900B1602F
:105630004946F1630C498A46524411681942FCD12B
:10564000E41BE3D1A6235B00EA584C3BFF3B9340AD
:10565000D0221206536102B0E0BCBA46B146A84659
:10566000F0BDC046D81D00201000005070B5AE251A
:105670000E4B6D0004000360405908F097FB0028B2
:1056800011D001236059A0218340094AC9058B50DC
:10569000084B80219C4682016244490413680B42F6
:1056A000FCD108F067FB200070BDC046C458011053
:1056B000440400000C00005070B5AE25104B6D0086
:1056C00004000360405908F071FB002811D0012349
:1056D0006059A02183400B4AC9058B500A4B802199
:1056E0009C4682016244490413680B42FCD108F0D5
:1056F00041FBB0212000490003F0E6FF200070BD0F
:10570000C4580110440400000C000050F0B5D64607
:105710004F464646C0B5384B86B00493EF231B0670
:10572000012505936A462A23D3732A002733FF33C2
:105730009946C358D0269A40A62336060191B261F5
:105740002A005B009A46C35804009A40A4235B00D9
:105750009846C0583A3BFF3B6B441900B2610122A6
:105760000FF042F84B462A00E35804A99A404346FA
:105770007261E05804220FF037F853462A00E358CC
:1057800069469A40726113002B22CA734A46290067
:10579000A25801AF9140B161B3614346E0583A3B32
:1057A000FF3B6B44190001220FF01EF84B462A0004
:1057B000E35805A99A4043467261E05804220FF06D
:1057C00013F85346E358FC209D40962275613B78C0
:1057D0007978C000DB08C9000140DB020B43B978CF
:1057E0002000C90819435202FFF7CEFE06B0E0BC04
:1057F000BA46B146A846F0BD0000013FF0B5D64616
:105800004F464646C0B5040084B0002B6DDDA02095
:105810004000814269D2EF2A67DC9B18013B64D4C7
:10582000D043C0170240EF2B00DDEF239A425CDC2F
:105830000812C9B20F02C0B200250604384303AFF4
:105840007A70FB706A462A233D70BD700135D371B2
:105850002A002733FF339946E3583043D0269A4035
:10586000A6230906360608430290B2612A005B00AF
:105870009A46E3589A40A4235B009846E0586B464A
:10588000B261D91D01220EF0AFFF4B462A00E3584A
:1058900002A99A4043467261E05804220EF0A4FF28
:1058A00053462A00E35869469A40726113002B223E
:1058B000CA714A462900A2589140B161B36143467A
:1058C000E0586B460122D91D0EF08EFF4B462A0090
:1058D000E35839009A4043467261E05804220EF0C2
:1058E00083FF5346E3589D40756104B0E0BCBA465F
:1058F000B146A846F0BDC046F0B557464E464546AF
:10590000DE46E0B581460C0092461D0089B00029B4
:1059100000D1B2E00B78002B00D1AEE0FC2612A83B
:1059200042780178D200C908F6003240C90211431A
:1059300082780595D2080A4352BA06A9CA80A022E5
:10594000520093465246CA46029209E020229343EF
:10595000582B00D198E063780134002B00D18CE003
:10596000202B00D181E01A00303AD1B2D2000929AF
:10597000ECD8059B56461900D21A0193434B0831C7
:10598000994691444B468A4604940393039B019A9B
:1059900000249B5C80279846D146029D3B004246EE
:1059A000E3401A4255D05D4553D2019AEF2A50D8B0
:1059B000012329003000FFF721FFA82301225B000B
:1059C000F35806A99A401300D02212069361A62329
:1059D000924601225B00F35805319A40130052466B
:1059E00093612C2306AA53711D33FF330122F05813
:1059F0000EF0FAFEA82301225B00F35880219A40A2
:105A0000130052465361AE235B00F258A023DB051E
:105A10009C461F4B92019444D018490403680B42E2
:105A2000FCD1614602238B60634606A90631D96327
:105A3000174B80219C464904624413680B42FCD1F9
:105A4000A6235B00F2584C3BFF3B9340D02212064A
:105A5000536101340135082CA0D1019BCA460133A2
:105A60000193994592D1B246049C029B01340833BC
:105A700002932378002B00D072E709B0F0BCBB463C
:105A8000B246A946A046F0BD303272E7F458011084
:105A900010000050F0B5DE4657464E464546E0B58C
:105AA0000126AA2732007F00C359D0259A4004005E
:105AB0002D0695B005206A6102F0C6F83200E35960
:105AC00014209A40AA6102F0BFF83200E3599620F0
:105AD0009A406A6102F0B8F810AB99461E70A8238C
