:020000041000EA
:10000000002008205D0100101B0100101D010010E0
:100010001101001011010010110100101101001058
:100020001901001019010010190100101F01001022
:10003000110100101901001021010010230100100E
:100040001101001011010010110100101101001028
:100050001101001011010010110100101101001018
:100060001101001011010010110100101101001008
:1000700011010010110100101101001011010010F8
:1000800011010010110100101101001011010010E8
:1000900011010010110100101101001011010010D8
:1000A00011010010110100101101001011010010C8
:1000B00011010010110100101101001011010010B8
:1000C00011010010110100101101001011010010A8
:1000D0001101001011010010110100101101001098
:1000E0001101001011010010110100101101001088
:1000F0001101001011010010110100101101001078
:100100001101001011010010110100101101001067
:10011000EFF30580103800BE00BE00BE00BE00BE7A
:1001200000BE00BEF2EB88712C5902104C5902102F
:10013000A001001090A31AE7D3DEFFFF42012110B7
:10014000FF010000BC6F0200793512AB4FF00000D8
:100150001E49086006C881F3088810474FF05040D8
:10016000006810B14FF00000F2E70DA40ECC00299A
:1001700002D000F012F8F9E71549164A002000E015
:1001800001C19142FCD11449884714498847144958
:10019000884700BEFDE701C901C29A42FBD3704700
:1001A0004C59021010010020B8180020F470021001
:1001B0000000082000000820F47002100010082041
:1001C00000100820000000007047000008ED00E06B
:1001D000B81800205C260020ED870010794200103E
:1001E000E5870010F8B500BF064B0749C91A89100A
:1001F00048BF0131491003D0044B0BB101481847E7
:10020000704700BFB8180020B81800200000000098
:1002100008B5054B1BB105490548AFF30080BDE8A3
:100220000840FFF7E1BF00BF00000000EC25002000
:10023000A0D500102DE9F84F05460C462DED028B98
:100240000C9EC0E90012C0E90236103002F018F826
:1002500005F1340003F068FF23682046DB6A984705
:100260000146236820461B6B0C469847024605F55D
:10027000085021461C3003F08DFF05F50850303042
:1002800002F072F80021002205F5095305F513501C
:10029000043304301A61DA6199829961C3E900116B
:1002A000C3E9021120338342F4D142F2C44C00204E
:1002B000032705F5005605F5135205F51D54C6F83C
:1002C000D8143C3245F80C103C3459609960D96020
:1002D000196102F8107C02F8040C42E9080042E9B6
:1002E00006002032A242F4D105F513511C310B4611
:1002F000002005F51D521C32586120339A42FBD173
:1003000000238B6120319142FBD1002242F25C7CC0
:100310000527002005F51D5305F52A54C6F870275A
:10032000343345F80C2014344A608A60CA600A618C
:100330009861D86118621F745A6183F82420C3E958
:100340000022C3E902222833A342F1D142F69427C6
:1003500000249FED6C8A05F52A5005F53951C6F841
:10036000A82A2C30EA512C315A609A60DA601A615E
:1003700080ED048A80ED078A84828461C0E90044AC
:10038000C0E9024420308842F2D100211E22C6F882
:100390008C4E0CF099FA052306F5696205F53B5081
:1003A00042F6107BC6F8904EC6F8944E86F8984EEA
:1003B000C6F89C4E043082ED048AC6F8B43EC6F8F6
:1003C000A84E86F8A44EC6F8AC4EC6F8B04E86F8D5
:1003D000B84EC6F8C04E86F8BC4E02F0BDFE42F6DE
:1003E000207A05F53B5042F63079183002F0B4FE21
:1003F00042F6507805F53B5042F660772C3002F01B
:10040000ABFE42F6707E42F688724FF0FF3305EB8A
:100410000B0CC6F8044FA6F8004F86F8024F4CE9C3
:10042000024445F80B40CCF8044005EB0A0C4CE9BB
:10043000024405F53D5045F80A40CCF8044005EB70
:10044000090C4CE9024445F80940CCF8044040E965
:100450000244C0E9004405EB080040E9024445F8C5
:1004600008404460E81940E9024405F53E51EC516A
:10047000446005EB0E0040E9024445F80E4044603C
:1004800041E90244C1E90044C6F8904FAC502A4407
:100490005460C6F89C3FC6F8A03FC6F8A43FC6F813
:1004A000A83FC6F8AC3FC6F8B03FC6F8B43FC6F8A0
:1004B000B83FC6F8BC3FC6F8C03FC6F8C43FC6F850
:1004C000C83FC6F8CC3FC6F8D03FC6F8D43FC6F800
:1004D000D83FC6F8DC3F06F6E473C6F8E04F83ED7C
:1004E000008A06F6EC73C6F8E84F83ED008A05F53E
:1004F00040531C8686F8F04F2846BDEC028BBDE8C1
:10050000F88F00BF0000000038B504460068444979
:10051000036804F50055DB699847236841491A6868
:10052000C5F89C0F1846D369984723683E491A6856
:10053000C5F8A00F1846D369984723683B491A6845
:10054000C5F8A40F1846D3699847236838491A6834
:10055000C5F8A80F1846D3699847236835491A6823
:10056000C5F8AC0F1846D3699847236832491A6812
:10057000C5F8B00F1846D369984723682F491A6801
:10058000C5F8B40F1846D369984723682C491A68F0
:10059000C5F8B80F1846D3699847236829491A68DF
:1005A000C5F8BC0F1846D3699847236826491A68CE
:1005B000C5F8C00F1846D3699847236823491A68BD
:1005C000C5F8C40F1846D3699847236820491A68AC
:1005D000C5F8C80F1846D369984723681D491A689B
:1005E000C5F8CC0F1846D369984723681A491A688A
:1005F000C5F8D00F1846D3699847236817491A6879
:10060000C5F8D40F1846D3699847236814491A6867
:10061000C5F8D80F1846D3699847C5F8DC0F38BD20
:10062000A0D50010C0D50010E0D5001000D60010F5
:1006300028D6001040D6001058D6001078D60010EA
:1006400098D60010B0D60010CCD60010ECD6001012
:1006500008D7001028D7001044D7001060D700102A
:100660007CD700102DE9F04F00250026834642F28A
:10067000C44142F25C7742F694248DB04562006C2E
:10068000CBF81C60CBE905064BF801609BF8300005
:100690000BF5005520F001008BF83000DBF83C0032
:1006A0005944CBF810000BEB07004E608E60CE6013
:1006B0000E61C5F8D8640BEB04014BF80760466087
:1006C0008660C66006610BF53950C5F870671E225A
:1006D0004BF804602C304E608E60CE600E61314667
:1006E000C5F8A86A0CF0F0F842F68872C5F88C6E6E
:1006F00085F8A46EC5F8A86E85F8BC6EC5F8C06E06
:10070000A5F8006F85F8026FC5F8046F4BF802601A
:100710005A44566095F840210BF11004C5F8906FCB
:10072000C5F8946FA5F8986F002A41D042F2DC4AD0
:100730000BF5025620360BF51D5906EBC20809F1E0
:100740001B0901944B46002402E00134142C2BD0E9
:1007500013F8012F002AF8D14FF00101D5F87037B6
:100760002A19A34298BF631C82F85C170AEB441451
:1007700098BFC5F8703796E80600012302A801F07B
:1007800075FF0BEB04070DF1080CBCE80F004BF8EC
:1007900004007960BA60FB60BCE807009CF8003098
:1007A00038617961BA613B7708364645CAD1019C08
:1007B00095F8E421002A49D042F2747A0BF50557E6
:1007C00004370BF52A5907EBC20809F11309019404
:1007D0004A46002302E00133142B33D012F8011FE4
:1007E0000029F8D14FF00100D5F8A82AE9189A425B
:1007F00098BF5A1C03EB830381F8940A98BFC5F88D
:10080000A82A0AEBC3020BEB0206012397E80600B5
:1008100002A802F04DF902AC0DF1280EA4461036E4
:10082000BCE80F00F44504F1100446F8100C46F83B
:100830000C1C46F8082C46F8043CEFD120683060C8
:100840002379337108374745C2D1019C95F8F821C7
:100850004AB30BF5075802F1FF3995F8A43E08F1A9
:1008600028085FFA89F94FF0010A08EBC909D3B9E2
:10087000D5F8A83E02A885F8A4AE0BB9C5F8A8AE75
:1008800098E8060002AF05F5696602F001FE0FCF99
:100890000FC63B68C145336005D095F8A43E08F10A
:1008A0000808002BE4D000220BF5405686F83020D3
:1008B00095F80422A2B302F1FF390BF5085895F818
:1008C000BC3E5FFA89F908F108080BF507574FF0AD
:1008D000010A08EB89093C3713BBD5F8C03E02A8D2
:1008E00085F8BCAE0BB9C5F8C0AE97E80600D8F8DD
:1008F000003002F04FFE02AB07CB1B78C14507F179
:100900000807C5F8AC0EC5F8B01EC5F8B42E85F8BA
:10091000B83E05D095F8BC3E08F10408002BDCD0A9
:1009200095F81882B8F1000F14BF0122002286F852
:10093000312017D04FF001090BF5085614360BF58E
:10094000085706EB88080C3795F8003FABB195F8CF
:10095000013FABB395F8023FB3B30436B04507F19E
:100960000807F1D121460BF508500BF134021C3079
:100970000DB0BDE8F04F03F017BC9A460121D5F841
:10098000043F05EB0A02534582F8009F336898BF85
:10099000C5F8041F02A897E8060002F0E9FB0AEB7D
:1009A0008A0305EB830C0DF1080E0CF6C46CBEE84F
:1009B0000F00ACE80F00DEF80030CCF80030CCE7D8
:1009C0004FF0010A0221DAE703214FF0020AD6E7CD
:1009D00010B5044651B100F53F503F2230300BF0C6
:1009E000C1FF002204F5405383F82F202046BDE8C4
:1009F0001040FFF737BE00BF70B50E46044682B008
:100A000030461E490CF048F9E0B11D4964230091BD
:100A100028221C4904F1340003F09EF9054675B103
:100A200004F53F503F22314630300BF09BFF00224F
:100A300004F54053204683F82F20FFF713FE284685
:100A400002B070BD304610490CF026F950B10F4984
:100A50003C23009164220E4904F1340003F07CF938
:100A60000546DCE70B492023009140220A4904F1A6
:100A7000340003F071F90546D1E700BF98D70010A4
:100A800024F40010FCF40010A0D70010E8DB0010E4
:100A9000B4DC00109C04011020050110F0B50546DF
:100AA00085B0684605F1100101F052FC05F50050D3
:100AB00090F89C30002B39D0029A009C05F501512A
:100AC00004EB020E5822043102FB031C019E039F1B
:100AD00037440A688B681344A34224DD724522DA46
:100AE0004A68CB6813449E421DDABA421BDA90F87A
:100AF000BC3EEBB990F8003F13B190F8D03EABB9D3
:100B000090F8013F13B190F8E43E7BB990F8023FB2
:100B100013B190F8F83E4BB92846103105B0BDE846
:100B2000F040FFF769BF58316145D2D105B0F0BD43
:100B300005F5405393F83030002BF7D090F8003F84
:100B4000002BDDD0D9E700BF2DE9F04F2DED048B50
:100B50000746C3B00290C06807F5085403682C34F8
:100B60009B689847786803689B689847F8680368AB
:100B7000DB68984707F110038246984607F508504E
:100B800019467A6804933030534601F03FFC5246D0
:100B90004146204602F056FD4146204602F068FDDF
:100BA00007EE90AAFEEEC87A17EE905A07F50852A3
:100BB00002F12D0007F1340293468146BB693C697E
:100BC00085FB03361B0C43EA06431C4441463C614B
:100BD0000790039202F0DAFEFB69414685FB03238E
:100BE000120C42EA03427B6948461A447A6197F83C
:100BF000302007F53B5622F0010287F830205A4694
:100C000002F04EFD07F53B520432144605923F3682
:100C100007F53C5507F5005816F8013FB3B3237BA1
:100C2000A3B3607B90BB4FF001092368626803F5B2
:100C3000801B3B69796902F5801C4FEAE37EB3EBC8
:100C40000B026EEBEB7EB1EB0C034FEAE17161EB53
:100C5000EC7103FB01F1A3FB033C02FB0EFE0CEB6A
:100C6000410CA2FB02211B0C01EB4E01120C42EACB
:100C7000014243EA0C439B184FEA21424B4942EBA5
:100C80002C42994279EB020280F215851434AC4271
:100C9000C2D10022002398F8884FCDE92223CDE964
:100CA0002423CDE92623CDE92823CDE92A23CDE944
:100CB0002C23CDE92E23CDE93023CDE93223CDE914
:100CC0003423CDE93623CDE93823CDE93A23CDE9E4
:100CD0003C23CDE93E23CDE9402334B1012408F67D
:100CE000087322AD0FCB85E80F0098F8893F002BE1
:100CF00040F0298498F88A3F4BB142AB03EB0415CE
:100D0000803D08F628730FCB85E80F00013498F872
:100D10008B3F4BB142AB03EB0415803D08F63873B3
:100D20000FCB85E80F00013498F88C3F4BB142ABF4
:100D300003EB0415803D08F648730FCB85E80F00E0
:100D4000013498F88D3F4BB142AB03EB0415803D65
:100D500008F658730FCB85E80F00013498F88E3FE2
:100D60004BB142AB03EB0415803D08F668730FCB23
:100D700085E80F00013498F88F3F002B40F0D883AE
:100D80002346049C22AA2146079802F06FFE514692
:100D9000204601F08BFA029B93F8301003F51353B1
:100DA00003334A07069331D5002404E0FFFF8F5F29
:100DB0000134142C2AD013F8012F002AF8D101266F
:100DC000D8F8D854029A08EB0403A542D2E90402E9
:100DD00083F8C4649CBFA319C8F8D834C1F3C00316
:100DE00000EB035002F580221090119208EB44149E
:100DF00010AA06CA22A804F5117422AD01F0BAFBAC
:100E00000FCD0FC495E80F0084E80F00029CB8F9DD
:100E10001E32206808EE103AB8F92232012509EE98
:100E2000103A0368DB6A984708EE900A2068036866
:100E30001B6B9847234609EE900A069E04F509525B
:100E4000141D03F5135B079FDDF80C9008940D96B5
:100E50000BF1170B16F8013F9BB35146204601F0EA
:100E6000A9FB4A462146384602F072FEF8EEC87ADF
:100E700000B12575B0EE677ABEEEC87A17EE103A6B
:100E800022689A421CDBF8EEE87AFEEEC87A17EE8A
:100E9000901A1944914213DBF8EEC97AB0EE677AE2
:100EA000BEEEC87A17EE103A62689A4208DBF8EE96
:100EB000E97AFEEEC87A17EE901A1944914200DAE8
:100EC00025755E4504F12004C4D1D8F87037BBB154
:100ED0000024029A02F5135602F51D551C361C35E6
:100EE000132C08D82A5D32B151463046039A01F0DE
:100EF00051FDD8F8703701349C4206F12006EFD33B
:100F0000D8F8A83A002B00F0B0840024029A02F529
:100F10001D5702F52A5602F52A5534372C3614355A
:100F2000132C0AD82A5D42B1DDE903235146384625
:100F3000009601F0C3FFD8F8A83A01349C4207F1AB
:100F40002807EDD398F8003F5BB198F8D03E43B145
:100F500098F8D13E2BB1DDE903235146059802F004
:100F60001DF998F8013F73B198F8E43E5BB198F829
:100F7000E53E43B1029B514603F53B501830DDE995
:100F8000032302F00BF998F8023F73B198F8F83E8A
:100F90005BB198F8F93E43B1029B514603F53B50D3
:100FA0002C30DDE9032302F0F9F8029BD3ED097A36
:100FB000F5EEC07AF1EE10FA40F2ED8203F51D5223
:100FC0001B320B9203F51D5203F52A532F321333B4
:100FD0000C920993029B374603F539542B34A146F2
:100FE00003F53A5309330E960125079E07941C46D4
:100FF000CDF83C80C846DDF80C900A9318F8012F14
:101000009AB35146384602F0E7F94A463946304627
:1010100002F0F0FDF8EEC87A00B13D75B0EE677AE7
:10102000BEEEC87A17EE102A396891421CDBF8EE42
:10103000E87AFEEEC87A17EE903A13448B4213DB3F
:10104000F8EEC97AB0EE677ABEEEC87A17EE102ACB
:101050007968914208DBF8EEE97AFEEEC87A17EE7D
:10106000903A13448B4200DA3D75A04507F1200702
:10107000C4D1DDF83C80079C98F8A43E33B1029BB4
:10108000514603F53A50103002F018FA08F6EC73A6
:10109000D3ED007A06EE90AA9FED5B7A76EEA77A02
:1010A000F4EEC77AF1EE10FAC0F21D8277EEC77A3D
:1010B000C3ED007AD8F8E83F54495A1C81FB02314D
:1010C000D317C3EB610303EB4303A2EB8303C8F81D
:1010D000E83FDDF82090DDF818A00794CDF83C80BB
:1010E0004C46D046DDF808900C9FDDF82CA003E0BC
:1010F000D84504F1200435D018F8011F0029F7D095
:10110000554609F513561C3615F8013F002B00F023
:10111000DE8121461EA801F09DFA314622A801F089
:10112000D3FA2299249B1E9A0B449A4280F2CF81D3
:10113000209B1A44914280F2CA812399259B1F9AD1
:101140000B449A4280F2C381219B1A44914280F25F
:10115000BE8101213046217501F0ACFAD84504F179
:101160002004C9D1029BDDF82090069E03F52A5A7F
:101170004C46B046DDF824901E460AF1270A03E0EB
:10118000D84504F1200435D018F8011F0029F7D004
:101190004D4606F51D57343715F8013F002B00F07A
:1011A0009C8121461EA801F055FA394622A801F07B
:1011B000AFFC2299249B1E9A0B449A4280F28D81A7
:1011C000209B1A44914280F288812399259B1F9A83
:1011D0000B449A4280F28181219B1A44914280F211
:1011E0007C8101213846217501F088FCD84504F145
:1011F0002004C9D1079CDDE905371433DDF83C80B4
:1012000006930F94089C07E068B32A3EABAAAA2A6B
:101210005F4504F1200478D017F8013F002BF7D088
:1012200098F8003FD3B198F8D03EBBB198F8D13EC2
:10123000A3B1214616A801F00DFADDE916A5DDE9F6
:10124000186905991AA801F0B9FF1A9A1C9B134452
:101250009A4503DAB2445245C0F2598198F8013FE9
:10126000EBB198F8E43ED3B198F8E53EBBB1069EE9
:10127000214616A801F0EEF9DDE9169A31461AA8C2
:101280003546DDE91863079301F098FF1A991C9A17
:101290000A44914503DA4E44B142C0F2278198F8DE
:1012A000023F002BB4D098F8F83E002BB0D098F84D
:1012B000F93E002BACD0059B214603F1280516A86A
:1012C00001F0C8F9DDE9169ADDE9186329461AA884
:1012D000079301F073FF1A991C9A0A44914597DA13
:1012E0004E44B14294DA1B9A1D9B13449A458FDAFF
:1012F000079B53449A428BDA01212846217501F05D
:101300004FFF5F4504F1200486D10F9CDDF810905B
:1013100027460E9D0A9E17F8013F33B329461EA8A3
:1013200002F0AAF8494622A801F012F82299249B5B
:101330001E9A0B449A4218DA209B1A44914214DAFE
:101340002399259B1F9A0B449A420EDA219B1A443B
:1013500091420ADA02990123D1ED097AF5EEC07AB9
:10136000F1EE10FA2B7540F2FF80B74205F120052F
:10137000D1D198F8A43E13B398F8983EFBB1029DE2
:101380001EA805F53A51103102F0F8F8049922A888
:1013900000F0DEFF229A249B1E99134499420EDA34
:1013A000209B19448A420ADA259B2399CA181F9B5D
:1013B000934204DA219A13449942C0F2668298F863
:1013C000BC3EC3B198F8B83EABB9029D1EA805F566
:1013D0003A512C3102F02AF9049922A800F0B8FF02
:1013E000229A249B1E991344994204DA209B1944A3
:1013F0008A42C0F21E820020029B0D99A3EB431289
:1014000011F8015F4B01A3F58E23A3F5C56315B158
:101410009B5C03B108705945F2D100200A9D14F875
:10142000011F6301A3F5B423A3F5307311B19B5CD5
:1014300003B12070AC42F2D1DDE90B1411F8010FB9
:101440004B01A3F59823A3F2946310B19B5C03B9FD
:101450000B70A142F2D100230299099A01F51E50A6
:10146000043012F8011F11B1C15C01B911702833A9
:10147000B3F5487FF5D198F8003F23B198F8D03EF6
:10148000002B00F0CD8198F8013F23B198F8E43E9D
:10149000002B00F0B38198F8023F23B198F8F83E92
:1014A000002B00F0B481DDE90321029C04F5085013
:1014B0001C3002F079FE2046FFF7F0FA94F8203055
:1014C000002B5CD043B0BDEC048BBDE8F08FAF4285
:1014D00006F120067FF418AE0AE6554507F1280705
:1014E0007FF45AAE4CE6C3ED007AF2E51B9A1D9BE1
:1014F00013449A45BFF6D3AE079B53449A42BFF6B6
:10150000CEAE01212846217501F04AFEF9E61B9A6C
:101510001D9B13449D42BFF6A1AE4D44AA42BFF6A7
:101520009DAE0121059D2175284601F039FEE8E6B2
:1015300042AB03EB0415803D08F678730FCB013402
:1015400085E80F001CE442AB03EB041598F88A6FA2
:10155000803D08F618730FCB013485E80F00002E8C
:101560003FF4D5ABFFF7C9BB91F820304FF07E5266
:1015700013B1013B81F82030029B5A62F5E6029CD0
:101580002046FFF76FF8012384F8203043B0BDEC0C
:10159000048BBDE8F08F049912A800F0D9FE029BDD
:1015A000159903F51D521B32144603F513570B9280
:1015B00003F51D53149A1C372F33CDE90E623E46B6
:1015C00027461C46DDF848900A91139D02EB09015D
:1015D0000C93099117F8012F22B322A8314601F08C
:1015E00073F82298249A02444A451BDD099B9842CD
:1015F00018DA2398259A0244AA4213DD0A9B5A1945
:1016000082420FDD029A0E9E92F82030002B40F0AD
:10161000388102F52A53133309934FF07E53029A0F
:101620005362D7E4A74206F12006D3D1029BDDE93D
:101630000E62D3ED097AF5EEC07AF1EE10FA00F2FF
:101640001A8102EB09030E93029B0F9603F52A52AF
:1016500003F51D5103F52A571332273734313E461F
:1016600014460F46099214F8012F002A00F0F58065
:10167000394622A801F04CFA2299249A0A444A4594
:1016800040F3EB800E9B994280F2E7802399259AE4
:101690000A44AA4240F3E1800A9B5A19914280F21F
:1016A000DC80029A0F9E92F82030002BB5D0013BCF
:1016B00082F82030B1E784F80D90CDE92200CDE921
:1016C0002400CDE92600CDE92800CDE92A00CDE9A6
:1016D0002C00CDE92E00CDE93000C8F8880FC8F8FD
:1016E0008C0FC8F8900F22A9204601F073FD98F8DE
:1016F000882F002A00F09D8198F8893F002B00F088
:101700009B8198F88A3F002B00F0878198F88B3FE7
:10171000002B00F0C38098F88C3F002B00F08581EF
:1017200098F88D3F002B00F07C8198F88E3F002BBD
:1017300000F0A68198F88F3F002B00F09D8198F86B
:101740008A3F002B00F0938198F88B3F002B00F02C
:10175000898198F88C3F002B00F07F8198F88D3FAD
:10176000002B00F0758198F88E3F002B00F06B8104
:1017700098F88F3F002B00F0618198F88A3F002B8A
:1017800000F0378198F88B3F002B00F02D8198F8FE
:101790008C3F002B00F0238198F88D3F002B00F048
:1017A000198198F88E3F002B00F00F8198F88F3F39
:1017B000002B00F0058198F88A3F002B00F0FB8099
:1017C00098F88B3F002B00F0F18098F88C3F002BAD
:1017D00000F0E78098F88D3F002B00F0DD8098F84E
:1017E0008E3F002B00F0D38098F88F3F002B7FF4C2
:1017F0004DAA08220723D8F8901FB4E0C8F8883F04
:10180000C8F88C3FC8F8903F88F8013F43E6C8F815
:10181000883FC8F88C3FC8F8903F88F8023F42E6FE
:10182000C8F8883FC8F88C3FC8F8903F88F8003F58
:1018300029E6259B2399CA181F9B9342BFF6DBAD6F
:10184000219A13449942BFF6D6AD012205F54053C3
:1018500088F8B82E83F83020CDE5A64207F1280796
:101860007FF401AF0F9EFFF7B5BB029B03F52A562D
:101870002C36FFF767BB03F52A5313330993FFF7A1
:10188000A9BB013B82F82030C3E6002295F8203046
:10189000013385F8203088F8982E90E504234FF026
:1018A00003090120D8F8902F08EB0901914581F830
:1018B000880F01D3C8F8903F98F888EF08EB091912
:1018C00009F6087C22AB0FCB8CE80F00BEF1000FAD
:1018D00000F09E8098F8893F002B7FF430AF022201
:1018E0000123D8F8901F4FF0010C08EB0300994238
:1018F00080F888CF01D8C8F8902F08EB031398F828
:1019000088CF03F6087E26AB0FCB8EE80F00BCF124
:10191000000F78D098F8893F002B7FF42EAF022279
:101920000123D8F8901F4FF0010C08EB03009942F7
:1019300080F888CF01D8C8F8902F08EB031398F8E7
:1019400088CF03F6087E2AAB0FCB8EE80F00BCF1E0
:10195000000F53D098F8893F002B7FF42CAF022260
:101960000123D8F8901F4FF0010C08EB03009942B7
:1019700080F888CF01D8C8F8902F08EB031303F63E
:10198000087C2EAB0FCB8CE80F00FFF77FB9072246
:101990000623D8F8901FE6E706220523D8F8901F03
:1019A000E1E705220423D8F8901FDCE70422032393
:1019B000D8F8901FD7E703220223D8F8901FD2E768
:1019C00008220723D8F8901FADE707220623D8F88E
:1019D000901FA8E706220523D8F8901FA3E7052249
:1019E0000423D8F8901F9EE704220323D8F8901F01
:1019F00099E703220223D8F8901F94E70122634657
:101A000088F8882FB9E70122634688F8882F94E781
:101A10000122734688F8882F6FE703234FF00209ED
:101A20003FE706234FF005093BE705234FF0040984
:101A300037E74B46914634E7022332E70822072373
:101A4000D8F8901F4FE707220623D8F8901F4AE7DF
:101A500006220523D8F8901F45E705220423D8F86D
:101A6000901F40E704220323D8F8901F3BE703228E
:101A70000223D8F8901F36E708234FF0070910E734
:101A800007234FF006090CE72DE9F04F2DED028BEF
:101A900006460068A5B0036806F500549B689847A1
:101AA000D4E9875730683B14059303684FEA254A09
:101AB000DB6A98478046306803681B6B98473B1485
:101AC00018EB0A0848BF08F10F08C01848BF0F30CC
:101AD0003B14BAF10F0FD8BF00214FEA2010C8BF46
:101AE00029150F2BB36B00F1010BD4BF00273F1555
:101AF0009B45A8BF9B464FEA2812736B01329A425E
:101B0000A8BF1A465F45914630DA91422EDA234645
:101B10003D4654469A4606F134080691CDF81CB06D
:101B2000DDF818B05F46B34626462A463946404699
:101B300002F0B2F8421C03460CD0DBF80000059915
:101B4000DAF8A82F0468CDE90161009239462A46E7
:101B5000A469A0470137B945E7D1079B01359D42EC
:101B600034465E46DCD15346A2461C4607EE90AA98
:101B7000F8EEE78ADDED057A94F89C30B8EEE78A56
:101B8000002B00F05183F0EE687AFEEEC87A17EE73
:101B900090BAF0EE487AFEEEC87A5822CDED077A78
:101BA00006F50157043702FB037814AD069697E853
:101BB0000F0085E80F00069B149A18685B46159E77
:101BC000D21AD4F8C41F079B0029A6EB0303D0F850
:101BD00000C0CDE91423C0F28F8200222023CDE97A
:101BE0000152D4F8E82F0093DCF824905837C84706
:101BF000B845DCD1069E06F51D5306F51D5706F5C2
:101C000013582F33D34699461B3708F11C08069406
:101C10000FE010234FF0000ED8F81420CDE9003566
:101C2000CDF808E0DCF824A0D047B94508F1200839
:101C30002FD017F8013F002BF7D04146284600F07F
:101C400043FDF0EE687AFEEEC87A17EE90EAF0EE09
:101C5000487AFEEEC87A17EE90AA0699159B149C56
:101C6000D1F8AC1F3068A4EB0E0EA3EB0A030029D9
:101C7000D0F800C0A54ACDE914E3CADAA34CDCF8D9
:101C800014A0012329461094D047B94508F1200833
:101C9000CFD1DA4606F52A5806F51D5706F52A5B18
:101CA00008F1130834370BF1270B0FE0102397F8D6
:101CB00024E07A690EF0010ECDE9015E0093DCF8B4
:101CC0002490C847C34507F128072ED018F8013FD4
:101CD000002BF7D03946284600F01AFFF0EE687A5C
:101CE000FEEEC87A069B149CD3F8B01F17EE903A0C
:101CF000F0EE487AFEEEC87A17EE90EAE31A159CE9
:101D00003068A4EB0E0E0029D0F800C0804ACDE95F
:101D1000143ECBDA7E4CDCF8149001232946109453
:101D2000C847C34507F12807D0D1069C94F8003F67
:101D300033B394F8D03E1BB394F8D13E03B306F509
:101D40003B512846043101F039FAF0EE687AFEEE94
:101D5000C87A17EE907AF0EE487AFEEEC87A1499B7
:101D60006FF47F42C91B17EE907A14911599306871
:101D7000C91B1591016801234F6929461092B84784
:101D800094F8013F33B394F8E43E1BB394F8E53E76
:101D900003B306F53B512846183101F00FFAF0EE77
:101DA000687AFEEEC87A17EE907AF0EE487AFEEE88
:101DB000C87A14996FF47F42C91B17EE907A149178
:101DC00015993068C91B1591016801234F6929468F
:101DD0001092B84794F8023F33B394F8F83E1BB31F
:101DE00094F8F93E03B306F53B5128462C3101F037
:101DF000E5F9F0EE687AFEEEC87A17EE907AF0EE2A
:101E0000487AFEEEC87A14996FF47F42C91B17EE28
:101E1000907A149115993068C91B159101680123B6
:101E20004F6929461092B84794F8A42E002322B196
:101E300094F8982E002A40F085813BB994F8BC3E76
:101E400023B194F8B83E002B00F06C8106F53958A8
:101E500006F52A5706F53A5BDFF8B89008F12B082B
:101E60002C370BF1090B0EE010234FF0000EBA696E
:101E7000CDE90035CDF808E0DCF824A0D047C34513
:101E800007F1200734D018F8013F002BF7D039466E
:101E9000284601F0F1FAF0EE687AFEEEC87A17EE05
:101EA00090EAF0EE487AFEEEC87AD4F8B83F787D32
:101EB000D4F8B41F17EE90AA002818BF1946149B37
:101EC0003068A3EB0E0E159B0029A3EB0A03D0F894
:101ED00000C0104ACDE914E3C6DADCF814A00123EF
:101EE0002946CDF84090D047C34507F12007CAD115
:101EF00006F5135806F5095706F5135BDFF8189039
:101F000008F1030804370BF1170B16E0FF0000FF80
:101F1000FF8000FF8000FFFFFFC800FF08234FF095
:101F2000000EBA69CDE90035CDF808E0DCF824A050
:101F3000D047D84507F1200734D018F8013F002BCF
:101F4000F7D03946284600F085FBF0EE687AFEEEC1
:101F5000C87A17EE90EAF0EE487AFEEEC87AD4F826
:101F6000A43F787DD4F8A01F17EE90AA002818BFD0
:101F70001946149B3068A3EB0E0E159B0029A3EBAA
:101F80000A03D0F800C0A94ACDE914E3C6DADCF8A8
:101F900014A001232946CDF84090D047D84507F139
:101FA0002007CAD106F110010CA800F0D1F9FEEE0D
:101FB000C88ABEEEC88A18EE902A0C9BD4F89C1FE3
:101FC0009B1A18EE102A0C930D9B30689B1A00295F
:101FD00007680D93C0F2D3800CAB0193102396F8E1
:101FE0003020C2F3C00282F00102D2B20292B26A81
:101FF00000937F6AB847D4F8BC1F3068002907688F
:10200000C0F2AD80002210234FF4102E4FF4801C3C
:102010000195029200937F6ACDE914EECDE916CCCA
:10202000B8474FF0FF37082196F82030804A0AA8B9
:1020300006F07EFB30680923D0F800C01C22DCF8D3
:1020400028800AA914970097C0474FF050435B6857
:102050004021C3F380332846764A83F0010306F01B
:1020600067FB0223306829460268956A1A46109772
:102070000097A84794F8BC3E002B4AD106F540557E
:1020800095F83130002B2ED04FF480134FF43C11D3
:102090004FF400273068684A05686D69CDE9107112
:1020A000CDE912330992012310A9A84794F8003F03
:1020B000002B41D194F8013F1BB194F8E43E002B72
:1020C0003ED194F8023F1BB194F8F83E002B37D173
:1020D0005A494FF0FF3430681C22036809949D6A06
:1020E0002F230094A84730680368DB68984725B021
:1020F000BDEC028BBDE8F08F6FF0FF02DCF81490AE
:102100000123294610925837C847B8457FF44FAD90
:1021100070E5D4F8B43E052B72D8DFE803F03763DE
:1021200066696C60D4F8B43E052B00F2A680DFE847
:1021300003F09B9EA189959894F8D03E002BB9D0CE
:102140003F49C6E7059B06F53A500093D4F8C02FE7
:1021500053463168103001F0D7F900236DE6D7F807
:1021600014804FF4102C4FF48017334A0123294672
:10217000CDE914CCCDE916771092C04751E72E4A2D
:102180007F6901230CA91492B84734E7D4F8C81F1B
:102190004FF480134FF400224FF4E0100029CDE9F2
:1021A0001020CDE9123335DB00221023306810AF48
:1021B0000568CDE9017200936D6AA84706F54055A0
:1021C00095F83030D3B11D494FF0FF321C233068F1
:1021D00009920768BF6A00921A46B84750E7D4F8D8
:1021E000DC1FD5E7D4F8CC1FD2E7D4F8D01FCFE757
:1021F000D4F8D41FCCE7D4F8D81FC9E71049E3E7D7
:102200004FF400214FF4E0124FF48013CDE9101287
:10221000129313936FF47F02306810A90368099238
:102220005D690123A847C9E714ADE4E4FFC800FFD6
:10223000B0D70010B4D70010FF0000FFA8D70010DF
:10224000ACD70010D4F8D42F059B06F53A50009374
:10225000316853462C3001F0B1F9F7E5D4F8D82FA6
:10226000F2E7D4F8DC2FEFE7D4F8C82FECE7D4F886
:10227000CC2FE9E7D4F8D02FE6E74FF0FF32E3E7C1
:1022800070B44FF4C80403250022012600214FF04A
:10229000080CC0E9004486610561C0E9021170BC08
:1022A00080F820C04261C261704700BF90ED057A9E
:1022B000D0E90223B5EEC07A07EE901AF1EE10FADB
:1022C000C4BF37EE677A80ED057A002A03F548131C
:1022D0000DDD90F82020B3F5C80F42F0080280F819
:1022E00020200ED9052200238261C361704725D0CA
:1022F00090F82020B3F5C80F22F0080280F82020C3
:10230000F0D8D0ED076A9FED107A77EEA67AF4EE5A
:10231000C77AF1EE10FA0EDB77EEC77A83690B49C4
:10232000013381FB0321DA17C2EB610202EB4202A7
:10233000A3EB82038361C0ED077A7047012200237B
:102340008261C361704700BFD3BC633DABAAAA2AB8
:102350004FF4801210B40C6849680460C0E901129F
:102360005DF8044BC26070470022002102604260A9
:102370008160C2600261704770B52DED028B08EE7E
:10238000103A13680D46064603211046DB681446D2
:10239000984718B195F82030DA0726D4236803212E
:1023A000DB682046984795F8203003F0020218B108
:1023B0001AB1DFED147A05E012B9BDEC028B70BDE5
:1023C000D6ED037A77EEC87AF5EEC07AF1EE10FA20
:1023D0004FF00002C6ED037AEFD823F0020385F830
:1023E0002030BDEC028BF26070BD23F0010343F09E
:1023F000020385F820304FF44813034AF260EB6083
:10240000CCE700BFCDCC4C3ECDCC4C3E70B52DEDD5
:10241000028B08EE103A13680E460446002110465F
:10242000DB6815469847002862D12B680121DB68DC
:1024300028469847002814BF4FF41602002296F849
:102440002030B26013F0010359D00123444A2372B3
:1024500062602B6802211B692846984796F8203055
:1024600003F0010200285BD03E492160002A6DD0B4
:102470003D4A23F00103F260002286F820302260FA
:10248000626018EE103A2A4631462046FFF774FF84
:1024900096F82030002223F0040386F82030D4ED93
:1024A000047AF5EEC07AF1EE10FA09DD77EEC87A1B
:1024B000F5EEC07AF1EE10FA54BFC4ED047A226151
:1024C0002B68052128461B69984770B1D4ED047A22
:1024D000F5EEC07AF1EE10FA07D896F82030234ACC
:1024E00043F0040386F820302261BDEC028B70BDFE
:1024F00096F820301E4A13F00103B260A5D1227A6B
:1025000002B12372D4ED017A77EEC87AF5EEC07A83
:102510000023F1EE10FA54BFC4ED017A636098E72E
:10252000D4ED007A77EEC87AF5EEC07AF1EE10FAC3
:102530004FF00001C4ED007A10D44AB994ED017A4D
:10254000B5EEC07AF1EE10FA02DC9AE7D4ED017A2A
:10255000F5EEC07AF1EE10FA93DD89E7216090E79D
:102560008FC2F53DCDCCCC3D000002FECDCC4C3E23
:1025700000006AFF844682B0CDE90012DDE9000167
:102580006146CCE9000283B14FF0AF7000224FF0FA
:10259000000C886008464B75CA60C1F810C00A7507
:1025A0008A61C1F81CC002B070470148EEE700BF65
:1025B0000000A2FE07EE901AD0E9011290ED047A15
:1025C000B0EE676A37EE877ADFED1F6ABEEEC86A43
:1025D000B4EEE67AD0ED076A16EE103A10B5F1EED9
:1025E00010FA80ED047A77EEA67A9FED187AC46827
:1025F00083FB022E83FB043C4FEA134343EA0C4364
:102600001944F4EEC77AA4BF01230375F1EE10FA62
:1026100004684FEA124242EA0E422244C0E9002115
:102620000EDB77EEC77A83690949013381FB032109
:10263000DA17C2EB610202EB4202A3EB8203836171
:10264000C0ED077A10BD00BF000000489FCD2A3DB5
:10265000ABAAAA2A4FF4002210B40C68496804609F
:10266000C0E901125DF8044BC2607047844682B035
:10267000CDE90012DDE900016146CCE900028BB131
:102680004FF4A00200230120CCE902234FF0030CF9
:10269000002200230877084681F810C04A618B6148
:1026A00002B07047024A1846CCE90223EEE700BFA9
:1026B0000000B0FF037C0246591AC9B2B1FA81F09A
:1026C00011744009704700BF4FF4801210B40C68B9
:1026D00049680460C0E901125DF8044BC2607047AC
:1026E0002DE9F041D0E90065002DAEBF2C4605F57F
:1026F0007F2404F6FF74836815F5702544BF05F543
:102700007F2505F6FF75002B80460F464FEA2454BF
:102710004FEA25552CDDA54228DB16F5702644BF6F
:1027200006F57F2606F6FF76361501E0A5421DDB8D
:1027300022463146384601F0C9FA01340028F5D066
:10274000360107EE906AF8EEE77AFEEEC87A98F85E
:102750001C301C4A23F0010388F81C3017EE903A15
:10276000A3F58013C8F80820C8F80030BDE8F08150
:10277000FCD0A542FADB002EBCBF06F57F2606F68C
:10278000FF76361501E0A542F0DB22463146384699
:1027900001F09CFA01340028F5D00136360107EE2D
:1027A000906AF8EEE77A4FF4A002FEEEC87A98F845
:1027B0001C30C8ED007A43F0010388F81C30C8F8DB
:1027C0000820D3E70000B0FF2DE9F04FD0E9005911
:1027D000002DA8BFAB462DED028BBCBF05F57F2BAE
:1027E0000BF6FF7BC36815F5702544BF05F57F2503
:1027F00005F6FF75002B80460E4683B04FEA2B5B33
:102800004FEA25557EDD19F5702344BF03F57F237C
:1028100003F6FF7312F5702C44BF0CF57F2C0CF6F9
:10282000FF7C4FEA2C5C1B159C45E246A8BF9A46EC
:102830009C45B8BF9C46E24527DC5746CDF800A032
:10284000CDF80490DA46A94693466546D145A8BF1F
:10285000544602DA1EE04C451CDC21463A4630461E
:1028600001F034FA01340028F5D03F0107EE907AE8
:10287000F8EEE77A0023FEEEC87AC8F80C3017EEBF
:10288000903AA3F58013C8F8043003B0BDEC028B76
:10289000BDE8F08F0137AF42D8DDAC465A464D4611
:1028A000DDF80490D34609F58017DDF800A002F5A5
:1028B0008019CDF800C05D451EDB4FEA0A130833CE
:1028C0005C4608EE103A21465246304601F026FAA0
:1028D000013478B1F8EEC87AB0EE677ABEEEC87A05
:1028E00017EE103A994505DC9F4203DBD8F80C201F
:1028F000002A47DAAC42E6DD009B0AF1010A9A455C
:10290000D9DDC2E7C1D0B9F10007BCBF07F57F2709
:1029100007F6FF77B2F10009BCBF09F57F2909F678
:10292000FF793F154FEA29594F45BA46A8BFCA4615
:102930004F45B8BF4F46BA45A7DC5D45A8BF5C46CA
:1029400002DA1BE0AC4219DC21463A46304601F07F
:10295000BDF901340028F5D001373F0107EE907A28
:10296000F8EEE77A0023FEEEC87AC8F80C30C8ED1E
:10297000017A03B0BDEC028BBDE8F08F013FBA4590
:10298000DBDD82E70022A3F58013C8F80430C8F825
:102990000C207AE72DE9F0412DED028B08EE101A9C
:1029A000F0EE487AFEEEC87A4FF0757317EE905A43
:1029B00085FB033617461B0CC268044643EA0643F0
:1029C0001A44B2F1FA7FA8BF4FF0FA72007F216873
:1029D000C0074CBF01F58011A1F580310029E260EC
:1029E0006268BCBF01F57F2101F6FF7112F5881204
:1029F00044BF02F57F2202F6FF720E154FEA2258FD
:102A000042463146384601F061F9002839D0A368C2
:102A100083FB05321B0C43EA0243226839461A4401
:102A200020462260FFF75CFEE368626885FB035383
:102A30002D0C45EA03451544394620466560FFF7ED
:102A4000C3FE94ED067ADFED187A38EE078AB4EE0D
:102A5000E78AF1EE10FA0EDB38EE678A63691349F4
:102A6000013381FB0321DA17C2EB610202EB420260
:102A7000A3EB8203636184ED068ABDEC028BBDE8A3
:102A8000F08142463146384601F048F9A3680028F3
:102A9000BED1227F5B42D10754BF42F0010202F057
:102AA000FE022277A360B3E73199AA3DABAAAA2A16
:102AB000844682B0CDE90012DDE900016146CCE92F
:102AC0000002A3B14FF4481200230120CCE90223F5
:102AD00000234FF0050C002281F8240008468B618A
:102AE00081F810C04A61CB610B6202B07047024AA4
:102AF0001846CCE90223EBE70000CEFF037C024638
:102B0000591AC9B2B1FA81F011744009704700BF77
:102B10004FF4801210B40C6849680460C0E90112D7
:102B20005DF8044BC26070472DE9F041D0E90065C3
:102B3000002DAEBF2C4605F57F2404F6FF74836894
:102B400015F5702544BF05F57F2505F6FF75002BAB
:102B500080460F464FEA24544FEA255529DDA54209
:102B600025DB16F5702644BF06F57F2606F6FF76B0
:102B7000361501E0A5421ADB22463146384601F0FF
:102B8000A5F801340028F5D0360107EE906AF8EE7A
:102B9000E77AFEEEC87A98F8243023F0010388F82B
:102BA000243017EE903AA3F58013C8F80030BDE842
:102BB000F081FCD0A542FADB002EBCBF06F57F26D3
:102BC00006F6FF76361501E0A542F0DB22463146D7
:102BD000384601F07BF801340028F5D00136360183
:102BE00007EE906AF8EEE77AFEEEC87A98F824309D
:102BF000C8ED007A43F0010388F82430D7E700BF1E
:102C00002DE9F04FD0E90059002DA8BFAB462DEDBE
:102C1000028BBCBF05F57F2B0BF6FF7BC36815F558
:102C2000702544BF05F57F2505F6FF75002B80460E
:102C30000E4683B04FEA2B5B4FEA25557EDD19F532
:102C4000702344BF03F57F2303F6FF7312F5702C46
:102C500044BF0CF57F2C0CF6FF7C4FEA2C5C1B1557
:102C60009C45E246A8BF9A469C45B8BF9C46E245B3
:102C700027DC5746CDF800A0CDF80490DA46A946E7
:102C800093466546D145A8BF544602DA1EE04C453E
:102C90001CDC21463A46304601F018F80134002881
:102CA000F5D03F0107EE907AF8EEE77A0023FEEECA
:102CB000C87AC8F80C3017EE903AA3F58013C8F81C
:102CC000043003B0BDEC028BBDE8F08F0137AF429A
:102CD000D8DDAC465A464D46DDF80490D34609F59A
:102CE0008017DDF800A002F58019CDF800C05D4521
:102CF0001EDB4FEA0A1308335C4608EE103A214601
:102D00005246304601F00AF8013478B1F8EEC87A3C
:102D1000B0EE677ABEEEC87A17EE103A994505DC38
:102D20009F4203DBD8F80C20002A47DAAC42E6DDEC
:102D3000009B0AF1010A9A45D9DDC2E7C1D0B9F179
:102D40000007BCBF07F57F2707F6FF77B2F1000940
:102D5000BCBF09F57F2909F6FF793F154FEA2959CC
:102D60004F45BA46A8BFCA464F45B8BF4F46BA45B9
:102D7000A7DC5D45A8BF5C4602DA1BE0AC4219DC6B
:102D800021463A46304600F0A1FF01340028F5D034
:102D900001373F0107EE907AF8EEE77A0023FEEE66
:102DA000C87AC8F80C30C8ED017A03B0BDEC028BCC
:102DB000BDE8F08F013FBA45DBDD82E70022A3F5D5
:102DC0008013C8F80430C8F80C207AE72DE9F04FDA
:102DD00087B006AC04E906000168426811F50021DD
:102DE00048BF01F57F21049D48BF01F6FF7112F530
:102DF000002244BF02F57F2202F6FF721E46002D1C
:102E0000059BBCBF05F57F2505F6FF75002BB8BFF8
:102E100003F57F234FEA215B4FEA2555B8BF03F640
:102E2000FF734FEA225AA5EB0B04CAEB2359002C7F
:102E3000B8BF6442B9F1000FB8BFC9F100095D45E0
:102E4000D4BF4FF0FF320122BAEB235F4FEA235386
:102E50000393ACBF4FF0FF33012301920293A4EB25
:102E60000908C9F1000752465946304600F02EFFC6
:102E70004FEA4803B0B9AB4518D0B7EB480F03DAB7
:102E8000019AA8EB090893449C42ECDD029B594649
:102E90009A445246304600F019FFA0444FEA4803D6
:102EA0000028E8D0002007B0BDE8F08F039A9245D3
:102EB000E3D1012007B0BDE8F08F00BF2DE9F0435A
:102EC0002DED028B08EE101AB0EE487ABEEEC87AED
:102ED0004FF0757C17EE105AD0ED077A85FB0CC1C8
:102EE0001F464FEA1C4CC3684CEA014C6344B3F1E3
:102EF000FA7FA8BF4FF0FA7377EE887A91B0C3607B
:102F0000D7E900811646D0E900E2A8EB0E0383FB67
:102F10000339A1EB020C1B0C43EA09438CFB0CC9DF
:102F20004FEA1C4C4CEA094C6344B3F1C84F0446C9
:102F3000C0ED077A49DD90F82430980740F1BB8056
:102F4000D4ED087A77EEC87AF5EEC07AF1EE10FA91
:102F50009CBF23F0020384F824300023C4ED087AD8
:102F6000A36031462046C4F800E0FFF7DDFDE368CA
:102F7000626885FB03532D0C45EA03451544314631
:102F800020466560FFF73CFE94ED067ADFED6E7A31
:102F900038EE078AB4EEE78AF1EE10FA0EDB38EE6F
:102FA000678A63696949013381FB0321DA17C2EB40
:102FB000610202EB4202A3EB8203636184ED068AA5
:102FC00011B0BDEC028BBDE8F08308F5002301F5DC
:102FD00000210693079106AA334606CAFFF7F6FEBC
:102FE00094F82430D4F800E013F00201A8D162680C
:102FF000002860D094ED077AF7EE007AB4EEE77A15
:10300000A160D7E900107145CCBF43F0010303F084
:10301000FE03F1EE10FA84F82430A2DB801A02F5E8
:10302000802203920EF5802202921A9AA1EB0E01E1
:1030300000270491059002F2BF3202E001371E2FF3
:1030400030D012F8011F0029F8D101221A9B3B440D
:1030500083F8C0231A9BD3F8E033BB4203D8BB18D4
:103060001A9AC2F8E033059B02AA009306CA049B91
:1030700008A800F0D5F81A9B226803EB4717A3684D
:103080000DF1200C85FB03311B0C43EA014302EBDD
:10309000030EBCE80F000FC79CE80F0087E80F0085
:1030A00094F8243043F0020384F824300023284AA3
:1030B000E361226255E7D9074CBF0EF58011AEF5EA
:1030C00080310029BCBF01F57F2101F6FF7112F5A7
:1030D000881244BF02F57F2202F6FF724FEA2158A0
:1030E00017153A464146304600F0F0FD98B194F885
:1030F0002430DB071ED4174B4FF0FF311A46A26075
:10310000A5FB033205FB01221B0C43EA02432268A4
:1031100002EB030E25E73A464146304600F0FEFD3D
:1031200094F824300028E4D1DA0708D443F00103EE
:1031300084F824304FF4481300211A46DFE723F0C7
:10314000010384F82430D6E73199AA3DABAAAA2A14
:103150009A99993E0000CEFF10B400221424012158
:10316000C0E90022C0E9024102615DF8044B7047EA
:10317000844610B582B0CDE900121424DDE90001C7
:103180004FF0010E8CE805006046ACF80CE0CCF87E
:103190000840CCF8103002B010BD00BF704700BF2F
:1031A00082680346511A002902DD002099607047A9
:1031B000002201209A601A73704700BF4FF400127A
:1031C00010B40C6849680460C0E901125DF8044B52
:1031D000C260704730B4D0E900234FF480144FF040
:1031E0008765A3F10370C1E90245C1E90645CC62D8
:1031F000CC63A2F10774C1E900404861A3F10774F0
:10320000A2F1037003F10B7302F10B72C1E9080420
:103210008D628D63C1E90C0330BC0A61704700BF49
:1032200082B02DE9F04F054685B002A880E806007F
:1032300003C80021002485E805001E464FEAE37B11
:1032400083FB0323109F120C42EA034287FB0730E3
:103250001B0C43EA00431A448A422C61EC61297535
:10326000A96140F3B4804FEA22484FEA0249D317DC
:103270004846414601920AF053F9019A4FEAE77A2B
:103280001044B2EB600F4FEA60046DD02246C317C2
:10329000414648460AF044F92044B4EB600F4FEA37
:1032A00060025FD0C3174146484601920AF038F9E0
:1032B000019A1044B2EB600F4FEA600452D02246EC
:1032C000C317414648460AF02BF92044B4EB600F7F
:1032D0004FEA600246D0C3174146484601920AF0C1
:1032E0001FF9019A1318B2EB630F4FEA630439D048
:1032F000224648464146DB170AF012F92044B4EB57
:10330000600F4FEA60022DD0C31741464846019234
:103310000AF006F9019A1044B2EB600F4FEA60041C
:1033200020D02246C317414648460AF0F9F8204407
:10333000B4EB600F4FEA600214D0C3174146484611
:1033400001920AF0EDF8019A1044B2EB600F4FEAD7
:10335000600407D02246E317484641460AF0E0F8E9
:1033600020444410002C2DDD4FEAE4784FEA0B4155
:103370002246434641EA164130040AF0D1F84FF4A0
:10338000F00684464FEA0A414346224641EA174185
:1033900038048CFB06470AF0C3F8240C44EA0744BF
:1033A000002CD4BF0023012380FB0616090C41EA40
:1033B00006412846C5E902416B7505B0BDE8F04FEE
:1033C00002B07047012300214FF4F004F1E701231C
:1033D0004FF4F004EDE700BF07EE901AD0E90112B8
:1033E00090ED047AB0EE676A37EE877ADFED1F6AF8
:1033F000BEEEC86AB4EEE67AD0ED076A16EE103A71
:1034000010B5F1EE10FA80ED047A77EEA67A9FED12
:10341000187AC46883FB022E83FB043C4FEA1343F3
:1034200043EA0C431944F4EEC77AA4BF01230375A1
:10343000F1EE10FA04684FEA124242EA0E422244C8
:10344000C0E900210EDB77EEC77A836909490133B1
:1034500081FB0321DA17C2EB610202EB4202A3EB0C
:1034600082038361C0ED077A10BD00BF00004048B1
:103470009FCD2A3DABAAAA2A4FF4002210B40C68B3
:1034800049680460C0E901125DF8044BC2607047EE
:10349000034610B483B0CDE900124FF0010CDDE912
:1034A00000010024002183E80500184683F808C0C5
:1034B000DC60196103B05DF8044B7047037A07EED6
:1034C000901A63B1D0ED046A9FED0D7A77EEA67A7B
:1034D000F4EEC77AF1EE10FA02DAC0ED047A704722
:1034E000C3680849013381FB0321DA17C2EB61028B
:1034F00002EB4202A3EB820377EEC77AC360ECE7EC
:1035000068B32A3EABAAAA2A70B58CB00593037A99
:1035100084464BB3DDED057AB8EEE77ADDED107A3F
:103520004FF48015BEEEC87AF8EEE77ACDE90A5579
:1035300017EE105AFEEEC87A08461146DCE9002361
:10354000521B089217EE902A0029A3EB020304688D
:1035500009930BDB0025102308AEDCF80C20CDE925
:1035600001650093646AA0470CB070BD01234FF061
:10357000FF22646908A9A0470CB070BD4FF4801207
:1035800010B40C6849680460C0E901125DF8044B8E
:10359000C2607047844600B583B0CDE900124FF099
:1035A000000EDDE900018CE805006046CCF808302B
:1035B0008CF80CE003B05DF804FB00BF844670B5E6
:1035C000084611469CF80C208CB0059322BB07EEF0
:1035D000903ADCE90043B8EEE77ADDED107A4FF47B
:1035E0008016BEEEC87AF8EEE77ACDE90A6617EEE5
:1035F000106AFEEEC87AA41B089417EE904A0029C0
:10360000A3EB04030568099308DB08ABCDE901329D
:10361000102300936C6AA0470CB070BD01236FF4B7
:103620007F026C6908A9A0470CB070BD4FF48012EE
:1036300010B40C6849680460C0E901125DF8044BDD
:10364000C260704791F8203007EE902ADB070DD456
:10365000FEEEC87A4FF0966317EE902A82FB033293
:10366000C8681B0C43EA02431844C860704700BF97
:103670008B68B3F5480F0ADD4FF448038B60CB68C5
:10368000B3F1167FC4BF4FF01673CB60704713F5CC
:10369000480FBCBF014B8B60F1E700BF000038FF53
:1036A0002DE9F04F2DED028B89B004A8894616460E
:1036B0001F46FEF74DFE049B069A002BACBF9A46B0
:1036C00003F57F2A1344B8BF0AF6FF7AB3F58035B5
:1036D00048BF03F56F25D9F80C3048BF05F6FF75D4
:1036E000002B4FEA2A5A4FEA255540F3938007985A
:1036F000059907440144B1F5803B44BF01F56F2BA8
:103700000BF6FF7BB7F5803344BF07F56F2303F655
:10371000FF734FEA2B5B1B159B45D846A8BF984605
:103720009B455A46B8BF1A46424501922DDBC34617
:10373000CDE902175746C2468046BD42A8BF3C4667
:1037400002DA27E0AC4225DC21465A46304600F03A
:10375000BDFA01340028F5D04FEA0B1307EE903A7A
:10376000F8EEE77AFEEEC87A99F82030404623F06A
:10377000020343F0010389F8203017EE903A00224B
:10378000181AC9F80C20C9F8040009B0BDEC028B66
:10379000BDE8F08F019B0BF1010B5B45CDDA404694
:1037A000D046BA4653460299C2468B469846039F76
:1037B0000290454524DB4FEA0A130833444608EEDD
:1037C000103A21465246304600F0A8FA0134A8B11A
:1037D00099F8203013F0020C10D1F8EEC87AB0EE50
:1037E000677ABEEEC87A17EE102A974206DC934538
:1037F00004DBD9F80C10002980F2BC80AC42E0DD7B
:10380000019B0AF1010A5345D3DAD9F80C30002B99
:10381000BBD100E040D1494604A8FEF799FD049BC6
:10382000069A1C46002BB8BF03F57F241344B8BF8B
:1038300004F6FF74B3F5803244BF03F56F2202F63D
:10384000FF722415B4EB225F4FEA22579DDC079BE1
:103850000599254603EB010BBBF5803844BF0BF5FA
:103860006F2808F6FF784FEA2858019308F1010AFB
:1038700001E0BD424FDC29465246304600F026FAB0
:1038800001350028F5D099F8203023F0020343F0E9
:10389000010389F8203078E7D9F80430002FBCBF45
:1038A00007F57F2707F6FF77002BBCBF03F57F23C3
:1038B00003F6FF733F151B159F42B846A8BF9846F5
:1038C0009F42B8BF1F46B8453FF75FAF5545A8BFF9
:1038D000544602DA1BE0AC4219DC21463A46304637
:1038E00000F0F4F901340028F5D001373F0107EE6C
:1038F000907AF8EEE77A0023FEEEC87AC9F80C3029
:10390000C9ED017A09B0BDEC028BBDE8F08F013F33
:10391000B845DBDD79E74FEA0813083308EE103AC3
:1039200003E00134BC423FF730AF42462146304607
:1039300000F0F4F90028F4D099F820209307F0D48F
:10394000F8EEC87AB0EE677ABEEEC87A17EE101AB3
:10395000A1F580339B45E4DB01F580239B45E0DC4A
:103960000B46019942F001025B1AC9F8043089F84C
:1039700020200AE702989646101A43F00102C9F87F
:103980000400C9F80CC089F82020FEE62DE9F043B8
:103990000F4685B068469146FEF7DAFCDDE9006324
:1039A000002BA8BF1C46039AB8BF03F57F2413441D
:1039B000B8BF04F6FF74B3F5803548BF03F56F2533
:1039C000BB6848BF05F6FF75002B4FEA24544FEA49
:1039D000255529DDA54224DBDDF8088008EB060328
:1039E000B3F5803644BF03F56F2606F6FF7636152D
:1039F00001E0A54215DB22463146484600F066F953
:103A000001340028F5D0360107EE906AF8EEE77A27
:103A10000023FEEEC87ABB6017EE903AA3EB0803D2
:103A20003B6005B0BDE8F083FBD0A542F9DB002E7A
:103A3000BCBF06F57F2606F6FF76361501E0A542E7
:103A4000EFDB22463146484600F040F901340028B9
:103A5000F5D00136360107EE906AF8EEE77A0023DA
:103A6000FEEEC87ABB60C7ED007ADAE7002A6DD0B7
:103A70002DE9F04F984685B0002B3DD00F4691467A
:103A80004FF0020A4C46002568463946FEF760FCB6
:103A9000D4F800C0A068009E6044B04221DD029BC3
:103AA00033449C451DDAD4F804E0E268DDF804B044
:103AB0007244934515DA039959448E4511DAA3EB04
:103AC0000C03801B8342A1EB0E01A2EB0B0216DD5F
:103AD000884223DC904223DC0023BB603B68034424
:103AE0003B600135A84504F11004CDD1BAF1010FB6
:103AF00002D04FF0010AC5E705B0BDE8F08F8B4258
:103B00000CDC93420CDC0022BA603A680135D21A10
:103B1000A8453A6004F11004B6D1E7E791420ADD06
:103B20000023FB607B6801351344A8457B6004F1EA
:103B30001004A9D1DAE70023FB607B6801355B1A2A
:103B4000A8457B6004F110049ED1CFE7704700BF09
:103B50002DE9F04385B068461646FEF77BFDDDE9AA
:103B600000231C46002AA8BF17460299B8BF02F5D9
:103B70007F270A44B8BF07F6FF77B2F5803548BF04
:103B800002F56F25039A48BF05F6FF75002BB8BFF5
:103B900003F57F241344B8BF04F6FF74B3F58032F5
:103BA00044BF03F56F2202F6FF722415B4EB225FC7
:103BB0004FEA27574FEA25554FEA225815DCBD42F8
:103BC000A8BFB94602DA0DE0A9450BDC49462246FA
:103BD000304600F07BF809F101090028F4D005B067
:103BE000BDE8F0830134A045E9DA002005B0BDE866
:103BF000F08300BF2DE9F04385B068461646FFF715
:103C00003BFCDDE900231C46002AA8BF17460299A9
:103C1000B8BF02F57F270A44B8BF07F6FF77B2F5B1
:103C2000803548BF02F56F25039A48BF05F6FF753A
:103C3000002BB8BF03F57F241344B8BF04F6FF740C
:103C4000B3F5803244BF03F56F2202F6FF722415EC
:103C5000B4EB225F4FEA27574FEA25554FEA225827
:103C600015DCBD42A8BFB94602DA0DE0A9450BDC60
:103C700049462246304600F029F809F1010900289A
:103C8000F4D005B0BDE8F0830134A045E9DA0020A6
:103C900005B0BDE8F08300BF002910DB03688B424C
:103CA0000DDD002A0BDB10B44468944209DD0844A2
:103CB00002FB03025DF8044B92F9100070470020EC
:103CC000704700205DF8044B704700BFB1F1000C55
:103CD0001ADB08B503689C4514DA002A12DB416838
:103CE0008A420FDA604403FB020090F910100029A9
:103CF00006DB0E290ADD13460748624604F062FF20
:103D0000002008BD012008BD012070470B29CCBF51
:103D10000020012008BD00BFBCD70010002914DB23
:103D20000368994211DA002A0FDB10B44468A242FA
:103D30000DDA084403FB0202107C5DF8044B0C38DA
:103D400002288CBF0020012070470020704700200F
:103D50005DF8044B704700BF2DE9F0432DED048B57
:103D600097B00F46229E002900F05681002E00F0E9
:103D70005381002A944640F34F81002B40F34C813D
:103D800003FB02F9B9F5005F00F346814FF0000E26
:103D9000044600F5005500F1100885F868E085F844
:103DA0000CE185F8B0E185F8C4E185F8D0E185F84B
:103DB000E4E14A46C4E900C3FF21404608F084FD1F
:103DC00009F1FF33052B40F245817A1CA8EB020272
:103DD000022A40F23F813B4629F00302103222447E
:103DE00053F8041B48F8041B4245F9D119F0030F9E
:103DF00029F003030ED0F956E21811745A1C9145AC
:103E000008DDB956023322449945117402DDFA5691
:103E100023441A7496ED017AD6ED007ABEEEC87A84
:103E2000FEEEC87A84ED037AC4ED027A377B002F68
:103E300049D00020034621E095F80C1101F1010C56
:103E4000132904EBC10101F500510ED892ED007A5F
:103E5000D2ED017ABEEEC87AFEEEC87A85F80CC1C2
:103E600081ED1B7AC1ED1C7A377B0133DBB2BB429B
:103E700000F10C0027D2B0F5F07F24D0B2680244E4
:103E8000117A0029D8D00129EFD195F8B011132962
:103E9000EBD892ED007AD2ED017ABEEEC87AFEEE52
:103EA000C87A04EBC10202F50052013185F8B01165
:103EB00082ED447AC2ED457A0133377BDBB2BB42F7
:103EC00000F10C00D7D3337D13B3336993ED007A3F
:103ED000D3ED017ABEEEC87AFEEEC87A012385EDF5
:103EE0006D7AC5ED6E7A85F8C431337D012B0FD91B
:103EF000336993ED027AD3ED037ABEEEC87AFEEE13
:103F0000C87A022385ED6F7AC5ED707A85F8C431E1
:103F1000337F002B42D0B46994ED006AD4ED016A7E
:103F200094ED027AD4ED037AF0EE469AB0EE669AFA
:103F3000F0EE478AB0EE678A237CFEEEC89ABEEEAA
:103F4000C89AFEEEC88ABEEEC88A002B6AD0012B42
:103F500070D0022B76D0002794ED057AD4ED067A46
:103F600001240023BEEEC87AFEEEC87A58226946C4
:103F700005F1100085F86840CDED009A8DED019AAD
:103F8000CDED028A8DED038A8DED147ACDED157A93
:103F90008DF810708DF84F3009F038F896F824300D
:103FA000ABB1336A012293ED017AD3ED007ABEEE14
:103FB000C87AFEEEC87A1B7A85ED737A052B28BF86
:103FC0000523C5ED727A85F8D021C5F8D431B36ADE
:103FD000E3B196F82C20CAB193ED017AD3ED007AC3
:103FE000BEEEC87AFEEEC87A1B7A85ED777A012B91
:103FF000C5ED767A05D0A3F10203B3FA83F35B092A
:104000005B000122C5F8E03185F8E421012017B0FA
:10401000BDEC048BBDE8F083002017B0BDEC048B31
:10402000BDE8F0833F22114904A808F09BFC9DF8ED
:10403000107091E73F220E4904A808F093FC9DF808
:10404000107089E73F220B4904A808F08BFC9DF80B
:10405000107081E73B4404F10F02013F17F9011F83
:10406000BB4202F8011FF9D1D4E600BFE8D7001027
:1040700000D8001018D8001070B54FF0000C402682
:104080002025044600F5005383F868C083F80CC16E
:1040900083F8B0C183F8C4C183F8D0C183F8E4C108
:1040A0004FF40062FF21C0E90065103008F00CFCFD
:1040B0008022042104F5F26008F006FC4FF0040CA5
:1040C0002346224604F5006182F810C04032914236
:1040D000FAD1042283F84F2040339942FAD14FF0AD
:1040E0000D330D224FF4C801C4F89A36C4F89E3639
:1040F000A4F8A236C4F8A935C4F8AD35A4F8B13592
:10410000C4F8C236C4F8C636A4F8CA3684F878278C
:1041100084F8392784F8FA2684F8BB2684F87C26AC
:10412000C4E9021170BD00BF10B542F2600304463D
:10413000002200F50050E118C0E90422C0E906227F
:10414000E2504A6004F5015304F504512C3380F821
:1041500020200C31C3E9002208338B42FAD100221F
:1041600004F5045304F5065110333031C3E900223D
:1041700008339942FAD104F50751C0E96D22C0E92C
:104180006F222046C1E90222C1E90622FFF774FF2F
:10419000204610BD10B40024C0E90212C0E900445A
:1041A0005DF8044B704700BF2DE9F043D0E90234BD
:1041B000D1E9007107EE903A07EE104AF6EE006A78
:1041C000F8EEE77AB8EEC77A67EEA67A27EE267A97
:1041D000FEEEC87ABEEEC87A17EE90CA01F5002E40
:1041E00017EE101A05684668AC4407F50027ACF5D1
:1041F000201931444F45A1F5F0182BDAA7EB090936
:10420000C6454D442FDAAEEB0808464451681268A3
:10421000C4EB011407EE904AC3EB0213B8EEE77A41
:1042200007EE903AF8EEE77ABEEEC87AFEEEC87A6C
:1042300017EE102A17EE903AB242A8BF3246AB42B0
:10424000A8BF2B4622EAE27223EAE37342600360CE
:10425000BDE8F0830CF5201C6745C4BFA7EB0C0735
:10426000ED19C645CFDB01F5F0118E45C4BFAEEBAD
:1042700001017618CAE700BF00B5ADF5485D85B00D
:1042800004F0DCFB04AD0EA800F036FC284601F07B
:10429000C9F806AC03A801F051F9204601F02CFA48
:1042A0002A4603AB0EA900940C4D77A8FBF7C2FF7A
:1042B00084AC77A8FCF728F909492023402220463E
:1042C0000095FFF749FD074977A8FCF781FB77A820
:1042D000FCF73AFC77A8FDF7D7FBF8E7200D0110B3
:1042E000A40D0110E8D700104FF4A070704700BF74
:1042F000F02070470B468C4600224FEA0C214FEA13
:10430000531C01F478410CF4FC6CC3F3C44341EA40
:104310000C011943436861F30F0261F31F4282B03D
:1043200003F5163143F8042B9942FBD102B07047D4
:10433000D1ED007A9FED9C7AF8EEE77A67EE877A06
:10434000FDEEE77A2DE9F04F83B0019217EE902A47
:10435000B0F86271BA4280F2C280D1ED017AF8EE13
:10436000E77A67EE877AFDEEE77A17EE90CAB0F843
:1043700064E1F44580F2B380D1ED027AF8EEE77A99
:1043800067EE877AFDEEE77A17EE906A951900F1ED
:10439000A680D1ED037AF8EEE77A67EE877AFDEE34
:1043A000E77A17EE901A1CEB010400F19880002EBA
:1043B00040F39580002940F39280002ABCBF2E462E
:1043C0000022BCF1000FBCBF4FF0000C2146BD42E3
:1043D000C4BF3D46BE1A9DF805807445734FC4BFE7
:1043E0007446AEEB0C019DF804E04FEAC80807EAFA
:1043F0000E2E08F4FC689DF806704EEA080E4EEA90
:10440000D70E002B6ED1AA4280F2BF800CEB8C0637
:104410004FEA861BAE1A012ED0F80490934400F0A8
:10442000B78009EB4B0877086EF30F0308EB870A98
:104430006EF31F4348F8043BC245FBD116F0010A56
:1044400000F09D8026F001039B44012929F81BE020
:1044500045DD4FF00008631E03EB83039B010093CF
:1044600002F10043A3F5A07304EB840B03EB8B1361
:1044700009EB43036EF30F0803EB87076EF31F4846
:1044800043F8048B9F42FBD1BAF1000F06D026F00F
:1044900001031344009E334429F813E002291ED07F
:1044A0000CF10103611E8B4219DA41680CEB8C039D
:1044B00004EB840402EB831302EB841001EB43034F
:1044C000A1F5A061AE1A01EB4001A3F880E203F26E
:1044D0007E2203F520738B4222F816E0F5D103B05B
:1044E000BDE8F08F0029FADD002EF8DDA5EB020A09
:1044F000AA42B4BFD0464FF001084FEA580928F04D
:10450000010B08F00108BAF1010F18BFAA42434697
:104510000CEB8C0602EB861590469344ACBF4FF033
:10452000010A4FF0000A1A464768B6016D004FEACB
:104530008909BAF1000F26D100217B196EF30F0112
:1045400009EB03006EF31F4143F8041B9842FBD1B3
:1045500062B15B460CF1010C3344A44527F813E02B
:1045600006F5A07605F52075E3DBB8E70CF1010C44
:10457000644506F5A07605F52075DDDCAFE7012979
:104580003FF767AFABE74346E4E7012986DCA6E7E0
:10459000012929F81BE0A2DD631E03EB83039B01C5
:1045A0000093134676E700BF0000803700F8FFFF56
:1045B0002DE9F04F00298BB09DF850C0C0F2D98092
:1045C000D0F848418C4240F3D48000EB0116B56826
:1045D000002D00F0CE807169B2F902700129D6E990
:1045E000034640F3C98001F1030E4FEAAE0E06FB0D
:1045F0000EFE4FEA8409002FC0F2BB80B2F906809C
:10460000B8F1000FC0F2B580B94540F3B280C6459D
:1046100040F3AF80A9EB070AB2F90A90D145A8BFD1
:10462000D146B9F1000F40F3A480B2F90E20AEEBF1
:10463000080E7245A8BF7246002A019240F3998085
:10464000B3F90220B0F862B1934540F39280B3F918
:1046500006A0B0F864315345039340F38A8019EB08
:104660000203029200F18580019A12EB0A0206927F
:104670007FD4029A002AADBF002252429E46CE4607
:10468000BAF1000F0492ACBF0022CAF100020792F7
:104690007246A3EB0B0323EAE3734B45D4BFD21A54
:1046A000A2EB0902002A059263DD069A039BD31A46
:1046B000019A23EAE3739342D8BFD21A079BC8BF7B
:1046C000921A934255DA012940F3AF805344BCF16A
:1046D000000F54D102EB0A0C029AA8EB0A0ABA1A8C
:1046E00001925246039FE2460695944602E001334A
:1046F00053453ED09F42FAD9049A029DCDE9073A2C
:104700005519059A03EB83094FEAC91902EB05080D
:104710000CEB030E0397AB4524D9019B9EFBF6FAE5
:104720005F1997FBF4F306FB1AE204FB137703EB24
:104730008A0323EAE3739942D8BF01F1FF3304FBF4
:1047400003F304FB02F206FB0322069B3A4433F810
:1047500012204FF61F039A4204D0436803EB45032F
:1047600023F8092001354545D5D1DDE9073A039FF6
:10477000BDE70BB0BDE8F08FA146B6463BE702EBC4
:104780000A0C029A0193531E3B44A8EB0A0E03EB5A
:104790000902F246039FDDF804E0069203E00EF101
:1047A000010EF445E5D07745F9D9049B029ACDE98D
:1047B000077C9A180EEB8E03DB010393059B0AEB33
:1047C0000E0803EB0209CDF824E00190934523D9AC
:1047D000069B98FBF6FC9F1A97FBF4FE0EEB8C03EE
:1047E00023EAE373994200DC4B1E04FB03F306FB50
:1047F0001C8C06FB03F304FB1E7704FB0C333B44C9
:1048000035F813704FF61F039F4205D0019B0398A4
:104810005B6803EB42031F5201329145D6D1DDE9BB
:10482000077CDDF824E00198B9E7012C43D1029C14
:104830001946631E3B4499443B1B0693634651440F
:10484000524401EB81069446A8EB0A0A1A464FF639
:104850001F08DDF80CE0B60104E00131614506F502
:10486000A07686D08E45F8D9029C049BCDF80CE04A
:104870002344059CE646E718019610E0A9EB0304E3
:104880000C44544435F81440444505D0019E03EBD4
:10489000060C466826F81C400133BB4206D09B45F7
:1048A000FAD9002AEAD1069C1C44E9E7F446019EA5
:1048B000DDF80CE0D1E7079B0299984453449244F9
:1048C0004A1E3A4491447A1A0692624604FB08FE54
:1048D00084464FF61F08104604E001335345A644B2
:1048E0003FF447AF039A9A42F7D90299049A03EB2F
:1048F00083060A44F1010191059907938F180FE08F
:10490000A9EB0201714435F81160464505D0DCF889
:104910000410019B01EB4201CE520132BA4206D093
:104920009345FAD90028EBD1069B9918EAE7079B33
:10493000D3E700BFF021002210B582B00091446897
:104940004FF4A0731146019400F5A67006F00AFF1B
:1049500002B010BD10B50B780C4673B14A1C05E0CF
:104960005C2B08BF144612F8013B33B12F2BF7D153
:10497000144612F8013B002BF8D12046404908F0BC
:1049800067FA00285CD020463E4908F061FA00280A
:1049900057D020463C4908F05BFA002853D0204607
:1049A0003A4908F055FA00284FD02046384908F017
:1049B0004FFA00284BD02046364908F049FA002823
:1049C00047D02046344908F043FA002845D0204615
:1049D000324908F03DFA002841D02046304908F01D
:1049E00037FA00283DD020462E4908F031FA002839
:1049F00039D020462C4908F02BFA60B320462B49C9
:104A000008F026FA88B32046294908F021FA70B345
:104A10002046284908F01CFA58B32046264908F0D9
:104A200017FA40B32046254908F012FA28B3204669
:104A3000234908F00DFA00280CBF10204FF0FF307A
:104A400010BD012010BD022010BD032010BD0420A8
:104A500010BD052010BD0A2010BD062010BD072086
:104A600010BD082010BD092010BD0B2010BD0C206A
:104A700010BD0D2010BD0E2010BD0F2010BD00BFB9
:104A800030D8001044D8001058D800106CD800104E
:104A900088D8001094D80010A4D80010BCD80010FA
:104AA000D4D80010E0D80010F0D8001008D90010B9
:104AB0001CD9001030D9001044D9001054D900106E
:104AC00068D9001002680949126982B08A4209D186
:104AD0004368074903F5163243F8041B9342FBD1A0
:104AE00002B07047034902B0104700BFF542001002
:104AF0007D867D8687CEEBFFF0B504460025B84B5A
:104B000000F5A6768DB03046C4E90035C4F84851AA
:104B100006F054FD0D234FF4A072C4F8A0314FF4F9
:104B2000805301270592AF4AAF4902920B93AF4AD7
:104B3000AF4B0191304601A9CDE90323CDE90655DC
:104B4000CDE90955089706F097FF3946304606F03B
:104B5000B5FD4FF4163002F091FA0346A5496060A6
:104B600000F5163243F8041B9A42FBD100254FF69C
:104B7000FF764FF0100C0127D4F8A0010421430860
:104B80001F288ABF03F0030303F00703083303EB76
:104B900083039B0003F1804202F528221661156011
:104BA0009560D5601661C2F804C0176000F0B8FDCA
:104BB0000C201021D4F8A021C4E9041022FA07F334
:104BC0001F2A8ABF03F0030303F00703083303EB34
:104BD00083039B0003F18043034403F5282542F33C
:104BE00000022D6882F47F4282F0FF0222EA050271
:104BF00003F529231A60D4F848317F4A002BC4E911
:104C0000022173DC08237D4A6062C4E90623236223
:104C100008230C227A49C4E90C32C4E90A13102390
:104C2000784AC4E91033C4E90E2310230C227649D4
:104C3000C4E91432C4E9121310230C227349C4E9E5
:104C40001832C4E9161310230C227149C4E91C322E
:104C5000C4E91A1310230C226E49C4E92032C4E9B6
:104C60001E1310230C226C49C4E92432C4E9221318
:104C700010230C226949C4E92832C4E926132023F1
:104C80000C226749C4E92C32C4E92A1310230122FB
:104C90006449C4E93032C4E92E1310230122624969
:104CA000C4E93432C4E93213102301225F49C4E954
:104CB0003832C4E93613102301225D49C4E93C327D
:104CC000C4E93A13102301225A49C4E94032C4E925
:104CD0003E13102301225849C4E94432C4E9421367
:104CE00011232046C4F848310DB0F0BD434A012BD2
:104CF000A2614FF008026062C4E9072288D0C4E9CB
:104D00000B223F4A022B6063A26288D03D4A032BEC
:104D1000C4E90E21C4E9101187D03B4A042BC4E931
:104D20001221C4E9141087D0384A052BC4E9162192
:104D3000C4E9181087D0364A062BC4E91A21C4E901
:104D40001C1087D0334A072BC4E91E21C4E9201068
:104D500087D0314A082BC4E92221C4E9241087D026
:104D60002E4A092BC4E92621C4E9281087D0202225
:104D70000C212B480A2BC4E92A02C4E92C2185D036
:104D80001022012127480B2BC4E92E02C4E930214F
:104D900083D025480C2BC4E93202C4E9342183D0E6
:104DA00022480D2BC4E93602C4E9382183D02048BB
:104DB0000E2BC4E93A02C4E93C2183D01D480F2BD5
:104DC000C4E93E02C4E9402183D01B48102BC4E94A
:104DD0004202C4E9442183D020460DB0F0BD00BF9B
:104DE000AC15011080C3C901008008400B0A0908F6
:104DF0000F0DF0007D867D86403E02104038021087
:104E0000403202104012021040FA011040E201103C
:104E100040CA011040B20110409A011040820110B6
:104E20004022011040200110401E0110401C0110C2
:104E3000401A011040180110401601102DE9F04FE2
:104E400087B0B0F862C1109C119D64459DF8488000
:104E500071DAB0F86461B5426DDAA7186BD415EB5E
:104E6000030E68D4002CADBF00246442BA469246BB
:104E7000002D0194ACBF00246C4203945446A7EB70
:104E80000C0929EAE9799145D4BFAAEB0904A41ACF
:104E9000002C02944FDDAEEB060E2EEAEE7E9E4510
:104EA000039CD4BFA3EB0E03DB1A9C4243DAB8F198
:104EB000000F43D103EB0508234602FB03F325440F
:104EC0001C46109B05EB850703EB8717019BA1464A
:104ED00001EB430301EB4404C2F5A071C4EB470EA0
:104EE00005934FF61F0AB34643464F0004E00135D1
:104EF0009D42BE4491441ED0AB45F8D9019C109907
:104F0000029E2144CDE903B3059C06EB010804EBA6
:104F100049048C4507D92688564504D0436803EBDD
:104F2000040B2BF80E600131884504F10204F0D126
:104F3000DDE903B3DBE707B0BDE8F08F05EB030B5A
:104F40002B1902FB04F402F5A0754FEA450927442A
:104F500003EB830507EB851701EB4705A9F52077E0
:104F60000F4401994FF61F0AA7EB4101B046059186
:104F700004E001335B454D441444DCD09845F8D936
:104F8000CDF80C809846019E1099029F3144059EF1
:104F900007EB010E06EB440604928C4501F101017A
:104FA00006D936F8023C534502D04268AF1BD353B2
:104FB0007145A6F10206F0D14346DDE90382D8E748
:104FC000F0B55FFA83FEBEF10F0F079EDDE90554D1
:104FD00057D8002D55DB07EE904A0901B8EEE77A65
:104FE00007EE901AF8EEE77ABEEEC87AFEEEC87ABF
:104FF00017EE107A17EE901AB0F86241C91BB4EBA5
:10500000214F4FEA21473CDD07EE906A1201B8EECE
:10501000E77A07EE902AF8EEE77ABEEEC87AFEEE5F
:10502000C87A17EE104A17EE902AB0F86411121BD6
:10503000B1EB224F4FEA224423DD17F1100F20DBA2
:1050400014F1100F1DDBD0F84821954219DA00EB5E
:10505000051CDCF80810A1B1DCF81420934210DA2A
:10506000DCE903250026CDE9057402FB03F405FB0A
:1050700004F42B4601EB44010796BDE8F040FFF72E
:10508000DDBEF0BD002900F0A1802DE9F04F99466A
:105090000B788B46ADF5057D002B79D000269DF869
:1050A00039129DF838421546494AC90001F4FC619D
:1050B00002EA04220A439DF83A12B0F8627142EA09
:1050C000D10262F30F06B0F86481424CDFF808A108
:1050D00062F31F46392B5FD82F2B64D8202B52D078
:1050E0002F2B51D14FF0580C04AB43F8044B84AA3A
:1050F0009342FAD1D4440CF1FF3104AA0CF1070C0D
:1051000011F8013F403213F0800F1CBF42F8406C91
:1051100042F8206C13F0400F1CBF42F83C6C42F880
:105120001C6C13F0200F1CBF42F8386C42F8186C4E
:1051300013F0100F1CBF42F8346C42F8146C13F0DB
:10514000080F1CBF42F8306C42F8106C13F0040FCB
:105150001CBF42F82C6C42F80C6C13F0020F1CBF01
:1051600042F8286C42F8086CDB0744BF42F8246C14
:1051700042F8046C8C45C3D1AF4204DD15F10F0F2A
:1051800001DBC14514DB10351BF8013F002BA1D119
:105190000DF5057DBDE8F08F03F0DF03582BF3D14B
:1051A0004FF0500CA0E7A3F1300C4FEACC0C9BE77A
:1051B00019F10F0FE7DB002302931023CDE900590B
:1051C0001A460DEB0301FFF739FEDCE7704700BF1D
:1051D00000F8FFFF1FF81FF8E015011070B4002958
:1051E000049C9DF814500CDBD0F848618E4208DD19
:1051F00000EB0113996821B1002A02DB5E69B2421B
:1052000001DB70BC7047D3E9036306FB02FC059524
:10521000B4F9065003FB0CFC0495B4F90240324685
:10522000039401EB4C0170BCFFF708BE10B50446B7
:10523000064B4068236008B101F022FF002304F50B
:10524000A670636006F034FC204610BDAC1501105A
:1052500010B50446094B4068236008B101F010FF07
:10526000002304F5A670636006F022FC20464FF48C
:10527000D27101F007FF204610BD00BFAC15011030
:1052800005299DBF8088084100F00100002070477B
:1052900005290AD883880B4113F0010305D0C08883
:1052A0000841C04300F0010070470020704700BF74
:1052B000052908D883880B41DB0704D4C08808413E
:1052C00000F0010070470020704700BF704700BF2A
:1052D0002DE9F84F04460E2000F064FA00250E2058
:1052E00045EC440001212A4600F038FA04204649E2
:1052F000B4F804C00B68454E454A03F47043A580DA
:10530000A4F806C0336010600B68DF05FCD50425E7
:105310004A680B683D4983F480533D4803F4704369
:105320000B6091B2384A05601368DE05FCD55368FE
:10533000B1F5487FC3F57F6303F10F039BB22AD217
:105340004FF0010B4FF0110A4FF031094FF02108D7
:1053500015223520252119274FF0390E4FF0290C41
:1053600005250926A4F804B0B3F5487F33D23A46A0
:1053700070466146A6804FF050435B685D044FF075
:10538000504358BF02465B6858BFA1805B0658BFB8
:10539000A280BDE8F88FB1F5486F24D94FF0020B19
:1053A000B3F5487F4FF0120A4FF032094FF0220850
:1053B0004FF016024FF036004FF026014FF01A075B
:1053C0004FF03A0E4FF02A0C4FF006054FF00A0648
:1053D000A4F804B0CBD3B3F5486F9DBF52464846FE
:1053E0004146A580C7E74FF0100A4FF030094FF053
:1053F000200814223420242118274FF0380E4FF0B3
:10540000280C04250826AFE700000A4000100A40D7
:1054100000200A4010B50446082101F033FE204662
:1054200010BD00BF70B500241B4B0546C0E9003419
:1054300005F0DEFF1F211A2000F072F922462146F6
:105440001A2000F08BF921461A2000F09BF91F2149
:105450001B2000F065F9224621461B2000F07EF952
:1054600021461B2000F08EF90E2000F09BF906204B
:1054700000F098F90E2044EC4400062644EC446009
:105480000121224600F06AF930462246012100F04F
:1054900065F9284670BD00BF48560210704700BF2E
:1054A00010B5012984B029D002290CBF3322012272
:1054B00000244FF0040C8DF80D20022303AA5A217A
:1054C00000940F488DF80CC006F070F84FF0050CF2
:1054D00003AA02235A2100940948ADF80CC006F033
:1054E00065F84FF4867C02235A2103AA00940448ED
:1054F000ADF80CC006F05AF804B010BD2F22D7E763
:105500004C13002010B54FF00C0C002484B0022383
:105510005A210DEB0C0200940348ADF80CC006F0C4
:1055200045F804B010BD00BF4C13002010B5044670
:10553000042101F0A7FD204610BD00BF30B505468F
:10554000464B85B046492B60464806F009F80321D2
:10555000002000F0E5F80321012000F0E1F800222E
:105560000121104600F0FAF801210022084600242B
:1055700000F0F4F801220223ADF80C205A2103AA0E
:105580000094384806F012F840F203620223ADF8A6
:105590000C205A2103AA0094324806F007F804228E
:1055A0000223ADF80C205A2103AA00942D4805F0DF
:1055B000FDFF05220223ADF80C205A2103AA009416
:1055C000284805F0F3FF06220223ADF80C205A21EB
:1055D00003AA0094234805F0E9FF07220223ADF84F
:1055E0000C205A2103AA00941E4805F0DFFF082270
:1055F0000223ADF80C205A2103AA0094194805F0A3
:10560000D5FF09220223ADF80C205A2103AA0094E9
:10561000144805F0CBFF0A220223ADF80C205A21D2
:1056200003AA00940F4805F0C1FF0B220223ADF836
:105630000C205A2103AA00940A4805F0B7FF4FF046
:105640000C0C02235A210DEB0C0200940548ADF816
:105650000CC005F0ABFF284605B030BD68560210FF
:10566000801A06004C13002080697047D0E90401BD
:10567000704700BF704700BF70B5044600F0FAFFE6
:1056800000234FF47A7205460E4607F041FFC4E945
:105690000401D4E9020150EA010317D0281A66EB8D
:1056A000010101F099FCDFED0C6A06EE100ADFED56
:1056B0000B7A86EE267AB4EEE77AF1EE10FA77FEF0
:1056C000877AC4ED067AC4E9025670BD044BC4E97A
:1056D0000256A36170BD00BF00247449CDCCCC3DFF
:1056E0006F12833C10B50446202101F0CBFC20460C
:1056F00010BD00BF000000009FED057B064A074972
:1057000080ED027B80ED047B01608261704700BF09
:1057100000000000000000006F12833C8056021061
:1057200010B44FF480740C4B53F8202003EB80032B
:10573000C00082F0400200F1804003F5805C02F07E
:10574000C00200F5203003F54053CCF80020416042
:105750001C605DF8044B70470480034010B4084C93
:10576000C90041EA820154F8202004EB8003514033
:1057700003F5805301F00C015DF8044B196070478C
:1057800004800340064B402203EB800319B103F56C
:1057900000531A60704703F540531A60704700BF0A
:1057A0000480034030B44FF0000343EC440043EC6A
:1057B000400005254FF480740B4BC20053F82010B5
:1057C00003EB800081F0400102F1804303F52033B8
:1057D00001F0C00200F5805100F540500A605D60A4
:1057E000046030BC704700BF048003400FB400B5B4
:1057F00083B0049C074803F065F93CB105A9204635
:10580000019102F0BFFF044803F05CF9012002F0AF
:10581000D1FF00BF78D9001088D9001070B5864636
:10582000EFF3108572B6124CD4E8CF6F0120002E32
:10583000FAD1C4E8460F002EF6D1BFF35F8F4FF0C8
:10584000010CC80801F007030CFA03F31EF800C0AE
:105850001CEA030608D14CEA030C0EF800C0C4E8A9
:105860008F6F85F3108870BD1046FFF7BFFF00BF34
:10587000631D0020F8B5EFF3108772B61C4ED6E812
:10588000CF5F0124002DFAD1C6E8454F002DF6D197
:10589000BFF35F8F9A421BD8012502E00132934289
:1058A00022D3D40810F804E002F0070C05FA0CFC2F
:1058B0001EEA0C0FF2D14EEA0C0E00F804E010467E
:1058C0000023C6E88F3F87F31088984207DBF8BDB6
:1058D0000023C6E88F3F87F310884FF0FF30002980
:1058E000F5D00698FFF782FF4FF0FF30E8E700BFE2
:1058F000631D002000B5EFF3108E72B6104BD3E895
:10590000CFCF0122BCF1000FF9D1C3E84C2FBCF17D
:10591000000FF4D1BFF35F8F01224FEAD10C01F0E9
:10592000070102FA01F110F80C2022EA010200F846
:105930000C200022C3E88F2F8EF310885DF804FB43
:10594000631D0020044A1078431CDBB2182B28BFCB
:1059500010231370704700BFB012002010B5054C23
:1059600082B001461F23182200940348FFF782FFEC
:1059700002B010BD8CD90010742100204FF0E0223D
:10598000936843F000539360704700BF0021044BBD
:1059900003F12002C3E88F1F01339342FAD170470D
:1059A000581D00204FF0E0234FF08032C3F8002450
:1059B000C3F80424C3F80824C3F80C24C3F8102443
:1059C000C3F81424C3F81824C3F81C24C3F82024F3
:1059D000C3F82424C3F82824C3F82C24C3F83024A3
:1059E00062B67047012300F01F029340400941B1A5
:1059F000800000F1604000F56140C0F88031036034
:105A00007047024A203042F82030704700E100E041
:105A10000123064A410952F8212000F01F0003FA31
:105A200000F01040003818BF0120704700E100E08E
:105A300001224309034900F01F008240403341F82E
:105A40002320704700E100E0054A10309268054BC2
:105A500052F82000C01A2F288CBF00200120704768
:105A600000ED00E0B4120020F8B50D46EFF310870A
:105A700072B6124ED6E8CF2F0123002AFAD1C6E81B
:105A8000423F002AF6D1BFF35F8F0D4B00F11004A7
:105A90009B680C4A53F82430934203D0994201D0BA
:105AA00000F076FF064B9B6843F82450BFF35F8FEE
:105AB0000023C6E88F3F87F31088F8BD611D0020E2
:105AC00000ED00E0110100102DE9F04F81468B46FA
:105AD000164683B0EFF3108372B6DFF8D0A10093BF
